:100000000C9446000C9465000C9465000C946500FB
:100010000C9465000C9465000C9465000C946500CC
:100020000C9465000C9465000C9465000C946500BC
:100030000C9465000C9465000C9465000C946500AC
:100040000C9465000C9465000C9465000C9465009C
:100050000C9465000C945F1B0C9465000C94650077
:100060000C9465000C9465000C9465000C9465007C
:100070000C9465000C9465000C9465000C9465006C
:100080000C9465000C9465000C94650011241FBE4F
:10009000CFEFD0E1DEBFCDBF13E0A0E0B1E0E6E6F8
:1000A000F5E500E00BBF02C007900D92AE32B1073C
:1000B000D9F713E0AEE2B3E001C01D92A233B1075D
:1000C000E1F70E94A4280C94B12A0C940000EF924E
:1000D000FF920F93DF93CF93CDB7DEB760970FB644
:1000E000F894DEBF0FBECDBFA82F002309F461C076
:1000F0007E010894E11CF11C88E0F70111928A95B9
:10010000E9F729833A834B835C836D837E83AF83D6
:10011000988780E2801BE82FFF27E7FDF095498153
:100120005A816B817C81181684F019861A861B8689
:100130001C86882799278E1B9F0B04C0440F551FD0
:10014000661F771F8A95D2F728C0202F332727FDF7
:100150003095DB01CA01022E04C0880F991FAA1F27
:10016000BB1F0A94D2F789879A87AB87BC8704C0E4
:100170007695679557954795EA95D2F78D819E813B
:10018000AF81B88504C0880F991FAA1FBB1F2A958D
:10019000D2F7482B592B6A2B7B2B4D875E876F87B5
:1001A000788B29853A854B855C856D857E85AF8505
:1001B00098898A2F60960FB6F894DEBF0FBECDBF28
:1001C000CF91DF910F91FF90EF900895EF92FF9202
:1001D0000F931F937B018C0120E030E040E05FE44F
:1001E0000E94BF1688238CF0C801B70120E030E0E0
:1001F00040E05FE40E94BB140E947D179B01AC01AC
:10020000205030404040504806C0C801B7010E940D
:100210007D179B01AC01B901CA011F910F91FF909D
:10022000EF900895EF92FF920F931F937B018C0143
:1002300020E030E040E050E00E94EF1688230CF010
:100240005CC0C801B70190580E9486012195E1E089
:10025000121608F0E0E03195F1E0131608F0F0E036
:10026000E32EEE1AE1E03E1508F0E0E0FE2B4195AA
:10027000A1E0141608F0A0E0F42EFF1AE1E04F15FB
:1002800008F0E0E0AE2B5195F1E0151608F0F0E033
:10029000052F0A1BE1E0501708F0E0E0FE2B619506
:1002A000A1E0161608F0A0E0162F1F1BE1E0611771
:1002B00008F0E0E0AE2B7195F1E0171608F0F0E0E1
:1002C000B72FBA1BE1E07B1708F0E0E0FE2B819529
:1002D000A1E0181608F0A0E0382F3F1BF32FE1E053
:1002E000831708F0E0E0AE2B91953E2D4F2D502F57
:1002F000612F7B2F8F2F9A1B04C0C801B7010E946A
:1003000086011F910F91FF90EF900895A0E0B0E05B
:10031000ECE8F1E00C947A2A7B018C0120E030E0DB
:1003200040E85FE30E94EF1688234CF4AA24BB2424
:10033000CC24DD24EE24FF2400E010E086C0C801B8
:10034000B70120E030E040E85FE40E94EF16882328
:1003500054F4C801B7010E94E6005B016C01EE2471
:10036000FF24870172C0C801B70120E030E040E8F7
:100370005FE50E94EF1687FD0FC0AA24AA94BB2454
:10038000BA94CC24CA94DD24DA94EE24EA94FF24AF
:10039000FA940FEF1FEF59C0C801B70120E030E019
:1003A00040E85FE20E9419157B018C01222433246E
:1003B000210190E1A92EB12CC12CD12CC0E0D0E0BC
:1003C00061E070E080E090E00A2C04C0660F771FC7
:1003D000881F991F0A94D2F70E94D1173B014C0144
:1003E000C801B701A40193010E94BF16882364F0DD
:1003F0002A283B284C285D28C801B701A401930195
:100400000E9413167B018C01D694C794B794A794CD
:100410002196C530D105A1F6C801B70120E030E032
:1004200040E85FE40E9419150E94E6005B016C0140
:100430009B01A60160E070E080E090E0022D0E9448
:10044000670059016A017B018C019501A601B70182
:10045000C801CDB7DEB7E2E10C94962AA2E0B0E085
:10046000E4E3F2E00C947A2A122FB32EA42E952EF8
:10047000862E372E282E9A83C22ED32EE42EF52ECA
:10048000A701960160E070E080E090E02117A1F400
:100490003B1591F44A1581F4591571F4681561F40E
:1004A000731551F4821541F4AA819A1729F4C701F2
:1004B000B6010E94D117AAC0212F3B2D4A2D592DDC
:1004C000682D732D822D9A8100E20E944A18C9017D
:1004D000DA018030E0E09E07E1E0AE07E0E0BE0731
:1004E00080F48F3F9105A105B10531F028F028E097
:1004F00030E040E050E016C020E030E040E050E066
:1005000011C08030F0E09F07F0E0AF07F1E0BF07D7
:1005100028F028E130E040E050E004C020E130E085
:1005200040E050E0022E04C0B695A79597958795B8
:100530000A94D2F7FC01E85FFE4F808129013A015D
:10054000480E511C611C711C4982212F3B2D4A2DE4
:10055000592D682D732D822D9A81042D0E944A18E1
:10056000C901DA014C015D0180E290E0841995092E
:1005700004C0CC0CDD1CEE1CFF1C8A95D2F7C11404
:10058000D104E104F10441F081E090E0A0E0B0E0AA
:10059000882A992AAA2ABB2A90E2491651046104A2
:1005A000710459F40F2EF0E0EF2EF0E0FF2EF0E88A
:1005B0000F2FFFE41F2FF02D21C0AFE14A16510489
:1005C0006104710459F40F2EF0E0EF2EF0E0FF2EDD
:1005D000F0E00F2FFFE41F2FF02D10C061E070E05E
:1005E00080E090E0098004C0660F771F881F991F84
:1005F0000A94D2F70E941F177B018C01C501B40138
:100600000E94D117A80197010E9419152296E2E1D4
:100610000C94962AA2E7B0E0E0E1F3E00C947A2A89
:10062000982E892E712E88E0FE013196DF01682E0A
:100630001D926A94E9F729833A834B835C836D8327
:100640007E839F829887FE013996DF011D928A95ED
:10065000E9F7A986BA86CB86DC86ED86FE860F870B
:10066000188B8D819E81AF81B885B7FD07C0E1965B
:100670001CAE1DAE1EAE1FAEE19764C0219581E099
:10068000121608F080E0319591E0131608F090E022
:10069000B32FB81B81E03B1708F080E0982B419501
:1006A00031E0141608F030E0A42FA91B81E04A17AE
:1006B00008F080E0382B519591E0151608F090E095
:1006C000F52FF31B81E05F1708F080E0982B619510
:1006D00031E0161608F030E0E62FE91B81E06E17D6
:1006E00008F080E0382B719541E0171608F040E0E3
:1006F000572F531B81E0751708F080E0482B892D98
:10070000819591E0181608F090E0682E641A462D45
:1007100031E0861508F030E0932B882D8195891BF8
:100720002983BA83AB83FC83ED835E834F83888701
:100730002FEF3FEF4FEF5FEFE1962CAF3DAF4EAFA6
:100740005FAFE1978D859E85AF85B889B7FF6AC099
:10075000E1964CAD5DAD6EAD7FADE19740955095A6
:1007600060957095E1964CAF5DAF6EAF7FAFE1974E
:10077000A19481E01A1408F080E0B19491E01B1478
:1007800008F090E06B2D681B81E0B61608F080E061
:10079000982BC19421E01C1408F020E05C2D591B1B
:1007A00081E0C51608F080E0282BD19491E01D145B
:1007B00008F090E04D2D421B81E0D41608F080E057
:1007C000982BE19421E01E1408F020E03E2D391B07
:1007D00081E0E31608F080E0282BF19491E01F14EB
:1007E00008F090E07F2D721B272F81E0F71608F0AC
:1007F00080E0982B019511E0101608F010E0802F92
:10080000891B982F81E0091708F080E0182B872DAD
:100810008195811BA9866A875B874C873D872E87D8
:100820009F87888B99812A813B814C815D816E8174
:100830007F81A885B9851A850B85FC84ED84DE84CB
:10084000CF84B88888E0E1E18E2E912C8C0E9D1E1D
:10085000F401682E11926A94E9F7998B2A8B3B8BED
:100860004C8B5D8B6E8B7F8BA88F9E01275E3F4FDD
:10087000F90111928A95E9F7B98F1A8F0B8FFC8EC7
:10088000ED8EDE8ECF8EB8A2298C3A8C4B8C5C8C90
:10089000ED8CFE8C0F8D18A169887A888B889C88D6
:1008A00021966CAE7DAE8EAE9FAE21976D887E8810
:1008B0008F88988CE114F1040105110509F0D9C362
:1008C000621473048404950408F057C100E02016F4
:1008D00000E0300601E0400600E0500688F41FEF1B
:1008E000211631044104510439F030F048E0E42E7F
:1008F000F12C012D112D18C0EE24FF24870114C006
:1009000020E0221620E0320620E0420621E05206D6
:1009100030F038E1E32EF12C012D112D05C020E13E
:10092000E22EF12C012D112DD201C1010E2C04C09B
:10093000B695A795979587950A94D2F7885F9E4FAD
:10094000DC012C9180E290E0A0E0B0E08E199F09DC
:10095000A00BB10B7C018D01E21AF108010911090C
:10096000E114F10401051105D1F10E2C04C0220C93
:10097000331C441C551C0A94D2F7A40193010E2C7D
:1009800004C0220F331F441F551F0A94D2F780E280
:1009900090E08E199F0921966CAC7DAC8EAC9FAC1B
:1009A000219704C096948794779467948A95D2F798
:1009B000622A732A842A952A2196ACACBDACCEACAF
:1009C000DFAC219704C0AA0CBB1CCC1CDD1CEA9434
:1009D000D2F72196ACAEBDAECEAEDFAE21976201AE
:1009E000EE24FF242996CCAEDDAEEEAEFFAE299705
:1009F00092018101207030702D960CAF1DAF2EAF8B
:100A00003FAF2D97C401B301A70196010E94582A58
:100A10007B018C01C401B30129962CAD3DAD4EADD7
:100A20005FAD29970E94582AC901DA013C014D01A6
:100A3000C401B3012D962CAD3DAD4EAD5FAD2D97EC
:100A40000E94392A9B01AC018701FF24EE242196E4
:100A5000ACACBDACCEACDFAC2197C601AA27BB279E
:100A600057016801A82AB92ACA2ADB2AA216B306A6
:100A7000C406D506E0F4089461087108810891085D
:100A8000A20CB31CC41CD51CA214B304C404D5040A
:100A900070F0A216B306C406D50648F4089461089F
:100AA000710881089108A20CB31CC41CD51CA21AA1
:100AB000B30AC40AD50AC601B50129962CAD3DADCD
:100AC0004EAD5FAD29970E94582A7B018C01C6016B
:100AD000B50129962CAD3DAD4EAD5FAD29970E9475
:100AE000582AC901DA015C016D01C601B5012D96D4
:100AF0002CAD3DAD4EAD5FAD2D970E94392A9B01C7
:100B0000AC018701FF24EE2421968CAD9DADAEADE6
:100B1000BFAD2197A070B070E82AF92A0A2B1B2BD1
:100B2000E216F30604071507C0F40894A108B108FB
:100B3000C108D108E20CF31C041D151DE214F304D6
:100B40000405150550F0E216F3060407150728F40E
:100B50000894A108B108C108D108D30199278827B2
:100B600086017501E82AF92A0A2B1B2B2596ECAE83
:100B7000FDAE0EAF1FAF2597EBC421143104410425
:100B8000510471F461E070E080E090E020E030E03A
:100B900040E050E00E94582AC901DA011C012D01F1
:100BA00000E0201600E0300601E0400600E05006BC
:100BB00088F41FEF211631044104510431F028F06C
:100BC00048E050E060E070E017C040E050E060E0D6
:100BD00070E012C020E0221620E0320620E042063B
:100BE00021E0520628F048E150E060E070E004C0E7
:100BF00040E150E060E070E0D201C101042E04C089
:100C0000B695A795979587950A94D2F7885F9E4FDA
:100C1000DC012C91E0E2EE2EF12C012D112DD801FA
:100C2000C701841B950BA60BB70B821B9109A10969
:100C3000B1090097A105B10561F464015301A2183F
:100C4000B308C408D50831E0632E712C812C912C97
:100C500024C1E3968FAFE397082E04C0220C331C07
:100C6000441C551C0A94D2F7EE2DE81B6401530175
:100C70000E2E04C0D694C794B794A7940A94D2F7C2
:100C8000A4019301E3960FACE39704C0220F331F36
:100C9000441F551F0A94D2F721966CAC7DAC8EACE4
:100CA0009FAC21970E2E04C09694879477946794F6
:100CB0000A94D2F784017301E22AF32A042B152B3C
:100CC000E9AEFAAE0BAF1CAF320188249924920131
:100CD00081012070307061960CAF1DAF2EAF3FAF19
:100CE0006197C601B501A40193010E94582A7B01B6
:100CF0008C01C601B501A40193010E94582AC901C3
:100D0000DA0165968CAF9DAFAEAFBFAF6597BC0102
:100D1000CD0161962CAD3DAD4EAD5FAD61970E94AA
:100D2000392A9B01AC018701FF24EE24A9ACBAAC9F
:100D3000CBACDCACC601AA27BB275C016D01AE2899
:100D4000BF28C02AD12AA216B306C406D50660F56C
:100D500065966CAD7DAD8EAD9FAD65976150704071
:100D60008040904065966CAF7DAF8EAF9FAF65972A
:100D7000A20CB31CC41CD51CA214B304C404D50417
:100D800098F0A216B306C406D50670F46150704000
:100D90008040904065966CAF7DAF8EAF9FAF6597FA
:100DA000A20CB31CC41CD51CA21AB30AC40AD50ACF
:100DB000C601B501A40193010E94582A7B018C0150
:100DC000C601B501A40193010E94582AC901DA01A4
:100DD0003C014D01C401B30161962CAD3DAD4EAD5A
:100DE0005FAD61970E94392A9B01AC018701FF2406
:100DF000EE2489AD9AADABADBCADA070B07057011B
:100E00006801A82AB92ACA2ADB2AA216B306C40690
:100E1000D506E0F408946108710881089108A20CD5
:100E2000B31CC41CD51CA214B304C404D50470F0B4
:100E3000A216B306C406D50648F4089461087108E2
:100E400081089108A20CB31CC41CD51C21968CAD42
:100E50009DADAEADBFAD2197E3960FACE39704C057
:100E6000880F991FAA1FBB1F0A94D2F721968CAF37
:100E70009DAFAEAFBFAF2197A21AB30AC40AD50A7D
:100E80006596ECACFDAC0EAD1FAD6597D70199270B
:100E90008827682A792A8A2A9B2A820122273327CF
:100EA00069960CAF1DAF2EAF3FAF6997A2019101BC
:100EB000407050706D962CAF3DAF4EAF5FAF6D97E9
:100EC000C601B50169962CAD3DAD4EAD5FAD6997DC
:100ED0000E94582A7B018C01C601B50169962CAD90
:100EE0003DAD4EAD5FAD69970E94582AC901DA0148
:100EF000A1968CAF9DAFAEAFBFAFA197BC01CD01A6
:100F00006D962CAD3DAD4EAD5FAD6D970E94392A0B
:100F10009B01AC018701FF24EE242196ACACBDAC53
:100F2000CEACDFAC2197C601AA27BB2757016801C9
:100F3000A82AB92ACA2ADB2AA216B306C406D506ED
:100F400060F5A1966CAD7DAD8EAD9FADA197615062
:100F5000704080409040A1966CAF7DAF8EAF9FAF48
:100F6000A197A20CB31CC41CD51CA214B304C404C6
:100F7000D50498F0A216B306C406D50670F46150E5
:100F8000704080409040A1966CAF7DAF8EAF9FAF18
:100F9000A197A20CB31CC41CD51CA21AB30AC40A84
:100FA000D50AC601B50169962CAD3DAD4EAD5FAD1C
:100FB00069970E94582A7B018C01C601B501699688
:100FC0002CAD3DAD4EAD5FAD69970E94582AC90169
:100FD000DA015C016D01C601B5016D962CAD3DAD28
:100FE0004EAD5FAD6D970E94392A9B01AC01870120
:100FF000FF24EE2421968CAD9DADAEADBFAD219703
:10100000A070B070E82AF92A0A2B1B2BE216F3060F
:1010100004071507C0F40894A108B108C108D10855
:10102000E20CF31C041D151DE214F3040405150560
:1010300050F0E216F3060407150728F40894A108F7
:10104000B108C108D108A196ECACFDAC0EAD1FAD46
:10105000A197D7019927882796018501082B192B7D
:101060002A2B3B2B25960CAF1DAF2EAF3FAF2597FC
:1010700072C26E147F048006910608F45FC220E0FD
:10108000E21620E0F20621E0020720E0120788F4D1
:101090003FEFE316F1040105110531F028F048E0B7
:1010A00050E060E070E017C040E050E060E070E0C9
:1010B00012C040E0E41640E0F40640E0040741E0DE
:1010C000140728F048E150E060E070E004C040E11F
:1010D00050E060E070E0D801C701042E04C0B6956E
:1010E000A795979587950A94D2F7885F9E4FDC0164
:1010F0002C9130E2A32EB12CC12CD12CD601C501EC
:10110000841B950BA60BB70B821B9109A109B10992
:101110000097A105B10599F4E614F704080519052F
:1011200008F4FEC121966CAC7DAC8EAC9FAC2197CF
:10113000621473048404950408F0F2C1FFC1E296BE
:101140008FAFE297082E04C0EE0CFF1C001F111F8A
:101150000A94D2F76A2D681BD201C101062E04C081
:10116000B695A795979587950A94D2F75C016D017E
:10117000AE28BF28C02AD12AADAABEAACFAAD8AE0F
:1011800072016101E2960FACE29704C0CC0CDD1C49
:10119000EE1CFF1C0A94D2F7C9AADAAAEBAAFCAA91
:1011A00064015301062E04C0D694C794B794A79443
:1011B0000A94D2F7D401C301E2960FACE29704C0BF
:1011C000880F991FAA1FBB1F0A94D2F72196ECAC77
:1011D000FDAC0EAD1FAD219704C016950795F79491
:1011E000E7946A95D2F737014801682A792A8A2A52
:1011F0009B2A6DA67EA68FA698AAEDA8FEA80FA989
:1012000018AD380188249924980187012070307026
:10121000A5960CAF1DAF2EAF3FAFA597C601B50188
:10122000A40193010E94582A7B018C01C601B501DB
:10123000A40193010E94582AC901DA011C012D0161
:10124000C201B101A5962CAD3DAD4EAD5FADA597E8
:101250000E94392A9B01AC018701FF24EE24ADA432
:10126000BEA4CFA4D8A8C601AA27BB2757016801EE
:10127000A82AB92ACA2ADB2AA216B306C406D506AA
:1012800000F508942108310841085108EDA8FEA88E
:101290000FA918ADAE0CBF1CC01ED11EAE14BF04EA
:1012A000C006D10670F0A216B306C406D50648F4EF
:1012B00008942108310841085108AE0CBF1CC01E1B
:1012C000D11EA21AB30AC40AD50AC601B501A401E7
:1012D00093010E94582A7B018C01C601B501A4012B
:1012E00093010E94582AC901DA013C014D01C40151
:1012F000B301A5962CAD3DAD4EAD5FADA5970E9457
:10130000392A9B01AC018701FF24EE248DA59EA5FF
:10131000AFA5B8A9A070B07057016801A82AB92A72
:10132000CA2ADB2AA216B306C406D50600F508941D
:1013300061087108810891086DA97EA98FA998ADEF
:10134000A60EB71EC81ED91EA616B706C806D90611
:1013500070F0A216B306C406D50648F408946108D6
:10136000710881089108A60EB71EC81ED91ED601A5
:10137000C501821B930BA40BB50B89A79AA7ABA73A
:10138000BCA7D1019927882764015301A82AB92A4B
:10139000CA2ADB2A2596ACAEBDAECEAEDFAE25970F
:1013A000860175012FEF3FEF40E050E0E222F3228B
:1013B00004231523A60166277727AD964CAF5DAFB2
:1013C0006EAF7FAFAD97A9A8BAA8CBA8DCA86FEF86
:1013D0007FEF80E090E0A622B722C822D92289A917
:1013E0009AA9ABA9BCA91D0144245524C801B70181
:1013F000A60195010E94392AA9966CAF7DAF8EAFE8
:101400009FAFA997C801B701A20191010E94392A93
:101410003B014C01AD966CAD7DAD8EAD9FADAD97F2
:10142000A60195010E94392A7B018C01AD966CAD15
:101430007DAD8EAD9FADAD97A20191010E94392A7D
:101440005B016C01A8019701260D371D481D591D30
:10145000A9966CAC7DAC8EAC9FACA997C401AA27B1
:10146000BB27280F391F4A1F5B1F2E153F0540075A
:10147000510748F4E12CF12C61E0062F112DAE0C40
:10148000BF1CC01ED11ECA01AA27BB27BC01CD01AB
:101490006A0D7B1D8C1D9D1D69A47AA48BA49CA440
:1014A000661677068806990650F166157705880551
:1014B000990509F04DC0D90199278827A9962CAD27
:1014C0003DAD4EAD5FADA99740705070820F931F38
:1014D000A41FB51F21962CAD3DAD4EAD5FAD21973C
:1014E000E2960FACE29704C0220F331F441F551F32
:1014F0000A94D2F7281739074A075B0748F525965B
:101500000CAD1DAD2EAD3FAD2597015010402040D4
:10151000304025960CAF1DAF2EAF3FAF259718C0BA
:1015200066247724430121E030E040E050E0259636
:101530002CAF3DAF4EAF5FAF25970DC0662477242B
:10154000430125961CAE1DAE1EAE1FAE259703C0EF
:10155000662477244301FE01B19688E0DF011D92E5
:101560008A95E9F72596ACACBDACCEACDFAC25973F
:10157000A9A2BAA2CBA2DCA26DA27EA28FA298A63B
:1015800022962FAD22973AA14BA15CA1662D7EA198
:10159000DFA098A5E196ECACFDAC0EAD1FADE197D8
:1015A000E114F1040105110509F456C0219581E00B
:1015B000121608F080E03195E1E0131608F0E0E043
:1015C000932E981A81E0391508F080E0E82B4195B8
:1015D000F1E0141608F0F0E0A42EAE1A81E04A15EE
:1015E00008F080E0F82B5195E1E0151608F0E0E0F6
:1015F000B52EBF1A81E05B1508F080E0E82B6195FD
:10160000F1E0161608F0F0E0A62FAE1B81E06A1795
:1016100008F080E0F82B7195E1E0171608F0E0E0A3
:10162000C72ECF1A81E07C1508F080E0E82B8D2DC5
:101630008195F1E0181608F0F0E0D82EDE1AE1E00E
:101640008D1508F0E0E0FE2B892F8195392DA5013D
:101650006A2F7C2D982F9F1B8D2DCE58DF4FE2E1F6
:101660000C94962AA7E7B0E0E8E3FBE00C947A2A12
:10167000982E892E712E88E0FE013196DF01682EAA
:101680001D926A94E9F729833A834B835C836D83C7
:101690007E839F829887FE013996DF011D928A958D
:1016A000E9F7A986BA86CB86DC86ED86FE860F87AB
:1016B000188B8D819E81AF81B885B7FD07C0E196FB
:1016C0001CAE1DAE1EAE1FAEE19764C0219581E039
:1016D000121608F080E0319591E0131608F090E0C2
:1016E000B32FB81B81E03B1708F080E0982B4195A1
:1016F00031E0141608F030E0A42FA91B81E04A174E
:1017000008F080E0382B519591E0151608F090E034
:10171000F52FF31B81E05F1708F080E0982B6195AF
:1017200031E0161608F030E0E62FE91B81E06E1775
:1017300008F080E0382B719541E0171608F040E082
:10174000572F531B81E0751708F080E0482B892D37
:10175000819591E0181608F090E0682E641A462DE5
:1017600031E0861508F030E0932B882D8195891B98
:101770002983BA83AB83FC83ED835E834F838887A1
:101780002FEF3FEF4FEF5FEFE1962CAF3DAF4EAF46
:101790005FAFE1978D859E85AF85B889B7FF5AC049
:1017A000A19481E01A1408F080E0B19491E01B1438
:1017B00008F090E06B2D681B81E0B61608F080E021
:1017C000982BC19421E01C1408F020E05C2D591BDB
:1017D00081E0C51608F080E0282BD19491E01D141B
:1017E00008F090E04D2D421B81E0D41608F080E017
:1017F000982BE19421E01E1408F020E03E2D391BC7
:1018000081E0E31608F080E0282BF19491E01F14AA
:1018100008F090E07F2D721B272F81E0F71608F06B
:1018200080E0982B019511E0101608F010E0802F51
:10183000891B982F81E0091708F080E0182B872D6D
:101840008195811BA9866A875B874C873D872E8798
:101850009F87888B99812A813B814C815D816E8134
:101860007F81A885B9851A850B85FC84ED84DE848B
:10187000CF84B88888E0E9E18E2E912C8C0E9D1ED5
:10188000F401682E11926A94E9F7998F2A8F3B8FA1
:101890004C8F5D8F6E8F7F8FA8A39E012F5D3F4F72
:1018A000F90111928A95E9F7B9A31AA30BA3FCA237
:1018B000EDA2DEA2CFA2B8A629A03AA04BA05CA0C0
:1018C000ADA0BEA0CFA0D8A4498D5A8D6B8D7C8DC4
:1018D000E5964FAFE597E6965FAFE697E7966FAF71
:1018E000E797E8967FAFE897E8966CAC7DAC8EAC56
:1018F0009FACE8972D966CAE7DAE8EAE9FAE2D97C9
:101900008D8D9E8D2F8D38A13C01490161966CAE65
:101910007DAE8EAE9FAE6197A114B104C104D10417
:1019200009F028C3621473048404950408F00EC1FE
:1019300000E0201600E0300601E0400600E050061E
:1019400088F41FEF211631044104510439F030F0BE
:1019500088E0E82EF12C012D112D18C0EE24FF2473
:10196000870114C020E0221620E0320620E0420663
:1019700021E0520630F0B8E1EB2EF12C012D112DB3
:1019800005C0A0E1EA2EF12C012D112DD201C101DB
:101990000E2C04C0B695A795979587950A94D2F713
:1019A000885F9E4FDC012C9180E290E0A0E0B0E0E7
:1019B0008E199F09A00BB10B5C016D01A21AB10831
:1019C000C108D1086596ACAEBDAECEAEDFAE6597B0
:1019D000A114B104C104D10409F445C062966FADED
:1019E0006297062E04C0220C331C441C551C0A941A
:1019F000D2F7A4019301062E04C0220F331F441F07
:101A0000551F0A94D2F780E290E08A199B09E89664
:101A1000CCACDDACEEACFFACE89704C0F694E79438
:101A2000D794C7948A95D2F787017601E22AF32AE0
:101A3000042B152B6196ECAEFDAE0EAF1FAF619778
:101A4000E8960CAD1DAD2EAD3FADE89704C0000F7C
:101A5000111F221F331F6A95D2F72D960CAF1DAFB1
:101A60002EAF3FAF2D97320188249924A201910116
:101A70004070507069962CAF3DAF4EAF5FAF699725
:101A800061966CAD7DAD8EAD9FAD6197A401930164
:101A90000E94582A7B018C0161966CAD7DAD8EADA4
:101AA0009FAD6197A40193010E94582ACA01B90110
:101AB00069962CAD3DAD4EAD5FAD69970E94392A58
:101AC0009B01AC018701FF24EE242D96ACACBDAC8C
:101AD000CEACDFAC2D97C601AA27BB275701680102
:101AE000A82AB92ACA2ADB2AA216B306C406D50632
:101AF00090F4A20CB31CC41CD51CA214B304C404DF
:101B0000D50448F0A216B306C406D50620F4A20CEC
:101B1000B31CC41CD51CA21AB30AC40AD50AC60138
:101B2000B501A40193010E94582A7B018C01C601D2
:101B3000B501A40193010E94582ACA01B90169960E
:101B40002CAD3DAD4EAD5FAD6997C8C121143104D8
:101B50004104510471F461E070E080E090E020E025
:101B600030E040E050E00E94582AC901DA011C012F
:101B70002D0100E0201600E0300601E0400600E004
:101B8000500688F41FEF211631044104510439F046
:101B900030F068E0E62EF12C012D112D18C0EE2456
:101BA000FF24870114C020E0221620E0320620E046
:101BB000420621E0520630F058E1E52EF12C012DCD
:101BC000112D05C040E1E42EF12C012D112DD20183
:101BD000C1010E2C04C0B695A795979587950A94D8
:101BE000D2F7885F9E4FDC012C9130E2A32EB12CFE
:101BF000C12CD12CD601C5018E199F09A00BB10BA8
:101C00007C018D01E21AF108010911096596ECAE1B
:101C1000FDAE0EAF1FAF6597E114F104010511058C
:101C200039F464015301A218B308C408D508ECC004
:101C30006296FFAC6297E496FFAEE4970F2C04C067
:101C4000220C331C441C551C0A94D2F78A2D8F1980
:101C500064015301082E04C0D694C794B794A79486
:101C60000A94D2F7A401930104C0220F331F441F2A
:101C7000551FFA94D2F7E8966CAC7DAC8EAC9FAC55
:101C8000E89704C096948794779467948A95D2F7DE
:101C900084017301E22AF32A042B152B2996ECAE5A
:101CA000FDAE0EAF1FAF299732018824992492010F
:101CB0008101207030706D960CAF1DAF2EAF3FAF1D
:101CC0006D97C601B501A40193010E94582A7B01BA
:101CD0008C01C601B501A40193010E94582ACA01D2
:101CE000B9016D962CAD3DAD4EAD5FAD6D970E94C7
:101CF000392A9B01AC018701FF24EE242996ACAC64
:101D0000BDACCEACDFAC2997C601AA27BB275C01CE
:101D10006D01AE28BF28C02AD12AA216B306C40678
:101D2000D50690F4A20CB31CC41CD51CA214B30499
:101D3000C404D50448F0A216B306C406D50620F4A0
:101D4000A20CB31CC41CD51CA21AB30AC40AD50A1F
:101D5000C601B501A40193010E94582A7B018C01A0
:101D6000C601B501A40193010E94582ACA01B90114
:101D70006D962CAD3DAD4EAD5FAD6D970E94392A8D
:101D80009B01AC018701FF24EE2429968CAD9DAD0B
:101D9000AEADBFAD2997A070B07057016801A82AF9
:101DA000B92ACA2ADB2AA216B306C406D50690F4BD
:101DB000A20CB31CC41CD51CA214B304C404D504C7
:101DC00048F0A216B306C406D50620F4A20CB31C34
:101DD000C41CD51CE896ECACFDAC0EAD1FADE8976D
:101DE000E4960FACE49704C0EE0CFF1C001F111F1B
:101DF0000A94D2F72D96ECAEFDAE0EAF1FAF2D9725
:101E0000A21AB30AC40AD50A32018824992492017D
:101E1000810120703070A1960CAF1DAF2EAF3FAF87
:101E2000A197C601B501A40193010E94582A7B0124
:101E30008C01C601B501A40193010E94582ACA0170
:101E4000B901A1962CAD3DAD4EAD5FADA1970E94FD
:101E5000392A9B01AC018701FF24EE242D96ACACFE
:101E6000BDACCEACDFAC2D97C601AA27BB2757016E
:101E70006801A82AB92ACA2ADB2AA216B306C40610
:101E8000D50690F4A20CB31CC41CD51CA214B30438
:101E9000C404D50448F0A216B306C406D50620F43F
:101EA000A20CB31CC41CD51CA21AB30AC40AD50ABE
:101EB000C601B501A40193010E94582A7B018C013F
:101EC000C601B501A40193010E94582ACA01B901B3
:101ED000A1962CAD3DAD4EAD5FADA1970E94392AC4
:101EE0009B01AC018701FF24EE242D968CAD9DADA6
:101EF000AEADBFAD2D97A070B070E82AF92A0A2BBD
:101F00001B2BE216F3060407150790F4E20CF31CF2
:101F1000041D151DE214F3040405150548F0E2162E
:101F2000F3060407150720F4E20CF31C041D151D2D
:101F3000E21AF30A040B150BD801C70162960FAC25
:101F4000629704C0B695A795979587950A94D2F79E
:101F500089A79AA7ABA7BCA71DA61EA61FA618AA4D
:101F6000898B8AA58A8B8BA58B8B8CA58C8B8DA559
:101F70008D8B2FC36A147B048C049D0448F4498B19
:101F80005A8B6B8B7C8B8D8B9E8B2F8B388F27C3C3
:101F900000E0A01600E0B00601E0C00600E0D006B8
:101FA00088F41FEFA116B104C104D10439F030F058
:101FB00028E0E22EF12C012D112D18C0EE24FF2473
:101FC000870114C020E0A21620E0B20620E0C2067D
:101FD00021E0D20630F098E1E92EF12C012D112DEF
:101FE00005C080E1E82EF12C012D112DD601C5018F
:101FF0000E2C04C0B695A795979587950A94D2F7AD
:10200000885F9E4FDC012C9180E290E0A0E0B0E080
:102010008E199F09A00BB10B821B9109A109B1096F
:102020000097A105B10509F059C0A614B704C8046A
:10203000D90470F0E896ECACFDAC0EAD1FADE8979E
:10204000E214F3040405150518F4D801C7012FC0E4
:10205000E8968CAD9DADAEADBFADE8978219930902
:10206000A409B509A40193012A193B094C095D098A
:10207000AA24BB246501E8966CAC7DAC8EAC9FAC09
:10208000E897681679068A069B0628F411E0A12EC7
:10209000B12CC12CD12C79018A01EA18FB080C095A
:1020A0001D096196ECAEFDAE0EAF1FAF619789A71B
:1020B0009AA7ABA7BCA761960CAD1DAD2EAD3FADE9
:1020C00061970DA71EA72FA738AB898B8AA58A8B8E
:1020D0008BA58B8B8CA58C8B0D8B7BC2E3968FAFE6
:1020E000E397A6019501082E04C0220F331F441F59
:1020F000551F0A94D2F710E2181BE2961FAFE29721
:10210000D201C101012E04C0B695A7959795879578
:102110000A94D2F75C016D01A22AB32AC42AD52AF7
:102120002596ACAEBDAECEAEDFAE25977201610195
:10213000E3960FACE39704C0CC0CDD1CEE1CFF1C37
:102140000A94D2F72196CCAEDDAEEEAEFFAE21976B
:1021500064015301012E04C0D694C794B794A79488
:102160000A94D2F7A4019301E3960FACE39704C05D
:10217000220F331F441F551F0A94D2F7E8968CADE7
:102180009DADAEADBFADE89704C0B695A795979548
:1021900087951A95D2F77C018D01E22AF32A042B48
:1021A000152BE9AEFAAE0BAF1CAFE8960CAD1DAD2A
:1021B0002EAD3FADE897E3960FACE39704C0000F58
:1021C000111F221F331F0A94D2F70DAB1EAB2FAB8A
:1021D00038AF25962CAD3DAD4EAD5FAD25973A019C
:1021E0008824992440705070A5962CAF3DAF4EAF17
:1021F0005FAFA597C601B501A40193010E94582ABB
:102200007B018C01C601B501A40193010E94582AEB
:10221000C901DA011C012D01C201B101A5962CAD45
:102220003DAD4EAD5FADA5970E94392A9B01AC0133
:102230008701FF24EE24A9ACBAACCBACDCACC60160
:10224000AA27BB2757016801A82AB92ACA2ADB2A6C
:10225000A216B306C406D50610F508942108310865
:10226000410851082596ECACFDAC0EAD1FAD25978D
:10227000AE0CBF1CC01ED11EAE14BF04C006D106DA
:1022800070F0A216B306C406D50648F408942108D7
:10229000310841085108AE0CBF1CC01ED11EA21A45
:1022A000B30AC40AD50AC601B501A40193010E946C
:1022B000582A7B018C01C601B501A40193010E943B
:1022C000582AC901DA013C014D01C401B301A596A8
:1022D0002CAD3DAD4EAD5FADA5970E94392A9B0157
:1022E000AC018701FF24EE2489AD9AADABADBCAD46
:1022F000A070B07057016801A82AB92ACA2ADB2A3F
:10230000A216B306C406D50610F508946108710834
:102310008108910825966CAD7DAD8EAD9FAD25975A
:10232000A60EB71EC81ED91EA616B706C806D90621
:1023300070F0A216B306C406D50648F408946108E6
:10234000710881089108A60EB71EC81ED91ED601B5
:10235000C501821B930BA40BB50B89AB9AABABAB3E
:10236000BCABD1019927882784017301E82AF92A97
:102370000A2B1B2B8FEFA82E8FEFB82EC12CD12C40
:10238000AE20BF20C022D12278010027112721963C
:102390006CAC7DAC8EAC9FAC21972FEF3FEF40E053
:1023A00050E0622273228422952221966CAD7DAD8D
:1023B0008EAD9FAD2197AC0166277727AD964CAFC8
:1023C0005DAF6EAF7FAFAD97C601B501A4019301BC
:1023D0000E94392AA9966CAF7DAF8EAF9FAFA997A7
:1023E000C601B501AD962CAD3DAD4EAD5FADAD971F
:1023F0000E94392A1B012C01C801B701A4019301D5
:102400000E94392A5B016C01C801B701AD962CAD61
:102410003DAD4EAD5FADAD970E94392A7B018C0179
:10242000A6019501220D331D441D551DA9966CACC6
:102430007DAC8EAC9FACA997C401AA27BB27280FFF
:10244000391F4A1F5B1F2A153B054C055D0548F4E3
:10245000812C912CE1E0AE2EB12CE80CF91C0A1D68
:102460001B1DCA01AA27BB2757016801A80EB91E68
:10247000CA1EDB1EA90133272227A9968CAD9DAD6C
:10248000AEADBFADA997A070B070280F391F4A1F1D
:102490005B1FE9A8FAA80BA91CA9EA14FB040C0508
:1024A0001D0570F0AE14BF04C006D10689F56DA9F4
:1024B0007EA98FA998AD621773078407950740F529
:1024C000DA01C90121966CAC7DAC8EAC9FAC219732
:1024D00086199709A809B9092596ECACFDAC0EAD93
:1024E0001FAD2597AE18BF08C00AD10AEE24FF24FD
:1024F0008701281739074A075B0728F421E0E22EF5
:10250000F12C012D112DAE18BF08C00AD10A02C04E
:10251000DA01C9016DA87EA88FA898AC681A790A5B
:102520008A0A9B0A09A91AA92BA93CA90A191B09FD
:102530002C093D09580169012224332421012DA9C8
:102540003EA94FA958AD261537054805590528F469
:1025500081E0282E312C412C512C86017501E21886
:10256000F30804091509A8019701E2960FACE29758
:1025700004C0220F331F441F551F0A94D2F7D40101
:10258000C301E3960FACE39704C0B695A795979562
:1025900087950A94D2F7282B392B4A2B5B2B29A736
:1025A0003AA74BA75CA7E3960FACE39704C0169538
:1025B0000795F794E7940A94D2F7EDA6FEA60FA725
:1025C00018AB298B8AA58A8B8BA58B8B8CA58C8BC2
:1025D000ED8A8EA58E8B8FA58F8B88A9888FE1962B
:1025E0004CAD5DAD6EAD7FADE19741155105610517
:1025F000710509F467C089892A893B894C895D89FD
:10260000AE89BF89188DF82FF19591E01F1608F05B
:1026100090E0822F819521E0181608F020E0E82F45
:10262000E91B91E08E1708F090E0292B832F81950C
:1026300031E0181608F030E0782F721B91E0871710
:1026400008F090E0392B842F819521E0181608F0CE
:1026500020E0682F631B91E0861708F090E0292B9B
:10266000852F819531E0181608F030E0582F521B65
:1026700091E0851708F090E0392B8A2F819521E0B1
:10268000181608F020E0482F431B91E0841708F04B
:1026900090E0292B8B2F819591E0181608F090E09F
:1026A000382F321B21E0831708F020E0922B812F76
:1026B0008195891BF98BEA8B7B8B6C8B5D8B4E8BA9
:1026C0003F8B888F29893A894B895C896D897E89FE
:1026D0008F89988DC958DF4FE2E10C94962AA0E0CB
:1026E000B0E0E5E7F3E10C947A2ADC012B01FA0172
:1026F0009C91923008F439C1EB018881823008F452
:1027000033C1943069F4843009F02FC111969C9143
:1027100011978981981709F428C1A0E0B1E025C17B
:10272000843009F421C18230A9F4923009F01DC12E
:102730009A01AD0188E0EA010990AE01E901099230
:102740009E018150C1F7E201898111969C918923F4
:10275000818308C1923009F407C112962D903C90F4
:102760001397EB018A819B811496AD90BD90CD901B
:10277000DC901797EC80FD800E811F819101281B52
:10278000390BB90137FF04C066277727621B730B2B
:10279000603271050CF061C0121613066CF537013A
:1027A0004801062E04C096948794779467940A94FF
:1027B000D2F721E030E040E050E004C0220F331FA8
:1027C000441F551F6A95D2F7215030404040504079
:1027D0002E213F214023512321153105410551056B
:1027E00021F021E030E040E050E079018A01E62864
:1027F000F728082919293CC0232BD1F1260E371EB2
:1028000035014601062E04C0969487947794679408
:102810000A94D2F721E030E040E050E004C0220FFB
:10282000331F441F551F6A95D2F721503040404056
:1028300050402A213B214C215D21211531054105C4
:10284000510521F021E030E040E050E059016A01FB
:10285000A628B728C828D9280BC0821593052CF0C4
:102860001C01AA24BB24650103C0EE24FF248701B8
:1028700011969C91D20111968C91981709F445C03C
:10288000992339F0A80197012A193B094C095D09E0
:1028900006C0A60195012E193F09400B510B57FDAB
:1028A00008C0118233822282248335834683578372
:1028B0001DC081E081833382228288279927DC0131
:1028C000821B930BA40BB50B84839583A683B783DC
:1028D0000DC0220F331F441F551F248335834683A9
:1028E00057838281938101979383828324813581E9
:1028F00046815781DA01C9010197A109B1098F5FAA
:102900009F4FAF4FBF4328F30BC091833382228286
:10291000EA0CFB1C0C1D1D1DE482F5820683178347
:1029200083E08083248135814681578157FF1AC017
:10293000C901AA2797FDA095BA2F81709070A07049
:10294000B0705695479537952795822B932BA42BDE
:10295000B52B84839583A683B78382819381019667
:1029600093838283DF0101C0D201CD01CDB7DEB7F1
:10297000E2E10C94962AA0E2B0E0E1ECF4E10C94E0
:10298000862A69837A838B839C832D833E834F833E
:102990005887E9E0EE2EF12CEC0EFD1ECE010196DB
:1029A000B7010E94ED198E010F5E1F4FCE010596F3
:1029B000B8010E94ED198A8991E089278A8BC701A5
:1029C000B801AE01475E5F4F0E946F130E94181955
:1029D000A096E6E00C94A22AA0E2B0E0E2EFF4E1D7
:1029E0000C94862A69837A838B839C832D833E8310
:1029F0004F835887F9E0EF2EF12CEC0EFD1ECE012F
:102A00000196B7010E94ED198E010F5E1F4FCE0196
:102A10000596B8010E94ED19C701B801AE01475EE5
:102A20005F4F0E946F130E941819A096E6E00C9465
:102A3000A22AA0E2B0E0EFE1F5E10C947A2A6983E2
:102A40007A838B839C832D833E834F835887CE016B
:102A50000196BE01675F7F4F0E94ED19CE0105967A
:102A6000BE016F5E7F4F0E94ED199985923088F00C
:102A700089898230C8F0943019F4823051F404C04E
:102A8000843029F4923081F480E091E0C6C0923025
:102A900049F420E09A858A89981321E02A87CE019B
:102AA0000996BBC0823049F420E09A858A89981340
:102AB00021E02A8BCE014196B0C02D843E844F8404
:102AC00058886D887E888F88988CEE24FF24870133
:102AD000AA24BB24650140E050E060E070E0E0E043
:102AE000F0E0C10181709070892BE9F0E60CF71CD1
:102AF000081D191D9A01AB012A0D3B1D4C1D5D1DC2
:102B000080E090E0A0E0B0E0E614F70408051905C5
:102B100020F481E090E0A0E0B0E0BA01A901480F04
:102B2000591F6A1F7B1FAA0CBB1CCC1CDD1C97FE07
:102B300008C081E090E0A0E0B0E0A82AB92ACA2A43
:102B4000DB2A3196E032F10549F0660C771C881CCF
:102B5000991C5694479437942794C3CFFA85EA89F1
:102B60002B893C898B859C85280F391F2E5F3F4F11
:102B700017C0CA0181709070892B61F01695079576
:102B8000F794E79480E090E0A0E0B0E8E82AF92A22
:102B90000A2B1B2B76956795579547952F5F3F4FCF
:102BA00077FDE7CF0CC0440F551F661F771F17FD39
:102BB0004160EE0CFF1C001F111F215030404030BF
:102BC00090E0590790E0690790E4790760F32B8F54
:102BD0003C8FDB01CA018F779070A070B070803499
:102BE0009105A105B10561F447FD0AC0E114F104A6
:102BF0000105110529F0405C5F4F6F4F7F4F407812
:102C00001A8EFE1711F081E08A8F4D8F5E8F6F8FC5
:102C100078A383E0898FCE0149960E941819A09667
:102C2000E2E10C94962AA8E1B0E0E9E1F6E10C9427
:102C3000822A69837A838B839C832D833E834F838F
:102C40005887B9E0EB2EF12CEC0EFD1ECE0101965B
:102C5000B7010E94ED198E010F5E1F4FCE01059640
:102C6000B8010E94ED192985223008F47EC0398907
:102C7000323010F4B8017CC08A859A8989278A8706
:102C8000243011F0223031F4231709F06EC060E0D7
:102C900071E06EC0343039F41D861E861F86188A96
:102CA0001C861B8604C0323021F484E08987B7017A
:102CB0005FC02B853C858B899C89281B390B3C8701
:102CC0002B87ED84FE840F851889AD88BE88CF8858
:102CD000D88CEA14FB040C051D0540F4EE0CFF1C17
:102CE000001F111F215030403C872B8720E030E02F
:102CF00040E050E080E090E0A0E0B0E460E070E010
:102D0000EA14FB040C051D0540F0282B392B4A2B37
:102D10005B2BEA18FB080C091D09B695A79597953A
:102D20008795EE0CFF1C001F111F6F5F7F4F6F31E7
:102D3000710531F7DA01C9018F779070A070B0701A
:102D400080349105A105B10561F427FD0AC0E114A5
:102D5000F1040105110529F0205C3F4F4F4F5F4FF3
:102D600020782D873E874F87588BBE01675F7F4F46
:102D7000CB010E9418196896EAE00C949E2AA8E1FB
:102D8000B0E0E5ECF6E10C94862A69837A838B83C4
:102D90009C832D833E834F83588789E0E82EF12C56
:102DA000EC0EFD1ECE010196B7010E94ED198E01B9
:102DB0000F5E1F4FCE010596B8010E94ED1989855F
:102DC000823040F08989823028F0C701B8010E9422
:102DD000651A01C08FEF6896E6E00C94A22AA8E17C
:102DE000B0E0E5EFF6E10C94862A69837A838B8361
:102DF0009C832D833E834F83588789E0E82EF12CF6
:102E0000EC0EFD1ECE010196B7010E94ED198E0158
:102E10000F5E1F4FCE010596B8010E94ED198985FE
:102E2000823040F08989823028F0C701B8010E94C1
:102E3000651A01C081E06896E6E00C94A22AA8E039
:102E4000B0E0E5E2F7E10C94832A9B01AC0183E05A
:102E50008983DA01C9018827B7FD83959927AA27B5
:102E6000BB27B82E211531054105510519F482E023
:102E700089833AC08823A9F0203080E0380780E0B9
:102E8000480780E8580729F460E070E080E09FEC94
:102E900030C0EE24FF248701E21AF30A040B150B5D
:102EA00002C079018A018EE1C82ED12CDC82CB824E
:102EB000ED82FE820F831887C801B7010E94C918EE
:102EC00001971816190684F4082E04C0EE0CFF1C96
:102ED000001F111F0A94D2F7ED82FE820F8318871C
:102EE000C81AD90ADC82CB82BA82CE0101960E942E
:102EF00018192896E9E00C949F2AACE0B0E0E3E8CA
:102F0000F7E10C948A2A69837A838B839C83CE01B0
:102F10000196BE016B5F7F4F0E94ED198D8182305B
:102F200061F1823050F1843021F48E81882351F197
:102F30002EC02F81388537FD20C06E812F3131059D
:102F40001CF06623F9F023C08EE190E0821B930B06
:102F500029853A854B855C8504C0569547953795FC
:102F600027958A95D2F76623B1F050954095309514
:102F700021953F4F4F4F5F4F0EC020E030E040E0C3
:102F800050E009C02FEF3FEF4FEF5FE704C020E0B4
:102F900030E040E050E8B901CA012C96E2E00C9420
:102FA000A62AA8E0B0E0E7EDF7E10C94822A7B01C5
:102FB0008C01611571058105910519F482E0898301
:102FC00060C083E089838EE1C82ED12CDC82CB8265
:102FD000ED82FE820F831887C801B7010E94C918CD
:102FE000FC013197F7FF3BC0222733272E1B3F0BF5
:102FF00057016801022E04C0D694C794B794A794D1
:103000000A94D2F740E050E060E070E081E090E0A8
:10301000A0E0B0E004C0880F991FAA1FBB1F2A952B
:10302000D2F70197A109B1098E219F21A023B123D5
:103030000097A105B10521F041E050E060E070E0AB
:103040004A295B296C297D294D835E836F837887AC
:103050008EE190E08E1B9F0B9C838B8312C0309778
:1030600081F00E2E04C0EE0CFF1C001F111F0A94ED
:10307000D2F7ED82FE820F831887CE1ADF0ADC8238
:10308000CB821A82CE0101960E9418192896EAE096
:103090000C949E2AEF92FF920F93DF93CF93CDB7BC
:1030A000DEB760970FB6F894DEBF0FBECDBFA82F76
:1030B000002309F461C07E010894E11CF11C88E042
:1030C000F70111928A95E9F729833A834B835C8350
:1030D0006D837E83AF83988780E2801BE82FFF2774
:1030E000E7FDF0954D815E816F817885181684F03B
:1030F0001D861E861F86188A882799278E1B9F0B80
:1031000004C076956795579547958A95D2F728C05C
:10311000202F332727FD3095DB01CA01022E04C082
:10312000B695A795979587950A94D2F78D879E8730
:10313000AF87B88B04C0440F551F661F771FEA95F1
:10314000D2F789819A81AB81BC8104C0B695A795DD
:10315000979587952A95D2F7482B592B6A2B7B2B6D
:1031600049875A876B877C8729853A854B855C859B
:103170006D857E85AF8598898A2F60960FB6F89405
:10318000DEBF0FBECDBFCF91DF910F91FF90EF90CB
:103190000895EF92FF920F931F937B018C0180E0C3
:1031A000E81680E0F80681E0080780E0180788F458
:1031B0008FEFE816F1040105110531F028F088E0E1
:1031C00090E0A0E0B0E017C080E090E0A0E0B0E0C8
:1031D00012C080E0E81680E0F80680E0080781E091
:1031E000180728F088E190E0A0E0B0E004C080E19A
:1031F00090E0A0E0B0E020E230E040E050E0281BAA
:10320000390B4A0B5B0B04C016950795F794E794AE
:103210008A95D2F7F701E85FFE4F8081281B3109BC
:1032200041095109C9011F910F91FF90EF90089535
:10323000DF92EF92FF920F931F93FC01E480F580E1
:1032400006811781D1808081823048F480E090E04F
:10325000A0E1B0E0E82AF92A0A2B1B2BA5C0843094
:1032600009F49FC0823021F4EE24FF24870105C0B9
:10327000E114F1040105110519F4E0E0F0E096C055
:10328000628173819FEF623879070CF05BC022E89E
:103290003FEF261B370B2A3131052CF020E030E0C0
:1032A00040E050E02AC0B801A701022E04C0769584
:1032B0006795579547950A94D2F781E090E0A0E092
:1032C000B0E004C0880F991FAA1FBB1F2A95D2F730
:1032D0000197A109B1098E219F21A023B123009755
:1032E000A105B10521F081E090E0A0E0B0E09A01F5
:1032F000AB01282B392B4A2B5B2BDA01C9018F77C5
:103300009070A070B07080349105A105B10539F4BA
:1033100027FF09C0205C3F4F4F4F5F4F04C0215C27
:103320003F4F4F4F5F4FE0E0F0E02030A0E03A0722
:10333000A0E04A07A0E45A0710F0E1E0F0E07901CC
:103340008A0127C06038710564F5FB01E158FF4F21
:10335000D801C7018F779070A070B070803491054C
:10336000A105B10539F4E7FE0DC080E490E0A0E0CE
:10337000B0E004C08FE390E0A0E0B0E0E80EF91EFA
:103380000A1F1B1F17FF05C016950795F794E794B2
:10339000319687E016950795F794E7948A95D1F7CB
:1033A00005C0EE24FF248701EFEFF0E06E2F679554
:1033B00066276795902F9F77D794DD24D7948E2F1B
:1033C0008695492F462B582F5D29B701CA011F91B9
:1033D0000F91FF90EF90DF900895FC01DB01408199
:1033E00051812281622F6F7770E0221F2227221FD6
:1033F0009381892F880F822B282F30E0991F9927DE
:10340000991F11969C93119721153105A9F5411526
:1034100051056105710511F482E037C082E89FEF24
:1034200013969C938E9312979A01AB0167E0220F3B
:10343000331F441F551F6A95D1F783E08C930DC04D
:10344000220F331F441F551F12968D919C91139785
:10345000019713969C938E931297203080E0380743
:1034600080E0480780E4580758F314962D933D9365
:103470004D935C93179708952F3F310579F44115CB
:1034800051056105710519F484E08C93089564FF7A
:1034900003C081E08C9312C01C9210C02F573040A3
:1034A00013963C932E93129783E08C9387E0440FFE
:1034B000551F661F771F8A95D1F7706414964D9338
:1034C0005D936D937C93179708951F93DC01FB0127
:1034D0009C91923008F447C08081823008F443C048
:1034E000943051F411961C91843099F58181682FA4
:1034F00070E0611B71093FC0843021F0923031F4DB
:103500008230B9F18181882389F12DC011961C91F7
:1035100011978230F1F081811817D9F412962D910C
:103520003C911397828193818217930794F0281717
:103530003907BCF014968D919D910D90BC91A02DF2
:103540002481358146815781281739074A075B074F
:1035500018F4112341F00AC082179307A407B50796
:1035600040F4112319F061E070E005C06FEF7FEFC8
:1035700002C060E070E0CB011F910895E091080265
:10358000F091090282818068828380E090E0089552
:10359000E0910802F091090282818F77828380E0B6
:1035A00090E00895E0910802F09109028281877FFE
:1035B000828380E090E00895CF93DF93DC01EB01FC
:1035C0006115710519F424E030E030C08FEF888375
:1035D00050910103552341F180910A0290910B0211
:1035E0008A179B07D9F440E015C0842F90E0880F1C
:1035F000991F9C01220F331F220F331F220F331FED
:10360000281B390BFB01E20FF31F808191818A1780
:103610009B0739F4488320E030E008C040E06AE0CE
:1036200072E04F5F451708F320E030E0822F932FC0
:10363000DF91CF9108950F931F93DF93CF930F9254
:10364000CDB7DEB78B016115710519F424E030E0C8
:103650002EC01982BE016F5F7F4F0E94DC1A9C0151
:1036600049814423842F992787FD90958827990FB6
:10367000881F9927822B932B892B11F0206817C064
:1036800010932F0300932E03842F992787FD909585
:10369000880F991FFC01EE0FFF1FEE0FFF1FEE0FAB
:1036A000FF1FE81BF90BEA5EFD4F11830083822F99
:1036B000932F0F90CF91DF911F910F9108951F923B
:1036C0000F920FB60F920BB60F9211242F933F93C8
:1036D0004F935F936F937F938F939F93AF93BF931A
:1036E000EF93FF930E949828E0912E03F0912F030F
:1036F000309709F00995E0910802F0910902828162
:10370000806182830E949E28FF91EF91BF91AF91CB
:103710009F918F917F916F915F914F913F912F91E9
:103720000F900BBE0F900FBE0F901F901895E09159
:103730000802F09109028281886082830E949E289B
:1037400080E090E00895EF92FF920F931F93DF9334
:10375000CF9300D0CDB7DEB77C011982BE016F5F79
:103760007F4F0E94DC1A8C01009721F48981882305
:103770003CF404C0898188230CF0C4C10068C2C134
:103780000E94D21AE0910802F091090282818061C0
:1037900082831A82C701BE016E5F7F4F0E94DC1ACE
:1037A0008C01009709F060C08A8188230CF45CC00A
:1037B000992787FD9095FC01EE0FFF1FEE0FFF1F6D
:1037C000EE0FFF1FE81BF90BEE0FFF1FE45FFD4F2D
:1037D0000190F081E02DE830F10508F045C08091BE
:1037E000300390913103E817F907F1F1E0910802F5
:1037F000F09109028381807E838360910802709139
:103800000902FB0143812A81332727FD3095C90135
:10381000880F991F880F991F880F991F821B930B80
:103820000196AAE0B2E0880F991FFD01E80FF91F89
:103830008081482BFB0143832A81332727FD309564
:10384000C901880F991F880F991F880F991F821B24
:10385000930B0196880F991FA80FB91F8D919C910A
:1038600090933103809330038981992787FD909548
:10387000880F991FFC01EE0FFF1FEE0FFF1FEE0FC9
:10388000FF1FE81BF90BE25FFD4F20813181E091C2
:103890000802F091090242818281887F828323306D
:1038A000310561F12430310538F421303105B1F0B2
:1038B00022303105D8F40AC02530310579F12530A0
:1038C000310520F126303105C9F530C0E0910802FC
:1038D000F09109028281816082831FC1E091080218
:1038E000F091090282818260828317C1E09108020F
:1038F000F09109028281836082830FC1E091080206
:10390000F091090282818460828307C1E0910802FC
:10391000F0910902828185608283FFC0E0910802F4
:10392000F0910902828186608283F7C0E0910802EB
:10393000F0910902828187608283EFC0E0910802E2
:10394000F09109028281887F8283E0910802F091E0
:1039500009029281842F8770892B8283A0E8B0E0CE
:103960008981992787FD9095880F991FFC01EE0F9B
:10397000FF1FEE0FFF1FEE0FFF1FE81BF90BEE5EA0
:10398000FD4F0190F081E02D309729F0319769F0DB
:1039900060E870E013C0E0910802F09109028281B2
:1039A0008F7D828360E070E009C0E0910802F091B1
:1039B000090282818062828360E070E089819927B8
:1039C00087FD9095880F991FFC01EE0FFF1FEE0FEA
:1039D000FF1FEE0FFF1FE81BF90BEC5EFD4F019080
:1039E000F081E02D309779F0319719F040E850E000
:1039F00013C0E0910802F091090283818062838301
:103A000040E050E009C0E0910802F0910902838192
:103A10008F7D838340E050E08981992787FD9095D1
:103A2000880F991FFC01EE0FFF1FEE0FFF1FEE0F17
:103A3000FF1FE81BF90BE05FFD4F0190F081E02DC7
:103A4000E130F105C9F0E130F10528F0329729F1B4
:103A500020E830E032C0E0910802F0910902838151
:103A60008F778383E0910802F091090283818F7B35
:103A7000838320E030E021C0E0910802F091090248
:103A800083818F778383E0910802F091090283811B
:103A90008064838320E030E010C0E0910802F09160
:103AA0000902838180688383E0910802F091090212
:103AB00083818064838320E030E0CD01802B912BD3
:103AC000862B972B842B952B8C01022B132B898112
:103AD000992787FD9095880F991FFC01EE0FFF1F16
:103AE000EE0FFF1FEE0FFF1FE81BF90BEA5EFD4F05
:103AF000608171816115710529F0C7010E941B1B4E
:103B00000E94971B802F912F0F900F90CF91DF91E4
:103B10001F910F91FF90EF900895A0E0B0E020CFAB
:103B2000EF92FF920F931F93DF93CF930F92CDB736
:103B3000DEB78C017B011982BE016F5F7F4F0E944F
:103B4000DC1AAC018981992787FD9095FC01EE0F65
:103B5000FF1FEE0FFF1FEE0FFF1FE81BF90BEE0F0D
:103B6000FF1FE45FFD4F0190F081E02DE830F1058B
:103B700008F05FC08091300390913103E817F90796
:103B800039F0C8010E94A31BAC01009709F052C094
:103B9000E0910802F0910902828180648283E091C1
:103BA0000802F0910902828186958695869580FFAC
:103BB00002C048603FC0828184FFFDCF8281806166
:103BC0008283E0910802F0910902838182958695B3
:103BD000877080FF19C02081229526952695237035
:103BE00030E0F70131832083E0910802F09109026F
:103BF000818190E0880F991F880F991F822B932B4A
:103C0000F7019183808316C0208130E0F701318372
:103C10002083E0910802F0910902818190E0837095
:103C20009070982F8827822B932BF70191838083A4
:103C300001C04068842F952F0F90CF91DF911F9185
:103C40000F91FF90EF900895EF92FF920F931F93C3
:103C5000CF93DF93E0900103EE2019F400E010E031
:103C60000EC0CAE0D2E0FF24888199810E94A31B84
:103C70008C01009721F4F3942E96FE14A8F30E9471
:103C8000BE1A9C01202B312B822F932FDF91CF91D5
:103C90001F910F91FF90EF9008952F924F925F9296
:103CA0006F927F928F929F92AF92BF92CF92DF924C
:103CB000EF92FF920F931F93DF93CF93CDB7DEB7B1
:103CC00062970FB6F894DEBF0FBECDBF282E672BCC
:103CD00059F480917B0290917C0260E070E00E9438
:103CE0003D279A8389830AC080917B0290917C0250
:103CF00061E070E00E943D279A8389830F2EFDE7E3
:103D0000EF2EF2E0FF2EF02DF7018081918160E02F
:103D100070E00E943D278C0144245524689442F8A9
:103D20004E0C5F1C622D62956F7070E06170707058
:103D3000F201808191810E943D27988B8F870F2E01
:103D4000F6E08F2E9924F02D8E0C9F1C622D62952B
:103D50006695677070E061707070F4018081918188
:103D60000E943D279E878D87AA24BB246894A3F8D0
:103D7000AE0CBF1C622D629566956695637070E00F
:103D800061707070F501808191810E943D279C8750
:103D90008B870F2EFAE0CF2EDD24F02DCE0CDF1C0A
:103DA000622D661F6627661FF6018081918170E093
:103DB0000E943D279A87898722E030E0E20EF31EB9
:103DC000F7018081918161E070E00E943D27988732
:103DD0008F830F2EF0E96F2EF1E07F2EF02DC301BF
:103DE0000197F1F7F7018081918160E070E00E9416
:103DF0003D279E838D8380E49FE10197F1F7F701D2
:103E00008081918161E070E00E943D279C838B83DB
:103E1000622D70E061707070F201808191810E946A
:103E20003D279A8B898B622D669570E0617070706A
:103E3000F401808191810E943D272C01622D6695BD
:103E4000669570E061707070F501808191810E94CB
:103E50003D274C01622D66956695669570E0617010
:103E60007070F601808191810E943D275C01F7010D
:103E70008081918161E070E00E943D276C01C30167
:103E80000197F1F7F7018081918160E070E00E9475
:103E90003D2729813A81022B132BEF85F8890E2BC0
:103EA0001F2B2D853E85022B132BEB85FC850E2BBE
:103EB0001F2B29853A85022B132BEF81F8850E2BBA
:103EC0001F2B2D813E81022B132BEB81FC810E2BAE
:103ED0001F2B29893A89022B132B0429152908291C
:103EE00019290A291B290C291D29E0E4FFE1319732
:103EF000F1F7082B192B802F912F62960FB6F894AB
:103F0000DEBF0FBECDBFCF91DF911F910F91FF900C
:103F1000EF90DF90CF90BF90AF909F908F907F9069
:103F20006F905F904F902F90089580917A028C7FD0
:103F300080937A0260E070E00E944D1E08958091A7
:103F40007A02836080937A0260E070E00E944D1EE6
:103F5000089580917A028D7F80937A0260E070E00C
:103F60000E944D1E089580917A02826080937A02A9
:103F700060E070E00E944D1E089580917A028B7F70
:103F800080937A0260E070E00E944D1E0895809157
:103F90007A02846080937A0260E070E00E944D1E95
:103FA000089588E160E070E00E944D1E08958CE164
:103FB00060E070E00E944D1E0895605800249695C0
:103FC00087950794969587950794982F802D860F4F
:103FD00060E070E00E944D1E089582E060E070E0B5
:103FE0000E944D1E089581E060E070E00E944D1E29
:103FF0000895FF920F931F93F82ECB01642F0E9418
:10400000DD1F8C018F2D61E070E00E944D1E9C0130
:10401000202B312B822F932F1F910F91FF9008950A
:1040200061E070E00E944D1E0895AF92BF92DF9252
:10403000EF92FF920F93DF93CF9300D0CDB7DEB70F
:10404000660F660F660FDD246894D6F8D62A7C01C9
:10405000AA24BB2400E08D2D802B60E070E00E943C
:104060004D1E9A838983F70181917F0161E070E0A1
:104070000E944D1E29813A81822B932BA82AB92AAE
:104080000F5F083041F78A2D9B2D0F900F90CF9135
:10409000DF910F91FF90EF90DF90BF90AF90089568
:1040A000FF920F931F93F82ECB01642F0E94DD1F08
:1040B0008C018F2D61E070E00E944D1E9C01202B31
:1040C000312B822F932F1F910F91FF90089561E064
:1040D00070E00E944D1E08952F923F924F925F9282
:1040E0006F927F928F929F92AF92BF92CF92DF9208
:1040F000EF92FF920F931F93DF93CF93CDB7DEB76D
:104100002F970FB6F894DEBF0FBECDBF822E732E51
:10411000642E552E462E372E282E992E992314F0D4
:10412000E82F6BC08DE20E94672040E050E070E015
:10413000F0E0A0E0B0E0282D219581E0121608F013
:1041400080E0342F371991E0431708F090E0432FB7
:10415000481B81E0341708F080E0982B342F452F5E
:10416000461961E0541708F060E0842F891B982FEE
:1041700081E0491708F080E0682B492F572F551927
:1041800091E0751708F090E0E52FE61B6E2F81E0B7
:104190005E1708F080E0982B562F6F2F6419E1E02E
:1041A000F61708F0E0E0F62FF91B9F2F81E06F175C
:1041B00008F080E0E82B692F7A2F7319F1E0A71738
:1041C00008F0F0E0972F9E1B81E0791708F080E05F
:1041D000F82B792F8B2F821991E0B81708F090E017
:1041E000A82FAF1BFA2FE1E08A1708F0E0E09E2B22
:1041F00080E08919EF2F891B982F1A828E2F0F2E9E
:10420000FAE0AF2EF02DBB24CC24DD24EE24FF24D5
:1042100000E010E00E940A03E82FBA81BF5FBA8372
:10422000822F832B842B852B862B872B8E2B892B00
:1042300029F7BB2309F455C18D827E826F8258868F
:1042400049863A862B869C8699200CF074C040E003
:1042500050E070E000E0A0E0B0E02D81219581E029
:10426000121608F080E0342FEE813E1B91E04317D8
:1042700008F090E0432F481B81E0341708F080E0FD
:10428000982B342F452FFF814F1B61E0541708F006
:1042900060E0842F891B982F81E0491708F080E0A7
:1042A000682B492F572F9885591B91E0751708F0F7
:1042B00090E0E52FE61B6E2F81E05E1708F080E0AE
:1042C000982B562F602FF9856F1B11E0061708F009
:1042D00010E0862F891B982F81E0691708F080E095
:1042E000182B692F7A2F9A85791B91E0A71708F070
:1042F00090E0E72FE11B81E07E1708F080E0982B2B
:104300007E2F8B2FAB858A1BE1E0B81708F0E0E029
:10431000F82FF91B91E08F1708F090E0E92B80E06F
:10432000BC858B1B2D833E834F83588769877A8793
:10433000FB878E1B8C871C821B821D86BCC022249F
:1043400023943324442455246624772488249924F0
:104350001982222D332D442D552D662D772D882D34
:10436000992D01E00E946700122FF32EE42ED52E26
:10437000C62EB72EA82E992E02E00E946700012FAC
:10438000020FB1E0011708F0BD853F0D21E03F1598
:1043900008F02D85FB2FF30FE1E0F31708F0ED8512
:1043A0002E2B3F2F4E0DE1E04E1508F0ED85F22F3C
:1043B000F40F21E0F41708F02D85E22B4F2F5D0D4F
:1043C00021E05D1508F02D85FE2FF50FE1E0F517D2
:1043D00008F0ED852E2B5F2F6C0DE1E06C1508F0D9
:1043E000ED85F22FF60F21E0F61708F02D85E22B70
:1043F0006F2F7B0D21E07B1508F02D85FE2FF70F29
:10440000E1E0F71708F0ED852E2B7F2F8A0DE1E014
:104410008A1508F0ED85F22FF80F21E0F81708F063
:104420002D85E22B892D890F202E332E442E552EDB
:10443000662E772E8F2E9E2E980EE981EF5FE983F0
:104440008E2F90E02E853F85821793070CF481CF45
:104450002D813E814F81588569857A858B859C8524
:10446000A22CB32CC42CD52CE62CF72C082D192DFE
:104470000E940A03822F805D0E946720AB81BC816D
:10448000A82BB92BBC83AB83BA81B150BA83BB23B1
:1044900051F12D813E814F81588569857A858B85C3
:1044A0009C850E94320B2D833E834F8358876987FA
:1044B0007A878B879C87EA818E2F90E09C01215020
:1044C00030403F872E87121613060CF438CF222473
:1044D000239433244424552466247724882499245F
:1044E000B7CF1C821B828B819C812F960FB6F894CC
:1044F000DEBF0FBECDBFCF91DF911F910F91FF9017
:10450000EF90DF90CF90BF90AF909F908F907F9073
:104510006F905F904F903F902F9008957F928F9271
:104520009F92AF92BF92CF92DF92EF92FF920F9342
:104530001F93F22ED32EC42EB52EA62E972E882E84
:10454000792EC8016E2D0E94DD1F8C012F2D3D2D6F
:104550004C2D5B2D6A2D792D882D972D0E946C2076
:104560009C01202B312B822F932F1F910F91FF90B5
:10457000EF90DF90CF90BF90AF909F908F907F9003
:1045800008954F925F926F927F928F929F92AF9217
:10459000BF92CF92DF92EF92FF920F931F93CF9330
:1045A000DF937B018C01442E20E030E040E050E0BE
:1045B0000E94EF1688232CF037014801C0E0D0E0BC
:1045C0000AC08DE20E946720EC013701480197FA8A
:1045D000909497F89094C401B3010E94E6005B01A7
:1045E0006C01EE24FF248701262F3B2D4C2D5D2DE1
:1045F0006E2D7F2D802F912F0E942E029B01AC01EA
:10460000C401B3010E94BB143B014C01442071F072
:104610005524C401B30120E030E040E251E40E949F
:1046200019153B014C015394541498F32A2D3B2D3A
:104630004C2D5D2D6E2D7F2D802F912F0E946C2093
:104640007C018EE20E9467208C01C401B3010E94AC
:1046500012010E946C200E291F29082B192B0C2BEC
:104660001D2B802F912FDF91CF911F910F91FF90E4
:10467000EF90DF90CF90BF90AF909F908F907F9002
:104680006F905F904F900895BF92CF92DF92EF921C
:10469000FF920F931F936B017C01B42EC901602F11
:1046A0000E94DD1F8C01C701B6014B2D0E94C12263
:1046B0009C01202B312B822F932F1F910F91FF9064
:1046C000EF90DF90CF90BF900895EF92FF921F93ED
:1046D000CF93DF937C01FC018081882319F4C0E033
:1046E000D0E00EC0C0E0D0E010E00E946720C82BF0
:1046F000D92B1F5FF701E10FF11D80818823A9F7F6
:104700008C2F9D2FDF91CF911F91FF90EF900895F7
:10471000EF92FF920F931F937C01CB01642F0E94B5
:10472000DD1F8C01C7010E9465239C01202B312BCA
:10473000822F932F1F910F91FF90EF9008954F922A
:104740005F926F927F928F929F92AF92BF92CF9221
:10475000DF92EF92FF920F931F932CE231E040E93A
:1047600051E0CA010197F1F721503040D1F788E3B9
:1047700060E070E00E944D1E2C0180E190E4019702
:10478000F1F788E360E070E00E944D1E8C0180E943
:1047900091E00197F1F788E360E070E00E944D1E20
:1047A0003C0185E08A95F1F781E060E070E00E94CD
:1047B0004D1E4C0182E060E070E00E944D1E5C01E5
:1047C00080917A0260E070E00E944D1E6C0186E0EC
:1047D00060E070E00E944D1E7C0188E260E070E0C5
:1047E0000E944D1E0429152906291729082919296F
:1047F0000A291B290C291D290E291F29082B192BD1
:10480000802F912F1F910F91FF90EF90DF90CF900D
:10481000BF90AF909F908F907F906F905F904F90E0
:104820000895EF92FF920F931F93CF93DF938C0124
:104830007B016115710519F4C4E0D0E053C08FEF1E
:10484000FB01808380912C03882319F4C0E0D0E021
:1048500049C0C0E0D0E060E0A9E8B2E070912C036C
:10486000462F50E0CA01880F991F9A01220F331F6B
:10487000220F331F220F331F820F931FFD01E80FFA
:10488000F91F808191818017910741F5CA01880F36
:10489000991F880F991F840F951F0196880F991FE4
:1048A000FD01E80FF91F808191810897B0F4CA01DA
:1048B000880F991F9A01220F331F220F331F220FD7
:1048C000331F820F931FFD01E80FF91F848195812B
:1048D000079718F4F701608301C0C0686F5F67171E
:1048E00008F4BECF8C2F9D2FDF91CF911F910F9198
:1048F000FF90EF9008950F931F93DF93CF930F9244
:10490000CDB7DEB7182F062F8FEF8983812FBE0119
:104910006F5F7F4F0E941124DC010097A1F5898110
:1049200088238CF1992787FD9095FC01EE0FFF1FDE
:10493000880F991F880F991F880F991FE80FF91F7B
:10494000E357FD4F0190F081E02DEE0FFF1FEE5F6A
:10495000FC4F0190F081E02D4081202F30E02F703E
:104960003070012E02C0220F331F0A94E2F78FE04D
:1049700090E002C0880F991F1A95E2F78095842372
:10498000822B808301C0A0688A2F9B2F0F90CF912C
:10499000DF911F910F9108950F931F93DF93CF9392
:1049A0000F92CDB7DEB78B012FEF2983BE016F5F6A
:1049B0007F4F0E9411249C01009739F5898188233B
:1049C00024F10230110508F5992787FD9095FC0127
:1049D000EE0FFF1F880F991F880F991F880F991FCF
:1049E000E80FF91FE357FD4F0190F081E02DEE0F26
:1049F000FF1FE05FFC4F0190F081E02D012B11F4CF
:104A000080E001C08FEF808301C02068822F932F48
:104A10000F90CF91DF911F910F9108950F931F93E6
:104A2000DF93CF930F92CDB7DEB78B012FEF2983A2
:104A3000BE016F5F7F4F0E9411249C01009739F5E2
:104A40008981882324F10230110508F5992787FD13
:104A50009095FC01EE0FFF1F880F991F880F991F7B
:104A6000880F991FE80FF91FE357FD4F0190F08160
:104A7000E02DEE0FFF1FEE5FFC4F0190F081E02D67
:104A8000012B11F480E001C08FEF808301C020680A
:104A9000822F932F0F90CF91DF911F910F91089547
:104AA0000F931F93DF93CF930F92CDB7DEB79C0187
:104AB0008B016115710519F424E030E02DC08FEFF2
:104AC0008983C901BE016F5F7F4F0E9411249C0141
:104AD000009709F589818823F4F0992787FD90953F
:104AE000FC01EE0FFF1F880F991F880F991F880F79
:104AF000991FE80FF91FE357FD4F0190F081E02D5A
:104B0000EE0FFF1FE25EFC4F0190F081E02D8081EF
:104B1000F801808301C02068822F932F0F90CF91DE
:104B2000DF911F910F910895DF93CF930F92CDB72F
:104B3000DEB72FEF2983BE016F5F7F4F0E941124E4
:104B40009C01009709F589818823F4F0992787FD56
:104B50009095FC01EE0FFF1F880F991F880F991F7A
:104B6000880F991FE80FF91FE357FD4F0190F0815F
:104B7000E02DEE0FFF1FEE5FFC4F0190F081E02D66
:104B800080818095808301C02068822F932F0F90B1
:104B9000CF91DF9108951F93DF93CF930F92CDB7FD
:104BA000DEB7162F2FEF2983BE016F5F7F4F0E9464
:104BB00011249C010097F9F489818823E4F0992756
:104BC00087FD9095FC01EE0FFF1F880F991F880F3E
:104BD000991F880F991FE80FF91FE357FD4F0190A8
:104BE000F081E02DEE0FFF1FEE5FFC4F0190F08192
:104BF000E02D108301C02068822F932F0F90CF915A
:104C0000DF911F9108950F931F93DF93CF930F921E
:104C1000CDB7DEB78B012FEF2983BE016F5F7F4FCA
:104C20000E941124BC01009709F079C049814423F6
:104C30000CF475C00230110508F071C0012BB9F1F8
:104C4000552747FD5095A9E8B2E0CA01880F991F82
:104C50009A01220F331F220F331F220F331F820F9F
:104C6000931FFD01E80FF91F0480F581E02DEE0F81
:104C7000FF1FEE5FFC4F0190F081E02D2081CA0103
:104C8000880F991F880F991F840F951F0196880F11
:104C9000991FA80FB91F81E090E00C9002C0880F07
:104CA000991F0A94E2F7282B2083E08139C0552709
:104CB00047FD5095A9E8B2E0CA01880F991F9A01F3
:104CC000220F331F220F331F220F331F820F931F18
:104CD000FD01E80FF91F0480F581E02DEE0FFF1FA5
:104CE000EE5FFC4F0190F081E02D2081CA01880F1A
:104CF000991F880F991F840F951F0196880F991F80
:104D0000A80FB91F81E090E00C9002C0880F991F96
:104D10000A94E2F7809582238083E08101C0606875
:104D2000862F972F0F90CF91DF911F910F910895AC
:104D30000F931F93DF93CF930F92CDB7DEB78B0105
:104D40002FEF2983BE016F5F7F4F0E941124BC01AA
:104D50000097D9F549814423C4F1552747FD509563
:104D6000A9E8B2E0CA01880F991F9A01220F331FE8
:104D7000220F331F220F331F820F931FFD01E80FF5
:104D8000F91F0480F581E02DEE0FFF1FE25EFC4F5E
:104D90000190F081E02D208130E0CA01880F991F39
:104DA000880F991F840F951F0196880F991FA80FD0
:104DB000B91F0C9002C0359527950A94E2F721702F
:104DC0003070F8013183208301C06068862F972FEF
:104DD0000F90CF91DF911F910F910895DF93CF93A3
:104DE0000F92CDB7DEB72FEF2983BE016F5F7F4FE4
:104DF0000E941124BC010097C9F549814423B4F1F4
:104E0000552747FD5095A9E8B2E0CA01880F991FC0
:104E10009A01220F331F220F331F220F331F820FDD
:104E2000931FFD01E80FF91F0480F581E02DEE0FBF
:104E3000FF1FEE5FFC4F0190F081E02D2081CA0141
:104E4000880F991F880F991F840F951F0196880F4F
:104E5000991FA80FB91F81E090E00C9002C0880F45
:104E6000991F0A94E2F72827208301C06068862FE3
:104E7000972F0F90CF91DF9108950F931F93DF939A
:104E8000CF930F92CDB7DEB78B012FEF2983BE01F1
:104E90006F5F7F4F0E941124BC01009709F075C01D
:104EA000498144230CF471C0012BB9F1552747FD0A
:104EB0005095A9E8B2E0CA01880F991F9A01220F04
:104EC000331F220F331F220F331F820F931FFD0149
:104ED000E80FF91F0480F581E02DEE0FFF1FEE5F54
:104EE000FC4F0190F081E02D2081CA01880F991FAD
:104EF000880F991F840F951F0196880F991FA80F7F
:104F0000B91F81E090E00C9002C0880F991F0A94AD
:104F1000E2F7282B2083E08139C0552747FD5095C3
:104F2000A9E8B2E0CA01880F991F9A01220F331F26
:104F3000220F331F220F331F820F931FFD01E80F33
:104F4000F91F0480F581E02DEE0FFF1FEE5FFC4F8F
:104F50000190F081E02D2081CA01880F991F880FF0
:104F6000991F840F951F0196880F991FA80FB91FCD
:104F700081E090E00C9002C0880F991F0A94E2F73C
:104F8000809582238083E08101C06068862F972FFF
:104F90000F90CF91DF911F910F9108950F931F9361
:104FA000DF93CF930F92CDB7DEB78B012FEF29831D
:104FB000BE016F5F7F4F0E941124BC01009709F072
:104FC00075C0498144230CF471C0012BB9F15527F8
:104FD00047FD5095A9E8B2E0CA01880F991F9A01D0
:104FE000220F331F220F331F220F331F820F931FF5
:104FF000FD01E80FF91F0480F581E02DEE0FFF1F82
:10500000E05FFC4F0190F081E02D2081CA01880F04
:10501000991F880F991F840F951F0196880F991F5C
:10502000A80FB91F81E090E00C9002C0880F991F73
:105030000A94E2F7282B2083E08139C0552747FDE9
:105040005095A9E8B2E0CA01880F991F9A01220F72
:10505000331F220F331F220F331F820F931FFD01B7
:10506000E80FF91F0480F581E02DEE0FFF1FE05FD0
:10507000FC4F0190F081E02D2081CA01880F991F1B
:10508000880F991F840F951F0196880F991FA80FED
:10509000B91F81E090E00C9002C0880F991F0A941C
:1050A000E2F7809582238083E08101C06068862FCB
:1050B000972F0F90CF91DF911F910F910895CF926D
:1050C000DF92EF92FF920F931F937C016A010E947F
:1050D000CE278C01C701B6010E9403269C01202B1C
:1050E000312B822F932F1F910F91FF90EF90DF9024
:1050F000CF9008950F931F93CF93DF9300912C03CC
:10510000002379F0C9E8D2E010E06E817F81488504
:105110005985888199810E945F281F5F2A96101700
:10512000A0F380E090E0DF91CF911F910F9108955F
:10513000EFE5F0E080818F7780830895EFE5F0E080
:1051400080818068808308954F925F926F927F92F2
:105150008F929F92AF92BF92CF92DF92EF92FF9287
:105160000F931F93DF93CF9300D0CDB7DEB71A8292
:1051700019820E947A280E94241E0E949F233E01C9
:105180000894611C711C0F2EF0ED4F2EF7E05F2E7E
:10519000F02D0F2EF0E98F2EF1E09F2EF02D0E94C2
:1051A000F31F80E090E0B3010E94901D80E090E04A
:1051B00060E00E94DD1F69817A8180E090E024E652
:1051C00030E040E050E00E94392A5B016C01092E7A
:1051D0009AE0D694C794B794A7949A95D1F7902D56
:1051E000EE24FF2487012A2D3B2D4C2D5D2D6E2DA5
:1051F0007F2D802F912F0E946C2081E090E0B301E1
:105200000E94901D80E090E064E00E94DD1F6981B3
:105210007A8180E090E024E630E040E050E00E94B7
:10522000392A5B016C01092E9AE0D694C794B79491
:10523000A7949A95D1F7902DEE24FF2487012A2D6B
:105240003B2D4C2D5D2D6E2D7F2D802F912F0E949B
:105250006C2082E090E0B3010E94901D80E090E01D
:1052600068E00E94DD1F69817A8180E090E024E699
:1052700030E040E050E00E94392A5B016C01092EC9
:105280009AE0D694C794B794A7949A95D1F7902DA5
:10529000EE24FF2487012A2D3B2D4C2D5D2D6E2DF4
:1052A0007F2D802F912F0E946C2083E090E0B3012E
:1052B0000E94901D80E090E06CE00E94DD1F6981FB
:1052C0007A8180E090E024E630E040E050E00E9407
:1052D000392A5B016C01092E9AE0D694C794B794E1
:1052E000A7949A95D1F7902DEE24FF2487012A2DBB
:1052F0003B2D4C2D5D2D6E2D7F2D802F912F0E94EB
:105300006C2084E090E0B3010E94901D81E090E069
:1053100060E00E94DD1F69817A8180E090E024E6F0
:1053200030E040E050E00E94392A5B016C01092E18
:105330009AE0D694C794B794A7949A95D1F7902DF4
:10534000EE24FF2487012A2D3B2D4C2D5D2D6E2D43
:105350007F2D802F912F0E946C2085E090E0B3017B
:105360000E94901D81E090E064E00E94DD1F698151
:105370007A8180E090E024E630E040E050E00E9456
:10538000392A5B016C01092E9AE0D694C794B79430
:10539000A7949A95D1F7902DEE24FF2487012A2D0A
:1053A0003B2D4C2D5D2D6E2D7F2D802F912F0E943A
:1053B0006C2086E090E0B3010E94901D81E090E0B7
:1053C00068E00E94DD1F69817A8180E090E024E638
:1053D00030E040E050E00E94392A5B016C01092E68
:1053E0009AE0D694C794B794A7949A95D1F7902D44
:1053F000EE24FF2487012A2D3B2D4C2D5D2D6E2D93
:105400007F2D802F912F0E946C2087E090E0B301C8
:105410000E94901D81E090E06CE00E94DD1F698198
:105420007A8180E090E024E630E040E050E00E94A5
:10543000392A5B016C01092E9AE0D694C794B7947F
:10544000A7949A95D1F7902DEE24FF2487012A2D59
:105450003B2D4C2D5D2D6E2D7F2D802F912F0E9489
:105460006C209201C4010197F1F721503040D1F72F
:1054700096CE629FD001739FF001829FE00DF11DD7
:10548000649FE00DF11D929FF00D839FF00D749FBE
:10549000F00D659FF00D9927729FB00DE11DF91F6A
:1054A000639FB00DE11DF91FBD01CF0111240895C7
:1054B000A1E21A2EAA1BBB1BFD010DC0AA1FBB1F18
:1054C000EE1FFF1FA217B307E407F50720F0A21B8A
:1054D000B30BE40BF50B661F771F881F991F1A94F7
:1054E00069F760957095809590959B01AC01BD0121
:1054F000CF0108952F923F924F925F926F927F92C9
:105500008F929F92AF92BF92CF92DF92EF92FF92D3
:105510000F931F93CF93DF93CDB7DEB7CA1BDB0B7F
:105520000FB6F894DEBF0FBECDBF09942A88398824
:1055300048885F846E847D848C849B84AA84B9842B
:10554000C884DF80EE80FD800C811B81AA81B98137
:10555000CE0FD11D0FB6F894DEBF0FBECDBFED014B
:065560000895F894FFCF4E
:105566000000000000000000000102020303030324
:1055760004040404040404040505050505050505DD
:1055860005050505050505050606060606060606BD
:1055960006060606060606060606060606060606A5
:1055A600060606060606060607070707070707078D
:1055B6000707070707070707070707070707070775
:1055C6000707070707070707070707070707070765
:1055D6000707070707070707070707070707070755
:1055E600070707070707070708080808080808083D
:1055F6000808080808080808080808080808080825
:105606000808080808080808080808080808080814
:105616000808080808080808080808080808080804
:1056260008080808080808080808080808080808F4
:1056360008080808080808080808080808080808E4
:1056460008080808080808080808080808080808D4
:1056560008080808080808080808080808080808C4
:1056660008080808080808082400000000000600CA
:105676000100000001000000010001000600010019
:105686000000000000000200020006000100000009
:1056960001000000030003000600010000000000F6
:1056A60000000400040006000100000001000000E4
:1056B60005000500060001000000000000000600CD
:1056C60006000600010000000100000007000700B8
:1056D600060001000000000000000C08000A000996
:1056E6000004000500060007000800010001000193
:1056F600000000090002000100010000000A00038A
:105706000001000100000000000000000001000090
:10571600000100010000000100000002000200007C
:105726000001000000030003000000010000000467
:105736000004000000010000000500050000000153
:105746000000000600060000000100000007000738
:10575600000000010000000B000000020001000034
:1057660000083B0038003500320023006200650067
:105776003A0037003400310022006100640039002D
:0E5786003600330030002100200063000C00CC
:00000001FF
