:100000000C9446000C945D000C945D000C945D0013
:100010000C945D000C945D000C945D000C945D00EC
:100020000C945D000C945D000C945D000C945D00DC
:100030000C945D000C945D000C945D000C945D00CC
:100040000C945D000C945D000C945D000C945D00BC
:100050000C945D000C945D000C945D000C945D00AC
:100060000C945D000C945D000C945D000C945D009C
:100070000C945D000C945D000C945D000C945D008C
:100080000C945D000C945D000C945D0011241FBE67
:10009000CFEFD0E1DEBFCDBF12E0A0E0B1E0EAE0FB
:1000A000FFE100E00BBF02C007900D92A83DB10731
:1000B000D9F70E94BE0E0C94830F0C940000EF92AF
:1000C000FF920F931F937B018C0120E030E040E012
:1000D0005FE40E945F0388238CF0C801B70120E031
:1000E00030E040E05FE40E94D7010E941D049B01C4
:1000F000AC01205030404040504806C0C801B70114
:100100000E941D049B01AC01B901CA011F910F910E
:10011000FF90EF900895A0E0B0E0E1E9F0E00C94EA
:100120004C0FDC012B01FA019C91923008F439C18B
:10013000EB018881823008F433C1943069F4843053
:1001400009F02FC111969C9111978981981709F494
:1001500028C1ADE0B1E025C1843009F421C182306D
:10016000A9F4923009F01DC19A01AD0188E0EA01BD
:100170000990AE01E90109929E018150C1F7E201A7
:10018000898111969C918923818308C1923009F459
:1001900007C112962D903C901397EB018A819B81A9
:1001A0001496AD90BD90CD90DC901797EC80FD80BB
:1001B0000E811F819101281B390BB90137FF04C043
:1001C00066277727621B730B603271050CF061C0E4
:1001D000121613066CF537014801062E04C09694DA
:1001E0008794779467940A94D2F721E030E040E056
:1001F00050E004C0220F331F441F551F6A95D2F7E9
:1002000021503040404050402E213F214023512377
:10021000211531054105510521F021E030E040E094
:1002200050E079018A01E628F728082919293CC0FD
:10023000232BD1F1260E371E35014601062E04C0B0
:1002400096948794779467940A94D2F721E030E0EB
:1002500040E050E004C0220F331F441F551F6A9531
:10026000D2F721503040404050402A213B214C21C0
:100270005D21211531054105510521F021E030E0D6
:1002800040E050E059016A01A628B728C828D928BB
:100290000BC0821593052CF01C01AA24BB24650118
:1002A00003C0EE24FF24870111969C91D201119680
:1002B0008C91981709F445C0992339F0A80197014A
:1002C0002A193B094C095D0906C0A60195012E19A2
:1002D0003F09400B510B57FD08C011823382228227
:1002E00024833583468357831DC081E08183338215
:1002F000228288279927DC01821B930BA40BB50B64
:1003000084839583A683B7830DC0220F331F441FB8
:10031000551F2483358346835783828193810197B8
:10032000938382832481358146815781DA01C90113
:100330000197A109B1098F5F9F4FAF4FBF4328F3CA
:100340000BC0918333822282EA0CFB1C0C1D1D1D05
:10035000E482F5820683178383E0808324813581DC
:100360004681578157FF1AC0C901AA2797FDA0955A
:10037000BA2F81709070A070B070569547953795E0
:100380002795822B932BA42BB52B84839583A6834F
:10039000B78382819381019693838283DF0101C0B9
:1003A000D201CD01CDB7DEB7E2E10C94680FA0E237
:1003B000B0E0EDEDF1E00C94580F69837A838B8304
:1003C0009C832D833E834F835887E9E0EE2EF12CEA
:1003D000EC0EFD1ECE010196B7010E940E068E01A5
:1003E0000F5E1F4FCE010596B8010E940E068A8946
:1003F00091E089278A8BC701B801AE01475E5F4F44
:100400000E948B000E943905A096E6E00C94740FC0
:10041000A0E2B0E0EEE0F2E00C94580F69837A833A
:100420008B839C832D833E834F835887F9E0EF2E87
:10043000F12CEC0EFD1ECE010196B7010E940E06B6
:100440008E010F5E1F4FCE010596B8010E940E0669
:10045000C701B801AE01475E5F4F0E948B000E944A
:100460003905A096E6E00C94740FA0E2B0E0EBE34F
:10047000F2E00C944C0F69837A838B839C832D83E9
:100480003E834F835887CE010196BE01675F7F4F41
:100490000E940E06CE010596BE016F5E7F4F0E9440
:1004A0000E069985923088F089898230C8F09430A0
:1004B00019F4823051F404C0843029F4923081F46C
:1004C0008DE091E0C6C0923049F420E09A858A8997
:1004D000981321E02A87CE010996BBC0823049F4E7
:1004E00020E09A858A89981321E02A8BCE014196D3
:1004F000B0C02D843E844F8458886D887E888F8854
:10050000988CEE24FF248701AA24BB24650140E0D7
:1005100050E060E070E0E0E0F0E0C10181709070D8
:10052000892BE9F0E60CF71C081D191D9A01AB0197
:100530002A0D3B1D4C1D5D1D80E090E0A0E0B0E069
:10054000E614F7040805190520F481E090E0A0E026
:10055000B0E0BA01A901480F591F6A1F7B1FAA0CFE
:10056000BB1CCC1CDD1C97FE08C081E090E0A0E025
:10057000B0E0A82AB92ACA2ADB2A3196E032F1056E
:1005800049F0660C771C881C991C56944794379444
:100590002794C3CFFA85EA892B893C898B859C8572
:1005A000280F391F2E5F3F4F17C0CA01817090700E
:1005B000892B61F016950795F794E79480E090E019
:1005C000A0E0B0E8E82AF92A0A2B1B2B769567955C
:1005D000579547952F5F3F4F77FDE7CF0CC0440FEE
:1005E000551F661F771F17FD4160EE0CFF1C001F93
:1005F000111F21503040403090E0590790E06907CA
:1006000090E4790760F32B8F3C8FDB01CA018F7771
:100610009070A070B07080349105A105B10561F4AF
:1006200047FD0AC0E114F1040105110529F0405C01
:100630005F4F6F4F7F4F40781A8EFE1711F081E0A9
:100640008A8F4D8F5E8F6F8F78A383E0898FCE0165
:1006500049960E943905A096E2E10C94680FA8E142
:10066000B0E0E5E3F3E00C94580F69837A838B8361
:100670009C832D833E834F83588789E0E82EF12C9D
:10068000EC0EFD1ECE010196B7010E940E068E01F2
:100690000F5E1F4FCE010596B8010E940E06898598
:1006A000823040F08989823028F0C701B8010E9469
:1006B000860601C081E06896E6E00C94740FA8E11C
:1006C000B0E0E5E6F3E00C94580F69837A838B83FE
:1006D0009C832D833E834F83588789E0E82EF12C3D
:1006E000EC0EFD1ECE010196B7010E940E068E0192
:1006F0000F5E1F4FCE010596B8010E940E06898538
:10070000823040F08989823028F0C701B8010E9408
:10071000860601C08FEF6896E6E00C94740FA8E19E
:10072000B0E0E5E9F3E00C94580F69837A838B839A
:100730009C832D833E834F83588789E0E82EF12CDC
:10074000EC0EFD1ECE010196B7010E940E068E0131
:100750000F5E1F4FCE010596B8010E940E068985D7
:10076000823040F08989823028F0C701B8010E94A8
:10077000860601C081E06896E6E00C94740FA8E05C
:10078000B0E0E5ECF3E00C94550F9B01AC0183E085
:100790008983DA01C9018827B7FD83959927AA279C
:1007A000BB27B82E211531054105510519F482E00A
:1007B00089833AC08823A9F0203080E0380780E0A0
:1007C000480780E8580729F460E070E080E09FEC7B
:1007D00030C0EE24FF248701E21AF30A040B150B44
:1007E00002C079018A018EE1C82ED12CDC82CB8235
:1007F000ED82FE820F831887C801B7010E94EA04C8
:1008000001971816190684F4082E04C0EE0CFF1C7C
:10081000001F111F0A94D2F7ED82FE820F83188702
:10082000C81AD90ADC82CB82BA82CE0101960E9414
:1008300039052896E9E00C94710FACE0B0E0E3E2F2
:10084000F4E00C945C0F69837A838B839C83CE01E4
:100850000196BE016B5F7F4F0E940E068D81823034
:1008600061F1823050F1843021F48E81882351F17E
:100870002EC02F81388537FD20C06E812F31310584
:100880001CF06623F9F023C08EE190E0821B930BED
:1008900029853A854B855C8504C0569547953795E3
:1008A00027958A95D2F76623B1F0509540953095FB
:1008B00021953F4F4F4F5F4F0EC020E030E040E0AA
:1008C00050E009C02FEF3FEF4FEF5FE704C020E09B
:1008D00030E040E050E8B901CA012C96E2E00C9407
:1008E000780FA8E0B0E0E7E7F4E00C94540F7B0148
:1008F0008C01611571058105910519F482E08983E8
:1009000060C083E089838EE1C82ED12CDC82CB824B
:10091000ED82FE820F831887C801B7010E94EA04A6
:10092000FC013197F7FF3BC0222733272E1B3F0BDB
:1009300057016801022E04C0D694C794B794A794B7
:100940000A94D2F740E050E060E070E081E090E08F
:10095000A0E0B0E004C0880F991FAA1FBB1F2A9512
:10096000D2F70197A109B1098E219F21A023B123BC
:100970000097A105B10521F041E050E060E070E092
:100980004A295B296C297D294D835E836F83788793
:100990008EE190E08E1B9F0B9C838B8312C030975F
:1009A00081F00E2E04C0EE0CFF1C001F111F0A94D4
:1009B000D2F7ED82FE820F831887CE1ADF0ADC821F
:1009C000CB821A82CE0101960E9439052896EAE070
:1009D0000C94700FEF92FF920F931F937B018C0189
:1009E00080E0E81680E0F80681E0080780E018075C
:1009F00088F48FEFE816F1040105110531F028F0B5
:100A000088E090E0A0E0B0E017C080E090E0A0E0D7
:100A1000B0E012C080E0E81680E0F80680E0080749
:100A200081E0180728F088E190E0A0E0B0E004C081
:100A300080E190E0A0E0B0E020E230E040E050E073
:100A4000281B390B4A0B5B0B04C016950795F794CE
:100A5000E7948A95D2F7F701EB5EFE4F8081281B61
:100A6000310941095109C9011F910F91FF90EF9080
:100A70000895DF92EF92FF920F931F93FC01E480A1
:100A8000F58006811781D1808081823048F480E032
:100A900090E0A0E1B0E0E82AF92A0A2B1B2BA5C0C0
:100AA000843009F49FC0823021F4EE24FF248701B2
:100AB00005C0E114F1040105110519F4E0E0F0E0CE
:100AC00096C0628173819FEF623879070CF05BC03A
:100AD00022E83FEF261B370B2A3131052CF020E0AE
:100AE00030E040E050E02AC0B801A701022E04C067
:100AF00076956795579547950A94D2F781E090E0EF
:100B0000A0E0B0E004C0880F991FAA1FBB1F2A9560
:100B1000D2F70197A109B1098E219F21A023B1230A
:100B20000097A105B10521F081E090E0A0E0B0E0E0
:100B30009A01AB01282B392B4A2B5B2BDA01C90117
:100B40008F779070A070B07080349105A105B105C9
:100B500039F427FF09C0205C3F4F4F4F5F4F04C05F
:100B6000215C3F4F4F4F5F4FE0E0F0E02030A0E0CE
:100B70003A07A0E04A07A0E45A0710F0E1E0F0E0ED
:100B800079018A0127C06038710564F5FB01E158DD
:100B9000FF4FD801C7018F779070A070B07080347C
:100BA0009105A105B10539F4E7FE0DC080E490E0A0
:100BB000A0E0B0E004C08FE390E0A0E0B0E0E80E79
:100BC000F91E0A1F1B1F17FF05C016950795F794FE
:100BD000E794319687E016950795F794E7948A9500
:100BE000D1F705C0EE24FF248701EFEFF0E06E2F70
:100BF000679566276795902F9F77D794DD24D794C4
:100C00008E2F8695492F462B582F5D29B701CA0193
:100C10001F910F91FF90EF90DF900895FC01DB0191
:100C2000408151812281622F6F7770E0221F22273D
:100C3000221F9381892F880F822B282F30E0991F44
:100C40009927991F11969C93119721153105A9F5A4
:100C5000411551056105710511F482E037C082E844
:100C60009FEF13969C938E9312979A01AB0167E0C6
:100C7000220F331F441F551F6A95D1F783E08C93D1
:100C80000DC0220F331F441F551F12968D919C914A
:100C90001397019713969C938E931297203080E0C0
:100CA000380780E0480780E4580758F314962D93DE
:100CB0003D934D935C93179708952F3F310579F439
:100CC000411551056105710519F484E08C9308956F
:100CD00064FF03C081E08C9312C01C9210C02F5798
:100CE000304013963C932E93129783E08C9387E0C9
:100CF000440F551F661F771F8A95D1F770641496AD
:100D00004D935D936D937C93179708951F93DC012A
:100D1000FB019C91923008F447C08081823008F436
:100D200043C0943051F411961C91843099F581811F
:100D3000682F70E0611B71093FC0843021F0923050
:100D400031F48230B9F18181882389F12DC0119667
:100D50001C9111978230F1F081811817D9F4129605
:100D60002D913C911397828193818217930794F080
:100D700028173907BCF014968D919D910D90BC9168
:100D8000A02D2481358146815781281739074A07CC
:100D90005B0718F4112341F00AC082179307A407D8
:100DA000B50740F4112319F061E070E005C06FEF62
:100DB0007FEF02C060E070E0CB011F91089580E0FA
:100DC00090E008959C01DB016115710519F424E0A0
:100DD00030E021C08FEF8C93232BD9F48091AC02AB
:100DE0008823B9F020E045E152E0382F822F90E0CF
:100DF000880F991F880F991F880F991FFA01E80F14
:100E0000F91F80819181892B09F42C932F5F23177F
:100E100068F320E030E0822F932F08950F931F9303
:100E2000DF93CF930F92CDB7DEB78B011982BE014E
:100E30006F5F7F4F0E94E2069C01E981EE231CF464
:100E400020E830E012C00230110570F4FF27E7FD02
:100E5000F095EE0FFF1FEE0FFF1FEE0FFF1FE55E79
:100E6000FD4F1183008301C02068822F932F0F90C4
:100E7000CF91DF911F910F910895EF92FF920F9301
:100E80001F93DF93CF930F92CDB7DEB77B0119820B
:100E9000BE016F5F7F4F0E94E2068C01E981EE2365
:100EA0001CF420E830E01AC082E0E816F104A0F457
:100EB000FF27E7FDF095EE0FFF1FEE0FFF1FEE0F70
:100EC000FF1FE95EFD4F80819181B7010E94FD09FE
:100ED0009C01202B312B02C098012068822F932F78
:100EE0000F90CF91DF911F910F91FF90EF90089598
:100EF0008F929F92AF92BF92CF92DF92EF92FF922A
:100F00000F931F93DF93CF930F92CDB7DEB77B0183
:100F10006115710519F424E030E0B2C01982BE01F8
:100F20006F5F7F4F0E94E2066C01298122231CF42F
:100F300020E830E0A5C0422F552747FD5095FA0123
:100F4000EE0FFF1FEE0FFF1FEE0FFF1FE55EFD4FC1
:100F500080819181019709F066C08091AC022817C9
:100F600028F0AA24BB246894A7F859C0822E99249B
:100F7000C401880F991F880F991F880F991F05E1D9
:100F800012E0F801E80FF91F82819381B7010E94F6
:100F900061095C01C401880F991F880F991F880F90
:100FA000991F080F191FF80124813581F7018081ED
:100FB000918128173907D1F42CE231E040E951E062
:100FC000CA010197F1F721503040D1F7F401EE0F3B
:100FD000FF1FEE0FFF1FEE0FFF1FE95EFD4F808129
:100FE0009181B7010E946109A82AB92AF401EE0F84
:100FF000FF1FEE0FFF1FEE0FFF1FE75EFD4F80810B
:101000009181892B61F420E030E0F70180819181AA
:10101000892B11F421E030E0F70131832083950121
:101020002C293D2911C0FA01EE0FFF1FEE0FFF1F03
:10103000EE0FFF1FE95EFD4F80819181B7010E9495
:1010400061099C012C293D29E981FF27E7FDF095E5
:10105000EE0FFF1FEE0FFF1FEE0FFF1FE75EFD4FAE
:1010600080819181892B61F440E050E0F70180811B
:101070009181892B11F441E050E0F70151834083C5
:10108000822F932F0F90CF91DF911F910F91FF909F
:10109000EF90DF90CF90BF90AF909F908F9008958A
:1010A0000F931F93CF93DF93EC018B012091D70215
:1010B000222319F460E070E04FC0ADE1B2E060E0DF
:1010C00070E030E08D919C9111978C179D07D9F5B8
:1010D00012964D915C9113974830510598F51496EE
:1010E000ED91FC911597E730F10560F5023011059F
:1010F00048F5012B99F0EE0FFF1FE753FD4F0190CC
:10110000F081E02D208181E090E002C0880F991FDE
:101110004A95E2F7282B2083E0811AC0EE0FFF1FCB
:10112000E753FD4F0190F081E02D208181E090E0B8
:1011300002C0880F991F4A95E2F780958223808329
:10114000E08106C060683F5F1A96321708F4BACF94
:101150008091D702381709F46068862F972FDF91A6
:10116000CF911F910F9108950F931F93CF93DF930A
:10117000EC018B013091D702332319F460E070E069
:101180004FC0ADE1B2E060E070E020E08D919C9155
:1011900011978C179D0709F03EC012964D915C91F6
:1011A000139748305105B0F51496ED91FC911597C1
:1011B000E730F10578F516968D919C911797029777
:1011C00048F5012B99F0EE0FFF1FE355FD4F0190FD
:1011D000F081E02D208181E090E002C0880F991F0E
:1011E0004A95E2F7282B2083E0811AC0EE0FFF1FFB
:1011F000E355FD4F0190F081E02D208181E090E0EA
:1012000002C0880F991F4A95E2F780958223808358
:10121000E08106C060682F5F1A96231708F4B6CFE6
:10122000862F972FDF91CF911F910F910895CF9324
:10123000DF93BC012091D702222319F440E050E053
:101240003AC0ADE1B2E040E050E030E08D919C91D9
:1012500011978617970739F51296CD91DC91139760
:10126000C830D105F8F41496ED91FC911597E7304C
:10127000F105C0F416968D919C911797029790F402
:10128000EE0FFF1FE355FD4F0190F081E02D20810F
:1012900081E090E002C0880F991FCA95E2F72827E5
:1012A000208305C040683F5F1A96321778F280911C
:1012B000D702381709F44068842F952FDF91CF911A
:1012C00008950F931F93CF93DF93EC018B0130911F
:1012D000D702332319F440E050E036C0ADE1B2E06C
:1012E00040E050E020E08D919C9111978C179D0774
:1012F00019F512966D917C91139768307105D8F4A9
:101300001496ED91FC911597E730F105A0F4EE0FDE
:10131000FF1FE554FD4F0190F081E02D808190E0AA
:1013200002C0959587956A95E2F781709070F801F3
:101330009183808305C040682F5F1A96231798F227
:101340008091D702281709F44068842F952FDF91E8
:10135000CF911F910F910895CF93DF93EC01562FFA
:101360002091D702222319F460E070E040C0ADE183
:10137000B2E060E070E040E08D919C9111978C1795
:101380009D0769F512968D919C911397089730F5FA
:101390001496ED91FC911597E730F105F8F4EE0FF6
:1013A000FF1FE355FD4F0190F081E02D20818FE07C
:1013B00090E00C2E02C0880F991F0A94E2F78095E6
:1013C0002823852F90E08F7090700C2E02C0880F1C
:1013D000991F0A94E2F7282B208305C060684F5FAD
:1013E0001A96421748F28091D702481709F46068AC
:1013F000862F972FDF91CF9108950F931F93CF934F
:10140000DF93EC018B01B091D702BB2319F420E0EC
:1014100030E089C080911D0290911E028C179D07BB
:1014200009F071C0A0E040E050E017C04A2F50E042
:10143000CA01880F991F9A01220F331F220F331FF1
:10144000220F331F820F931FFB01E80FF91F8081CA
:1014500091818C179D0709F059C0FA01EE0FFF1F0B
:10146000EE0FFF1FE40FF51FEE0FFF1FE15EFD4FB4
:10147000C081D181C830D10508F04FC0FA01EE0F0C
:10148000FF1FCA01880F991F880F991F880F991F86
:10149000E80FF91FEF5DFD4F2081318127303105C5
:1014A000E0F502301105C8F5012BB1F0F901EE0F9E
:1014B000FF1FE355FD4F0190F081E02D208181E079
:1014C00090E002C0880F991FCA95E2F7282B20836D
:1014D000208120E030E023C0F901EE0FFF1FE3552B
:1014E000FD4F0190F081E02D208181E090E002C06D
:1014F000880F991FCA95E2F7809582238083208107
:1015000020E030E00CC0A0E06DE172E0AF5FAB170F
:1015100008F48CCF20E030E002C020E830E0809179
:10152000D702A81709F42068822F932FDF91CF915B
:101530001F910F910895AF92BF92DF92EF92FF92A9
:101540000F93DF93CF9300D0CDB7DEB7D090D70203
:10155000DD2019F4EE24FF2426C00F2EFDE1AF2E6E
:10156000F2E0BF2EF02DEE24FF2400E0F5016681AD
:101570007781808191810E9450089A838983F50147
:1015800060857185808191810E94FD0929813A8160
:10159000822B932BE82AF92A0F5F8AE090E0A80EAD
:1015A000B91E0D1518F38E2D9F2D0F900F90CF9112
:1015B000DF910F91FF90EF90DF90BF90AF90089573
:1015C0002F923F924F925F926F927F928F929F9253
:1015D000AF92BF92CF92DF92EF92FF920F931F9341
:1015E000DF93CF93CDB7DEB728970FB6F894DEBF61
:1015F0000FBECDBFC82E672B59F4809196029091F3
:10160000970260E070E00E94B4089A8389830AC060
:10161000809196029091970261E070E00E94B40878
:101620009A8389830F2EF8E9EF2EF2E0FF2EF02D3A
:10163000F7018081918160E070E00E94B4088C0124
:101640006C2D70E061707070F701848195810E944B
:10165000B4089E838D836C2D669570E06170707008
:10166000F701868197810E94B4089C838B836C2D3F
:101670006695669570E061707070F7018085918560
:101680000E94B40898878F836C2D66956695669541
:1016900070E061707070F701828593850E94B408D4
:1016A0001C016C2D62956F7070E061707070F701B5
:1016B000848595850E94B4082C016C2D62956695F1
:1016C000677070E061707070F701868597850E9481
:1016D000B4083C016C2D629566956695637070E068
:1016E00061707070F701808991890E94B4084C0183
:1016F0006C2D661F6627661FF7018289938970E04B
:101700000E94B4085C0122E030E0E20EF31EF70113
:101710008081918161E070E00E94B4086C0180E9F1
:1017200091E00197F1F7F7018081918160E070E02D
:101730000E94B40829813A81022B132BED81FE818E
:101740000E2B1F2B2B813C81022B132BEF81F88555
:101750000E2B1F2B022913290429152906291729C5
:10176000082919290A291B290C291D29E0E4FFE170
:101770003197F1F7082B192B802F912F28960FB650
:10178000F894DEBF0FBECDBFCF91DF911F910F91B7
:10179000FF90EF90DF90CF90BF90AF909F908F9091
:1017A0007F906F905F904F903F902F900895809121
:1017B00095028C7F8093950260E070E00E94E00AC1
:1017C00008958091950283608093950260E070E0B7
:1017D0000E94E00A0895809195028D7F8093950282
:1017E00060E070E00E94E00A0895809195028260B6
:1017F0008093950260E070E00E94E00A0895809175
:1018000095028B7F8093950260E070E00E94E00A71
:1018100008958091950284608093950260E070E065
:101820000E94E00A089588E160E070E00E94E00A0A
:1018300008958CE160E070E00E94E00A089560582D
:101840000024969587950794969587950794982FE9
:10185000802D860F60E070E00E94E00A089582E02B
:1018600060E070E00E94E00A089581E060E070E0CE
:101870000E94E00A089561E070E00E94E00A089585
:10188000FF920F931F93F82ECB01642F0E941F0C21
:101890008C018F2D61E070E00E94E00A9C01202BFA
:1018A000312B822F932F1F910F91FF900895AF92AC
:1018B000BF92DF92EF92FF920F93DF93CF9300D00E
:1018C000CDB7DEB7660F660F660FDD246894D6F8D5
:1018D000D62A7C01AA24BB2400E08D2D802B60E059
:1018E00070E00E94E00A9A838983F70181917F0169
:1018F00061E070E00E94E00A29813A81822B932BFB
:10190000A82AB92A0F5F083041F78A2D9B2D0F9026
:101910000F90CF91DF910F91FF90EF90DF90BF90EC
:10192000AF90089561E070E00E94E00A08952F9260
:101930003F924F925F926F927F928F929F92AF925F
:10194000BF92CF92DF92EF92FF920F931F935B01B2
:101950006C01F42E20E030E040E050E00E948F0364
:1019600088231CF03501460109C08DE20E94920CCB
:101970003501460197FA909497F89094C401B30109
:101980000E945F001B012C01062FA32CB42CE52C18
:10199000602F7A2D8B2D9E2D2AE030E040E050E024
:1019A0000E940F0F162F602F7A2D8B2D9E2D2AE06F
:1019B00030E040E050E00E940F0F022FA32EB42E23
:1019C000E52E812F805D0E94920C6C01C401B30151
:1019D00020E030E040E050E00E942F03882391F1A6
:1019E000C114D104A9F22EC0C201B1010E94710438
:1019F0009B01AC01C401B3010E94D7015B016C01E2
:101A0000C601B50120E030E040E251E40E94350219
:101A10005B016C010E945F007B018C0170E08827F4
:101A200077FD8095982F0E94BF039B01AC01C601F2
:101A3000B5010E94D7015B016C018E2D805D0E9473
:101A4000920CDECFFF2081F68C2D9D2D1F910F91E2
:101A5000FF90EF90DF90CF90BF90AF909F908F90CE
:101A60007F906F905F904F903F902F9008956F926E
:101A70007F928F929F92AF92BF92CF92DF92EF921E
:101A8000FF920F931F93CF93DF937B018C019923D8
:101A900054F48DE20E94920C66277727CB016E19D1
:101AA0007F09800B910B99242AE030E040E050E060
:101AB0000E94310F822F932FA42FB52FBC01CD018F
:101AC0009394611571058105910571F7992009F4C9
:101AD0004CC057016801112344F4D094C094B094D1
:101AE000A094A11CB11CC11CD11CC0E0D0E0772483
:101AF000739466240F2EFAE08F2EF02D2CC0272D24
:101B0000662D289D202D11246F5F862F90E084176D
:101B10009507BCF3E22EFF2400E010E0C601B501FA
:101B2000A80197010E94310F822F805D0E94920CC4
:101B3000C82BD92B9A94D9F0C601B501A8019701F9
:101B40000E94310F372F482F592F862F932FA42F04
:101B5000B52F5C016D01892D90E0AC0141505040E2
:101B60001416150664F2272DD5CFC0E0D0E08C2FD7
:101B70009D2FDF91CF911F910F91FF90EF90DF90FC
:101B8000CF90BF90AF909F908F907F906F9008956F
:101B9000CF92DF92EF92FF920F931F936B017C0124
:101BA000CA01622F0E941F0C8C01C701B6010E945E
:101BB000370D9C01202B312B822F932F1F910F91DA
:101BC000FF90EF90DF90CF900895EF92FF921F93D8
:101BD000CF93DF937C01FC018081882319F4C0E05E
:101BE000D0E00EC0C0E0D0E010E00E94920CC82B04
:101BF000D92B1F5FF701E10FF11D80818823A9F721
:101C00008C2F9D2FDF91CF911F91FF90EF90089522
:101C1000FF920F931F93F82ECB01642F0E941F0C8D
:101C20008C018F2D61E070E00E94E00A9C01202B66
:101C3000312B822F932F1F910F91FF900895CF92F8
:101C4000DF92EF92FF920F931F93CF93DF937C016C
:101C50006B01042FFC018081882319F4C0E0D0E0DF
:101C600011C0C0E0D0E010E0412F400FB6010E944B
:101C7000080EC82BD92B1F5FF701E10FF11D8081E2
:101C8000882391F78C2F9D2FDF91CF911F910F917A
:101C9000FF90EF90DF90CF9008954F925F926F92F8
:101CA0007F928F929F92AF92BF92CF92DF92EF92EC
:101CB000FF920F931F932CE231E040E951E0CA01FB
:101CC0000197F1F721503040D1F788E360E070E0F0
:101CD0000E94E00A2C0180E190E40197F1F788E38B
:101CE00060E070E00E94E00A8C0180E991E00197D9
:101CF000F1F788E360E070E00E94E00A3C0185E0D3
:101D00008A95F1F781E060E070E00E94E00A4C0102
:101D100082E060E070E00E94E00A5C018CE060E03C
:101D200070E00E94E00A6C0186E060E070E00E94D2
:101D3000E00A7C0188E360E070E00E94E00A042988
:101D4000152906291729082919290A291B290C29C7
:101D50001D290E291F29082B192B802F912F1F9128
:101D60000F91FF90EF90DF90CF90BF90AF909F903A
:101D70008F907F906F905F904F900895CF92DF92F9
:101D8000EF92FF920F931F93DF93CF9300D0CDB7C5
:101D9000DEB71A8219820E949B0A0E944D0E0E9491
:101DA000DF0680E091E00E94E50D60E070E080E0F9
:101DB00090E00E94370DFF248E010F5F1F4F0F2E02
:101DC000FAE0CF2EF1E0DF2EF02DEE2480E090E05F
:101DD000B8010E94780789819A810197B9F780E05C
:101DE00090E0B8010E94780789819A810197B9F340
:101DF000F3948EE18F1538F4C60160E070E049E09D
:101E00000E941F0EFE2C6F2D70E080E090E040E0FD
:101E100050E029E00E94C80D1A821982D7CFA1E2B2
:101E20001A2EAA1BBB1BFD010DC0AA1FBB1FEE1F54
:101E3000FF1FA217B307E407F50720F0A21BB30B9F
:101E4000E40BF50B661F771F881F991F1A9469F71B
:101E500060957095809590959B01AC01BD01CF0177
:101E6000089597FB092E05260ED057FD04D0D7DF25
:101E70000AD0001C38F450954095309521953F4F7D
:101E80004F4F5F4F0895F6F7909580957095619547
:101E90007F4F8F4F9F4F08952F923F924F925F92A7
:101EA0006F927F928F929F92AF92BF92CF92DF926A
:101EB000EF92FF920F931F93CF93DF93CDB7DEB7CF
:101EC000CA1BDB0B0FB6F894DEBF0FBECDBF099463
:101ED0002A88398848885F846E847D848C849B84BA
:101EE000AA84B984C884DF80EE80FD800C811B81C8
:101EF000AA81B981CE0FD11D0FB6F894DEBF0FBEF7
:0A1F0000CDBFED010895F894FFCF66
:101F0A00436F756E7465723A20002020000000004D
:101F1A00000000000000010202030303030404049A
:101F2A00040404040405050505050505050505055C
:101F3A00050505050506060606060606060606063C
:101F4A000606060606060606060606060606060627
:101F5A00060606060607070707070707070707070C
:101F6A0007070707070707070707070707070707F7
:101F7A0007070707070707070707070707070707E7
:101F8A0007070707070707070707070707070707D7
:101F9A0007070707070808080808080808080808BC
:101FAA0008080808080808080808080808080808A7
:101FBA000808080808080808080808080808080897
:101FCA000808080808080808080808080808080887
:101FDA000808080808080808080808080808080877
:101FEA000808080808080808080808080808080867
:101FFA000808080808080808080808080808080857
:10200A000808080808080808080808080808080846
:10201A00080808080800000B000000010008000179
:10202A000001000100000009000200010001000097
:10203A00000A000300010001000000000000000087
:10204A000001000000010001000000010000000280
:10205A00000200000001000000030003000000016C
:10206A000000000400040000000100000005000553
:10207A000000000100000006000600000001000048
:10208A0000070007000000010000000B000000012B
:10209A0000000001000C08000A000900000001000D
:1020AA00020003000400050006000700013B003897
:1020BA000035003200230062006500390036003323
:1020CA000030002100200063003A0037003400315C
:0820DA00002200610064000C0B
:00000001FF
