:100000000C942A000C943F000C943F000C943F0089
:100010000C943F000C943F000C943F000C943F0064
:100020000C943F000C943F000C943F000C943F0054
:100030000C943F000C943F000C943F000C943F0044
:100040000C943F000C943F000C943F000C943F0034
:100050000C943F0011241FBECFE5D8E0DEBFCDBF1A
:1000600010E0A0E6B0E0EEE4F5E002C005900D92ED
:10007000A239B107D9F70E947C020C94A5020C9416
:100080000000DC014D915C91119748305105D8F585
:100090001296ED91FC911397E430F105A0F51496BA
:1000A0008D919C9115978230910568F5892BA9F067
:1000B000EE0FFF1FE859FF4F0190F081E02D2081E6
:1000C00081E090E002C0880F991F4A95E2F7282B43
:1000D0002083E08120E030E018C0EE0FFF1FE859D8
:1000E000FF4F0190F081E02D208181E090E002C07F
:1000F000880F991F4A95E2F7809582238083E081DB
:1001000020E030E002C020E830E0822F932F0895F5
:10011000DC018830910590F56430710578F5452B48
:10012000B1F0FB01EE0FFF1FE05AFF4F0190F0818D
:10013000E02D208181E090E002C0880F991FAA95F0
:10014000E2F7282B2083608120E030E019C0FB011A
:10015000EE0FFF1FE05AFF4F0190F081E02D20814C
:1001600081E090E002C0880F991FAA95E2F7809580
:1001700082238083608120E030E002C020E830E00C
:10018000822F932F0895AC0188309105C0F464301C
:100190007105A8F4FB01EE0FFF1FE05AFF4F01901D
:1001A000F081E02D208181E090E002C0880F991F4E
:1001B0004A95E2F72827208320E030E002C020E8BB
:1001C00030E0822F932F08959C01DA018830910549
:1001D000E0F464307105C8F441155105B1F0FB013C
:1001E000EE0FFF1FE059FF4F0190F081E02D80815D
:1001F00090E002C0959587952A95E2F781709070FE
:100200008D939C9320E030E002C020E830E0822F04
:10021000932F08958430910518F020E830E00BC04A
:10022000FC01EE0FFF1FE05AFF4F0190F081E02D1F
:10023000608320E030E0822F932F08958430910571
:1002400018F020E830E00DC0FC01EE0FFF1FE05A6F
:10025000FF4F0190F081E02D80818095808320E028
:1002600030E0822F932F08958430910518F020E814
:1002700030E00FC0FC01EE0FFF1FE05AFF4F01906E
:10028000F081E02D9081862F8F70892B808320E074
:1002900030E0822F932F08958430910518F020E8E4
:1002A00030E010C0FC01EE0FFF1FE05AFF4F01903D
:1002B000F081E02D9081862F8295807F892B80832D
:1002C00020E030E0822F932F0895DB016115710546
:1002D00019F424E030E012C08430910518F020E8D1
:1002E00030E00CC0FC01EE0FFF1FE059FF4F019002
:1002F000F081E02D80818C9320E030E0822F932FDD
:10030000089584309105A0F46230710588F4FC01F1
:10031000EE0FFF1FE05AFF4F0190F081E02D672B99
:1003200011F480E001C08FEF808320E030E002C054
:1003300020E230E0822F932F089584309105A0F4BD
:100340006230710588F4FC01EE0FFF1FE859FF4F82
:100350000190F081E02D672B11F480E001C08FEF58
:10036000808320E030E002C020E230E0822F932F33
:100370000895DC014D915C91119748305105D8F5F5
:100380001296ED91FC911397E430F105A0F51696C5
:100390008D919C9117978230910568F5892BA9F072
:1003A000EE0FFF1FE05AFF4F0190F081E02D2081FA
:1003B00081E090E002C0880F991F4A95E2F7282B50
:1003C0002083E08120E030E018C0EE0FFF1FE05AEC
:1003D000FF4F0190F081E02D208181E090E002C08C
:1003E000880F991F4A95E2F7809582238083E081E8
:1003F00020E030E002C020E830E0822F932F089503
:100400006F927F928F929F92AF92BF92CF92DF9224
:10041000EF92FF920F931F93DF93CF93CDB7DEB789
:1004200060970FB6F894DEBF0FBECDBFA0909000CE
:10043000AA2019F4CC24DD2448C00F2EF8E7EF2EB3
:10044000F0E0FF2EF02DCC24DD24BB240F2EF9E0AC
:100450006F2E7724F02D6C0E7D1E4E010894811CAA
:10046000911CF70122813381448155816681778116
:10047000808191819A8789873C872B875E874D870A
:10048000788B6F87C3010E9441008C01F7012281A4
:1004900033814481558166817781808191819A83FE
:1004A00089833C832B835E834D8378876F83C4016C
:1004B0000E94B901082B192BC02AD12AB39488E0D5
:1004C00090E0E80EF91EBA1460F28C2D9D2D609616
:1004D0000FB6F894DEBF0FBECDBFCF91DF911F9155
:1004E0000F91FF90EF90DF90CF90BF90AF909F90D3
:1004F0008F907F906F9008950F931F93CF93DF930A
:100500000E94000208EE13E0C8ECD0E085E090E025
:1005100061E070E041E050E00E9488009801CE0167
:100520000197F1F721503040D1F785E090E061E08C
:1005300070E040E050E00E9488009801CE010197F1
:0E054000F1F721503040D1F7E1CFF894FFCF12
:10054E003B003800350032003A00370034003100ED
:10055E0039003600330030000300010001000000B6
:10056E000500010001000000040001000000000071
:02057E00030078
:00000001FF
