:100000000C9446000C945D000C945D000C945D0013
:100010000C945D000C945D000C945D000C945D00EC
:100020000C945D000C945D000C945D000C945D00DC
:100030000C945D000C945D000C945D000C945D00CC
:100040000C945D000C945D000C945D000C945D00BC
:100050000C945D000C945D000C945D000C945D00AC
:100060000C945D000C945D000C945D000C945D009C
:100070000C945D000C945D000C945D000C945D008C
:100080000C945D000C945D000C945D0011241FBE67
:10009000CFEFD0E1DEBFCDBF11E0A0E0B1E0EEE8F0
:1000A000F5E000E00BBF02C007900D92A434B10749
:1000B000D9F70E949A020C94C5020C940000DC014E
:1000C0004D915C91119748305105D8F51296ED91FC
:1000D000FC911397E730F105A0F514968D919C9152
:1000E00015978230910568F5892BA9F0EE0FFF1F57
:1000F000E25FFE4F0190F081E02D208181E090E0F1
:1001000002C0880F991F4A95E2F7282B2083E081CF
:1001100020E030E018C0EE0FFF1FE25FFE4F0190BD
:10012000F081E02D208181E090E002C0880F991FCE
:100130004A95E2F7809582238083E08120E030E0D9
:1001400002C020E830E0822F932F0895DC01883030
:10015000910590F56730710578F5452BB1F0FB01FD
:10016000EE0FFF1FE050FF4F0190F081E02D208146
:1001700081E090E002C0880F991FAA95E2F7282B32
:100180002083608120E030E019C0FB01EE0FFF1FEB
:10019000E050FF4F0190F081E02D208181E090E060
:1001A00002C0880F991FAA95E2F780958223808369
:1001B000608120E030E002C020E830E0822F932F01
:1001C0000895AC0188309105C0F467307105A8F43A
:1001D000FB01EE0FFF1FE050FF4F0190F081E02D7B
:1001E000208181E090E002C0880F991F4A95E2F7D4
:1001F0002827208320E030E002C020E830E0822F72
:10020000932F08959C01DA0188309105E0F467305E
:100210007105C8F441155105B1F0FB01EE0FFF1F48
:10022000E45EFE4F0190F081E02D808190E002C0FD
:10023000959587952A95E2F7817090708D939C93A0
:1002400020E030E002C020E830E0822F932F0895B4
:100250008730910518F020E830E00BC0FC01EE0F6C
:10026000FF1FE050FF4F0190F081E02D608320E000
:1002700030E0822F932F08958730910518F020E801
:1002800030E00DC0FC01EE0FFF1FE050FF4F01906A
:10029000F081E02D80818095808320E030E0822F06
:1002A000932F08958730910518F020E830E00FC0B3
:1002B000FC01EE0FFF1FE050FF4F0190F081E02D99
:1002C0009081862F8F70892B808320E030E0822FF1
:1002D000932F08958730910518F020E830E010C082
:1002E000FC01EE0FFF1FE050FF4F0190F081E02D69
:1002F0009081862F8295807F892B808320E030E05B
:10030000822F932F0895DB016115710519F424E004
:1003100030E012C08730910518F020E830E00CC0C2
:10032000FC01EE0FFF1FE45EFE4F0190F081E02D17
:1003300080818C9320E030E0822F932F08958730C6
:100340009105A0F46230710588F4FC01EE0FFF1FE7
:10035000E050FF4F0190F081E02D672B11F480E019
:1003600001C08FEF808320E030E002C020E230E067
:10037000822F932F089587309105A0F46230710584
:1003800088F4FC01EE0FFF1FE25FFE4F0190F08149
:10039000E02D672B11F480E001C08FEF808320E017
:1003A00030E002C020E230E0822F932F0895DC017C
:1003B0004D915C91119748305105D8F51296ED9109
:1003C000FC911397E730F105A0F516968D919C915D
:1003D00017978230910568F5892BA9F0EE0FFF1F62
:1003E000E050FF4F0190F081E02D208181E090E00E
:1003F00002C0880F991F4A95E2F7282B2083E081DD
:1004000020E030E018C0EE0FFF1FE050FF4F0190DA
:10041000F081E02D208181E090E002C0880F991FDB
:100420004A95E2F7809582238083E08120E030E0E6
:1004300002C020E830E0822F932F08956F927F92C0
:100440008F929F92AF92BF92CF92DF92EF92FF92E4
:100450000F931F93DF93CF93CDB7DEB760970FB69F
:10046000F894DEBF0FBECDBFA0904201AA2019F4C0
:10047000CC24DD2448C00F2EFAE2EF2EF1E0FF2E4F
:10048000F02DCC24DD24BB240F2EF9E06F2E772431
:10049000F02D6C0E7D1E4E010894811C911CF701FD
:1004A0002281338144815581668177818081918168
:1004B0009A8789873C872B875E874D87788B6F87E4
:1004C000C3010E945F008C01F701228133814481C6
:1004D000558166817781808191819A8389833C836C
:1004E0002B835E834D8378876F83C4010E94D7017D
:1004F000082B192BC02AD12AB39488E090E0E80E8B
:10050000F91EBA1460F28C2D9D2D60960FB6F894EA
:10051000DEBF0FBECDBFCF91DF911F910F91FF9036
:10052000EF90DF90CF90BF90AF909F908F907F9093
:100530006F9008950F931F93DF93CF9300D0CDB7A3
:10054000DEB71A8219820E941E028E010F5F1F4FB2
:1005500083E090E066E070E0A8010E9402018981DA
:100560009A81892B49F084E090E066E070E04EECDF
:100570005FEF0E94A600ECCF84E090E066E070E0C0
:0E05800040E050E00E94A600E3CFF894FFCFC9
:10058E003B003800350032002300620065003A005F
:10059E00370034003100220061006400390036005B
:1005AE00330030002100200063000200060001002D
:1005BE000000040006000100000003000600000019
:0405CE000000030026
:00000001FF
