:100000000C9446000C945D000C945D000C945D0013
:100010000C945D000C945D000C945D000C945D00EC
:100020000C945D000C945D000C945D000C945D00DC
:100030000C945D000C945D000C945D000C945D00CC
:100040000C945D000C945D000C945D000C945D00BC
:100050000C945D000C945D000C945D000C945D00AC
:100060000C945D000C945D000C945D000C945D009C
:100070000C945D000C945D000C945D000C945D008C
:100080000C945D000C945D000C945D0011241FBE67
:10009000CFEFD0E1DEBFCDBF13E0A0E0B1E0E6E5F9
:1000A000F4E200E00BBF02C007900D92A034B1074C
:1000B000D9F70E945E110C9429120C940000EF9263
:1000C000FF920F931F937B018C0120E030E040E012
:1000D0005FE40E945F0388238CF0C801B70120E031
:1000E00030E040E05FE40E94D7010E94BF039B0123
:1000F000AC01205030404040504806C0C801B70114
:100100000E94BF039B01AC01B901CA011F910F916D
:10011000FF90EF900895A0E0B0E0E1E9F0E00C94EA
:10012000F211DC012B01FA019C91923008F439C1E3
:10013000EB018881823008F433C1943069F4843053
:1001400009F02FC111969C9111978981981709F494
:1001500028C1A9E1B1E025C1843009F421C1823070
:10016000A9F4923009F01DC19A01AD0188E0EA01BD
:100170000990AE01E90109929E018150C1F7E201A7
:10018000898111969C918923818308C1923009F459
:1001900007C112962D903C901397EB018A819B81A9
:1001A0001496AD90BD90CD90DC901797EC80FD80BB
:1001B0000E811F819101281B390BB90137FF04C043
:1001C00066277727621B730B603271050CF061C0E4
:1001D000121613066CF537014801062E04C09694DA
:1001E0008794779467940A94D2F721E030E040E056
:1001F00050E004C0220F331F441F551F6A95D2F7E9
:1002000021503040404050402E213F214023512377
:10021000211531054105510521F021E030E040E094
:1002200050E079018A01E628F728082919293CC0FD
:10023000232BD1F1260E371E35014601062E04C0B0
:1002400096948794779467940A94D2F721E030E0EB
:1002500040E050E004C0220F331F441F551F6A9531
:10026000D2F721503040404050402A213B214C21C0
:100270005D21211531054105510521F021E030E0D6
:1002800040E050E059016A01A628B728C828D928BB
:100290000BC0821593052CF01C01AA24BB24650118
:1002A00003C0EE24FF24870111969C91D201119680
:1002B0008C91981709F445C0992339F0A80197014A
:1002C0002A193B094C095D0906C0A60195012E19A2
:1002D0003F09400B510B57FD08C011823382228227
:1002E00024833583468357831DC081E08183338215
:1002F000228288279927DC01821B930BA40BB50B64
:1003000084839583A683B7830DC0220F331F441FB8
:10031000551F2483358346835783828193810197B8
:10032000938382832481358146815781DA01C90113
:100330000197A109B1098F5F9F4FAF4FBF4328F3CA
:100340000BC0918333822282EA0CFB1C0C1D1D1D05
:10035000E482F5820683178383E0808324813581DC
:100360004681578157FF1AC0C901AA2797FDA0955A
:10037000BA2F81709070A070B070569547953795E0
:100380002795822B932BA42BB52B84839583A6834F
:10039000B78382819381019693838283DF0101C0B9
:1003A000D201CD01CDB7DEB7E2E10C940E12A0E28E
:1003B000B0E0EDEDF1E00C94FE1169837A838B835C
:1003C0009C832D833E834F835887E9E0EE2EF12CEA
:1003D000EC0EFD1ECE010196B7010E94B0058E0104
:1003E0000F5E1F4FCE010596B8010E94B0058A89A5
:1003F00091E089278A8BC701B801AE01475E5F4F44
:100400000E948B000E94DB04A096E6E00C941A1276
:10041000A0E2B0E0EEE0F2E00C94FE1169837A8392
:100420008B839C832D833E834F835887F9E0EF2E87
:10043000F12CEC0EFD1ECE010196B7010E94B00515
:100440008E010F5E1F4FCE010596B8010E94B005C8
:10045000C701B801AE01475E5F4F0E948B000E944A
:10046000DB04A096E6E00C941A12A0E2B0E0EBE305
:10047000F2E00C94F21169837A838B839C832D8341
:100480003E834F835887CE010196BE01675F7F4F41
:100490000E94B005CE010596BE016F5E7F4F0E949F
:1004A000B0059985923088F089898230C8F09430FF
:1004B00019F4823051F404C0843029F4923081F46C
:1004C00089E191E0C6C0923049F420E09A858A899A
:1004D000981321E02A87CE010996BBC0823049F4E7
:1004E00020E09A858A89981321E02A8BCE014196D3
:1004F000B0C02D843E844F8458886D887E888F8854
:10050000988CEE24FF248701AA24BB24650140E0D7
:1005100050E060E070E0E0E0F0E0C10181709070D8
:10052000892BE9F0E60CF71C081D191D9A01AB0197
:100530002A0D3B1D4C1D5D1D80E090E0A0E0B0E069
:10054000E614F7040805190520F481E090E0A0E026
:10055000B0E0BA01A901480F591F6A1F7B1FAA0CFE
:10056000BB1CCC1CDD1C97FE08C081E090E0A0E025
:10057000B0E0A82AB92ACA2ADB2A3196E032F1056E
:1005800049F0660C771C881C991C56944794379444
:100590002794C3CFFA85EA892B893C898B859C8572
:1005A000280F391F2E5F3F4F17C0CA01817090700E
:1005B000892B61F016950795F794E79480E090E019
:1005C000A0E0B0E8E82AF92A0A2B1B2B769567955C
:1005D000579547952F5F3F4F77FDE7CF0CC0440FEE
:1005E000551F661F771F17FD4160EE0CFF1C001F93
:1005F000111F21503040403090E0590790E06907CA
:1006000090E4790760F32B8F3C8FDB01CA018F7771
:100610009070A070B07080349105A105B10561F4AF
:1006200047FD0AC0E114F1040105110529F0405C01
:100630005F4F6F4F7F4F40781A8EFE1711F081E0A9
:100640008A8F4D8F5E8F6F8F78A383E0898FCE0165
:1006500049960E94DB04A096E2E10C940E12A8E1F8
:10066000B0E0E5E3F3E00C94FE1169837A838B83B9
:100670009C832D833E834F83588789E0E82EF12C9D
:10068000EC0EFD1ECE010196B7010E94B0058E0151
:100690000F5E1F4FCE010596B8010E94B0058985F7
:1006A000823040F08989823028F0C701B8010E9469
:1006B000280601C08FEF6896E6E00C941A12A8E1B4
:1006C000B0E0E5E6F3E00C94FE1169837A838B8356
:1006D0009C832D833E834F83588789E0E82EF12C3D
:1006E000EC0EFD1ECE010196B7010E94B0058E01F1
:1006F0000F5E1F4FCE010596B8010E94B005898597
:10070000823040F08989823028F0C701B8010E9408
:10071000280601C08FEF6896E6E00C941A12A8E153
:10072000B0E0E5E9F3E00C94FE1169837A838B83F2
:100730009C832D833E834F83588789E0E82EF12CDC
:10074000EC0EFD1ECE010196B7010E94B0058E0190
:100750000F5E1F4FCE010596B8010E94B005898536
:10076000823040F08989823028F0C701B8010E94A8
:10077000280601C081E06896E6E00C941A12ACE00D
:10078000B0E0E5ECF3E00C94021269837A838B838A
:100790009C83CE010196BE016B5F7F4F0E94B00526
:1007A0008D81823061F1823050F1843021F48E816C
:1007B000882351F12EC02F81388537FD20C06E81EE
:1007C0002F3131051CF06623F9F023C08EE190E053
:1007D000821B930B29853A854B855C8504C0569511
:1007E0004795379527958A95D2F76623B1F05095AE
:1007F0004095309521953F4F4F4F5F4F0EC020E001
:1008000030E040E050E009C02FEF3FEF4FEF5FE7EF
:1008100004C020E030E040E050E8B901CA012C9665
:10082000E2E00C941E12A8E0B0E0E9E1F4E00C94E0
:10083000FA117B018C01611571058105910519F48F
:1008400082E0898360C083E089838EE1C82ED12C49
:10085000DC82CB82ED82FE820F831887C801B7014C
:100860000E948C04FC013197F7FF3BC022273327FD
:100870002E1B3F0B57016801022E04C0D694C7946B
:10088000B794A7940A94D2F740E050E060E070E09B
:1008900081E090E0A0E0B0E004C0880F991FAA1F9B
:1008A000BB1F2A95D2F70197A109B1098E219F217B
:1008B000A023B1230097A105B10521F041E050E04C
:1008C00060E070E04A295B296C297D294D835E83B5
:1008D0006F8378878EE190E08E1B9F0B9C838B83C8
:1008E00012C0309781F00E2E04C0EE0CFF1C001FCA
:1008F000111F0A94D2F7ED82FE820F831887CE1A59
:10090000DF0ADC82CB821A82CE0101960E94DB04D0
:100910002896EAE00C941612EF92FF920F931F9321
:100920007B018C0180E0E81680E0F80681E0080792
:1009300080E0180788F48FEFE816F104010511052F
:1009400031F028F088E090E0A0E0B0E017C080E04F
:1009500090E0A0E0B0E012C080E0E81680E0F80689
:1009600080E0080781E0180728F088E190E0A0E027
:10097000B0E004C080E190E0A0E0B0E020E230E030
:1009800040E050E0281B390B4A0B5B0B04C0169566
:100990000795F794E7948A95D2F7F701EF5DFE4F3C
:1009A0008081281B310941095109C9011F910F910B
:1009B000FF90EF900895DF92EF92FF920F931F93B5
:1009C000FC01E480F58006811781D180808182302E
:1009D00048F480E090E0A0E1B0E0E82AF92A0A2B90
:1009E0001B2BA5C0843009F49FC0823021F4EE2473
:1009F000FF24870105C0E114F1040105110519F474
:100A0000E0E0F0E096C0628173819FEF6238790781
:100A10000CF05BC022E83FEF261B370B2A31310573
:100A20002CF020E030E040E050E02AC0B801A701FF
:100A3000022E04C076956795579547950A94D2F78C
:100A400081E090E0A0E0B0E004C0880F991FAA1FE9
:100A5000BB1F2A95D2F70197A109B1098E219F21C9
:100A6000A023B1230097A105B10521F081E090E01A
:100A7000A0E0B0E09A01AB01282B392B4A2B5B2B6D
:100A8000DA01C9018F779070A070B0708034910541
:100A9000A105B10539F427FF09C0205C3F4F4F4F36
:100AA0005F4F04C0215C3F4F4F4F5F4FE0E0F0E0ED
:100AB0002030A0E03A07A0E04A07A0E45A0710F06F
:100AC000E1E0F0E079018A0127C06038710564F542
:100AD000FB01E158FF4FD801C7018F779070A070DC
:100AE000B07080349105A105B10539F4E7FE0DC061
:100AF00080E490E0A0E0B0E004C08FE390E0A0E0EC
:100B0000B0E0E80EF91E0A1F1B1F17FF05C016955F
:100B10000795F794E794319687E016950795F79433
:100B2000E7948A95D1F705C0EE24FF248701EFEF03
:100B3000F0E06E2F679566276795902F9F77D79483
:100B4000DD24D7948E2F8695492F462B582F5D296B
:100B5000B701CA011F910F91FF90EF90DF900895A8
:100B6000FC01DB01408151812281622F6F7770E0AF
:100B7000221F2227221F9381892F880F822B282F43
:100B800030E0991F9927991F11969C931197211571
:100B90003105A9F5411551056105710511F482E092
:100BA00037C082E89FEF13969C938E9312979A0119
:100BB000AB0167E0220F331F441F551F6A95D1F721
:100BC00083E08C930DC0220F331F441F551F1296D4
:100BD0008D919C911397019713969C938E931297E6
:100BE000203080E0380780E0480780E4580758F359
:100BF00014962D933D934D935C93179708952F3F33
:100C0000310579F4411551056105710519F484E048
:100C10008C93089564FF03C081E08C9312C01C92F2
:100C200010C02F57304013963C932E93129783E0B9
:100C30008C9387E0440F551F661F771F8A95D1F765
:100C4000706414964D935D936D937C9317970895FC
:100C50001F93DC01FB019C91923008F447C0808116
:100C6000823008F443C0943051F411961C918430C2
:100C700099F58181682F70E0611B71093FC0843054
:100C800021F0923031F48230B9F18181882389F1E9
:100C90002DC011961C9111978230F1F081811817A7
:100CA000D9F412962D913C911397828193818217EA
:100CB000930794F028173907BCF014968D919D91F5
:100CC0000D90BC91A02D2481358146815781281734
:100CD00039074A075B0718F4112341F00AC082174D
:100CE0009307A407B50740F4112319F061E070E001
:100CF00005C06FEF7FEF02C060E070E0CB011F9195
:100D000008952F924F925F926F927F928F929F924F
:100D1000AF92BF92CF92DF92EF92FF920F931F9309
:100D2000DF93CF93CDB7DEB762970FB6F894DEBFEF
:100D30000FBECDBF282E672B59F4809122029091CF
:100D4000230260E070E00E94B10D9A8389830AC09B
:100D5000809122029091230261E070E00E94B10D27
:100D60009A8389830F2EF4E2EF2EF2E0FF2EF02D0E
:100D7000F7018081918160E070E00E94B10D8C01EB
:100D800044245524689442F84E0C5F1C622D6295F1
:100D90006F7070E061707070F201808191810E94CB
:100DA000B10D988B8F870F2EF6E08F2E9924F02DA2
:100DB0008E0C9F1C622D62956695677070E0617065
:100DC0007070F401808191810E94B10D9E878D87A2
:100DD000AA24BB246894A3F8AE0CBF1C622D6295B4
:100DE00066956695637070E061707070F501808142
:100DF00091810E94B10D9C878B870F2EFAE0CF2E38
:100E0000DD24F02DCE0CDF1C622D661F6627661FC9
:100E1000F6018081918170E00E94B10D9A878987E7
:100E200022E030E0E20EF31EF7018081918161E063
:100E300070E00E94B10D98878F830F2EF0E96F2E1E
:100E4000F1E07F2EF02DC3010197F1F7F7018081CA
:100E5000918160E070E00E94B10D9E838D8380E4FB
:100E60009FE10197F1F7F7018081918161E070E0E6
:100E70000E94B10D9C838B83622D70E06170707055
:100E8000F201808191810E94B10D9A8B898B622D34
:100E9000669570E061707070F401808191810E94AC
:100EA000B10D2C01622D6695669570E061707070D1
:100EB000F501808191810E94B10D4C01622D6695F2
:100EC0006695669570E061707070F6018081918121
:100ED0000E94B10D5C01F7018081918161E070E0B9
:100EE0000E94B10D6C01C3010197F1F7F7018081F8
:100EF000918160E070E00E94B10D29813A81022B5E
:100F0000132BEF85F8890E2B1F2B2D853E85022B89
:100F1000132BEB85FC850E2B1F2B29853A85022B85
:100F2000132BEF81F8850E2B1F2B2D813E81022B79
:100F3000132BEB81FC810E2B1F2B29893A89022B65
:100F4000132B04291529082919290A291B290C29D9
:100F50001D29E0E4FFE13197F1F7082B192B802FD1
:100F6000912F62960FB6F894DEBF0FBECDBFCF9122
:100F7000DF911F910F91FF90EF90DF90CF90BF9086
:100F8000AF909F908F907F906F905F904F902F9039
:100F90000895809121028C7F8093210260E070E0AF
:100FA0000E9481060895809121028360809321022E
:100FB00060E070E00E9481060895809121028D7F9B
:100FC0008093210260E070E00E9481060895809184
:100FD000210282608093210260E070E00E9481061D
:100FE0000895809121028B7F8093210260E070E060
:100FF0000E948106089580912102846080932102DD
:1010000060E070E00E948106089588E160E070E091
:101010000E94810608958CE160E070E00E948106E4
:10102000089560580024969587950794969587951E
:101030000794982F802D860F60E070E00E94810653
:10104000089582E060E070E00E948106089581E0EA
:1010500060E070E00E9481060895FF920F931F9355
:10106000F82ECB01642F0E9411088C018F2D61E0B6
:1010700070E00E9481069C01202B312B822F932F40
:101080001F910F91FF90089561E070E00E9481062A
:101090000895AF92BF92DF92EF92FF920F93DF938A
:1010A000CF9300D0CDB7DEB7660F660F660FDD2495
:1010B0006894D6F8D62A7C01AA24BB2400E08D2DA2
:1010C000802B60E070E00E9481069A838983F7019B
:1010D00081917F0161E070E00E94810629813A815F
:1010E000822B932BA82AB92A0F5F083041F78A2D4B
:1010F0009B2D0F900F90CF91DF910F91FF90EF906C
:10110000DF90BF90AF900895FF920F931F93F82E3A
:10111000CB01642F0E9411088C018F2D61E070E0DB
:101120000E9481069C01202B312B822F932F1F912F
:101130000F91FF90089561E070E00E94810608958C
:101140006F927F928F929F92AF92BF92CF92DF92D7
:10115000EF92FF920F931F93CF93DF937B018C014C
:10116000992354F48DE20E949B0866277727CB01D0
:101170006E197F09800B910B99242AE030E040E042
:1011800050E00E94B511822F932FA42FB52FBC01E0
:10119000CD019394611571058105910571F7992031
:1011A00009F44CC057016801112344F4D094C09451
:1011B000B094A094A11CB11CC11CD11CC0E0D0E013
:1011C0007724739466240F2EFAE08F2EF02D2CC016
:1011D000272D662D289D202D11246F5F862F90E0EE
:1011E00084179507BCF3E22EFF2400E010E0C6014F
:1011F000B501A80197010E94B511822F805D0E9460
:101200009B08C82BD92B9A94D9F0C601B501A80127
:1012100097010E94B511372F482F592F862F932FF2
:10122000A42FB52F5C016D01892D90E0AC014150D8
:1012300050401416150664F2272DD5CFC0E0D0E03B
:101240008C2F9D2FDF91CF911F910F91FF90EF90E9
:10125000DF90CF90BF90AF909F908F907F906F90D6
:101260000895CF92DF92EF92FF920F931F936B013D
:101270007C01CA01622F0E9411088C01C701B601CE
:101280000E94A0089C01202B312B822F932F1F91AD
:101290000F91FF90EF90DF90CF9008956F927F9223
:1012A0008F929F92AF92BF92CF92DF92EF92FF9276
:1012B0000F931F93CF93DF935B016C01E42E20E02B
:1012C00030E040E050E00E948F0388231CF0C0E033
:1012D000D0E008C08DE20E949B08EC01D7FAD094C0
:1012E000D7F8D094C601B5010E945F003B014C01C4
:1012F0000E9413049B01AC01C601B5010E94D701F5
:101300005B016C01EE2071F000E0C601B50120E048
:1013100030E040E251E40E9435025B016C010F5F56
:101320000E1598F3C401B3010E94A0087C018EE25F
:101330000E949B088C01C601B5010E94BF030E9458
:10134000A0080E291F29082B192B0C2B1D2B802FD1
:10135000912FDF91CF911F910F91FF90EF90DF9030
:10136000CF90BF90AF909F908F907F906F90089597
:10137000BF92CF92DF92EF92FF920F931F936B0178
:101380007C01B42EC901602F0E9411088C01C70195
:10139000B6014B2D0E944E099C01202B312B822F30
:1013A000932F1F910F91FF90EF90DF90CF90BF9000
:1013B0000895EF92FF921F93CF93DF937C01FC017E
:1013C0008081882319F4C0E0D0E00EC010E0C0E0B6
:1013D000D0E00E949B08C82BD92B1F5FF701E10FBB
:1013E000F11D80818823A9F78C2F9D2FDF91CF914C
:1013F0001F91FF90EF900895EF92FF920F931F932C
:101400007C01CB01642F0E9411088C01C7010E944E
:10141000D9099C01202B312B822F932F1F910F91E3
:10142000FF90EF9008954F925F926F927F928F920C
:101430009F92AF92BF92CF92DF92EF92FF920F9363
:101440001F932CE231E040E951E0CA010197F1F726
:1014500021503040D1F788E360E070E00E948106BF
:101460002C0180E190E40197F1F788E360E070E0FF
:101470000E9481068C0180E991E00197F1F788E3F1
:1014800060E070E00E9481063C0185E08A95F1F7FA
:1014900081E060E070E00E9481064C0182E060E043
:1014A00070E00E9481065C018091210260E070E0A2
:1014B0000E9481066C0186E060E070E00E94810677
:1014C0007C0188E260E070E00E9481060429152911
:1014D00006291729082919290A291B290C291D2938
:1014E0000E291F29082B192B802F912F1F910F9147
:1014F000FF90EF90DF90CF90BF90AF909F908F9034
:101500007F906F905F904F900895EF92FF920F93AE
:101510001F93CF93DF938C017B016115710519F443
:10152000C4E0D0E053C08FEFFB01808380913E0385
:10153000882319F4C0E0D0E049C0C0E0D0E060E00A
:10154000A0E3B2E070913E03462F50E0CA01880F3D
:10155000991F9A01220F331F220F331F220F331FAF
:10156000820F931FFD01E80FF91F80819181801781
:10157000910741F5CA01880F991F880F991F840FA1
:10158000951F0196880F991FFD01E80FF91F8081B3
:1015900091810897B0F4CA01880F991F9A01220F10
:1015A000331F220F331F220F331F820F931FFD01A2
:1015B000E80FF91F84819581079718F4F70160837C
:1015C00001C0C0686F5F671708F4BECF8C2F9D2FD6
:1015D000DF91CF911F910F91FF90EF9008950F939E
:1015E0001F93DF93CF930F92CDB7DEB7182F062F3F
:1015F0008FEF8983812FBE016F5F7F4F0E94850A25
:10160000DC010097A1F5898188238CF1992787FD5A
:101610009095FC01EE0FFF1F880F991F880F991FEF
:10162000880F991FE80FF91FEC5CFD4F0190F081C6
:10163000E02DEE0FFF1FEC5EFC4F0190F081E02DDE
:101640004081202F30E02F703070012E02C0220F19
:10165000331F0A94E2F78FE090E002C0880F991FD1
:101660001A95E2F780958423822B808301C0A068BD
:101670008A2F9B2F0F90CF91DF911F910F9108958B
:101680000F931F93DF93CF930F92CDB7DEB78B01EC
:101690002FEF2983BE016F5F7F4F0E94850A9C0157
:1016A000009739F58981882324F10230110508F566
:1016B000992787FD9095FC01EE0FFF1F880F991F5A
:1016C000880F991F880F991FE80FF91FEC5CFD4FD9
:1016D0000190F081E02DEE0FFF1FEE5DFC4F0190B9
:1016E000F081E02D012B11F480E001C08FEF8083A9
:1016F00001C02068822F932F0F90CF91DF911F910F
:101700000F9108950F931F93DF93CF930F92CDB74F
:10171000DEB78B012FEF2983BE016F5F7F4F0E94E1
:10172000850A9C01009739F58981882324F10230CC
:10173000110508F5992787FD9095FC01EE0FFF1F15
:10174000880F991F880F991F880F991FE80FF91F9D
:10175000EC5CFD4F0190F081E02DEE0FFF1FEC5E81
:10176000FC4F0190F081E02D012B11F480E001C0CD
:101770008FEF808301C02068822F932F0F90CF912D
:10178000DF911F910F9108950F931F93DF93CF93D4
:101790000F92CDB7DEB79C018B016115710519F46D
:1017A00024E030E02DC08FEF8983C901BE016F5F57
:1017B0007F4F0E94850A9C01009709F58981882343
:1017C000F4F0992787FD9095FC01EE0FFF1F880F1D
:1017D000991F880F991F880F991FE80FF91FEC5C5C
:1017E000FD4F0190F081E02DEE0FFF1FE05DFC4FFB
:1017F0000190F081E02D8081F801808301C0206894
:10180000822F932F0F90CF91DF911F910F91089509
:10181000DF93CF930F92CDB7DEB72FEF2983BE01B1
:101820006F5F7F4F0E94850A9C01009709F58981AF
:101830008823F4F0992787FD9095FC01EE0FFF1F98
:10184000880F991F880F991F880F991FE80FF91F9C
:10185000EC5CFD4F0190F081E02DEE0FFF1FEC5E80
:10186000FC4F0190F081E02D80818095808301C044
:101870002068822F932F0F90CF91DF9108951F93AF
:10188000DF93CF930F92CDB7DEB7162F2FEF2983BB
:10189000BE016F5F7F4F0E94850A9C010097F9F49B
:1018A00089818823E4F0992787FD9095FC01EE0F4C
:1018B000FF1F880F991F880F991F880F991FE80F26
:1018C000F91FEC5CFD4F0190F081E02DEE0FFF1F42
:1018D000EC5EFC4F0190F081E02D108301C0206888
:1018E000822F932F0F90CF91DF911F9108950F9327
:1018F0001F93DF93CF930F92CDB7DEB78B012FEFFE
:101900002983BE016F5F7F4F0E94850ABC0100974B
:1019100009F079C0498144230CF475C002301105E7
:1019200008F071C0012BB9F1552747FD5095A0E390
:10193000B2E0CA01880F991F9A01220F331F220FAC
:10194000331F220F331F820F931FFD01E80FF91F72
:101950000480F581E02DEE0FFF1FEC5EFC4F01903F
:10196000F081E02D2081CA01880F991F880F991FEF
:10197000840F951F0196880F991FA80FB91F81E04A
:1019800090E00C9002C0880F991F0A94E2F7282B70
:101990002083E08139C0552747FD5095A0E3B2E090
:1019A000CA01880F991F9A01220F331F220F331F7C
:1019B000220F331F820F931FFD01E80FF91F0480D0
:1019C000F581E02DEE0FFF1FEC5EFC4F0190F081E2
:1019D000E02D2081CA01880F991F880F991F840F5D
:1019E000951F0196880F991FA80FB91F81E090E0FD
:1019F0000C9002C0880F991F0A94E2F78095822309
:101A00008083E08101C06068862F972F0F90CF916F
:101A1000DF911F910F9108950F931F93DF93CF9341
:101A20000F92CDB7DEB78B012FEF2983BE016F5F19
:101A30007F4F0E94850ABC010097D9F54981442354
:101A4000C4F1552747FD5095A0E3B2E0CA01880FC5
:101A5000991F9A01220F331F220F331F220F331FAA
:101A6000820F931FFD01E80FF91F0480F581E02D1F
:101A7000EE0FFF1FE05DFC4F0190F081E02D208113
:101A800030E0CA01880F991F880F991F840F951F96
:101A90000196880F991FA80FB91F0C9002C03595A9
:101AA00027950A94E2F721703070F8013183208382
:101AB00001C06068862F972F0F90CF91DF911F9103
:101AC0000F910895DF93CF930F92CDB7DEB72FEF2D
:101AD0002983BE016F5F7F4F0E94850ABC0100977A
:101AE000C9F549814423B4F1552747FD5095A0E33A
:101AF000B2E0CA01880F991F9A01220F331F220FEB
:101B0000331F220F331F820F931FFD01E80FF91FB0
:101B10000480F581E02DEE0FFF1FEC5EFC4F01907D
:101B2000F081E02D2081CA01880F991F880F991F2D
:101B3000840F951F0196880F991FA80FB91F81E088
:101B400090E00C9002C0880F991F0A94E2F72827B2
:101B5000208301C06068862F972F0F90CF91DF916F
:101B600008950F931F93DF93CF930F92CDB7DEB7F6
:101B70008B012FEF2983BE016F5F7F4F0E94850A83
:101B8000BC01009709F075C0498144230CF471C071
:101B9000012BB9F1552747FD5095A0E3B2E0CA01EA
:101BA000880F991F9A01220F331F220F331F220F14
:101BB000331F820F931FFD01E80FF91F0480F58189
:101BC000E02DEE0FFF1FEC5EFC4F0190F081E02D49
:101BD0002081CA01880F991F880F991F840F951FB4
:101BE0000196880F991FA80FB91F81E090E00C9013
:101BF00002C0880F991F0A94E2F7282B2083E08106
:101C000039C0552747FD5095A0E3B2E0CA01880FBF
:101C1000991F9A01220F331F220F331F220F331FE8
:101C2000820F931FFD01E80FF91F0480F581E02D5D
:101C3000EE0FFF1FEC5EFC4F0190F081E02D208144
:101C4000CA01880F991F880F991F840F951F01964D
:101C5000880F991FA80FB91F81E090E00C9002C077
:101C6000880F991F0A94E2F7809582238083E08190
:101C700001C06068862F972F0F90CF91DF911F9141
:101C80000F9108950F931F93DF93CF930F92CDB7CA
:101C9000DEB78B012FEF2983BE016F5F7F4F0E945C
:101CA000850ABC01009709F075C0498144230CF4F2
:101CB00071C0012BB9F1552747FD5095A0E3B2E063
:101CC000CA01880F991F9A01220F331F220F331F59
:101CD000220F331F820F931FFD01E80FF91F0480AD
:101CE000F581E02DEE0FFF1FEE5DFC4F0190F081BE
:101CF000E02D2081CA01880F991F880F991F840F3A
:101D0000951F0196880F991FA80FB91F81E090E0D9
:101D10000C9002C0880F991F0A94E2F7282B2083A9
:101D2000E08139C0552747FD5095A0E3B2E0CA01D4
:101D3000880F991F9A01220F331F220F331F220F82
:101D4000331F820F931FFD01E80FF91F0480F581F7
:101D5000E02DEE0FFF1FEE5DFC4F0190F081E02DB6
:101D60002081CA01880F991F880F991F840F951F22
:101D70000196880F991FA80FB91F81E090E00C9081
:101D800002C0880F991F0A94E2F78095822380830E
:101D9000E08101C06068862F972F0F90CF91DF916F
:101DA0001F910F910895CF92DF92EF92FF920F93C0
:101DB0001F937C016A010E94420E8C01C701B6018B
:101DC0000E94770C9C01202B312B822F932F1F9187
:101DD0000F91FF90EF90DF90CF9008950F931F9396
:101DE000CF93DF9300913E03002379F0C0E3D2E06C
:101DF00010E06E817F8148855985888199810E9494
:101E0000D30E1F5F2A961017A0F380E090E0DF91B9
:101E1000CF911F910F91089580E090E008958093F5
:101E2000EE0280E090E008952F923F924F925F92F1
:101E30006F927F928F929F92AF92BF92CF92DF92DA
:101E4000EF92FF920F931F93DF93CF93CDB7DEB73F
:101E50002C970FB6F894DEBF0FBECDBFDC017C8798
:101E60006B87672B19F464E070E0C0C11A82198295
:101E7000EB85FC85108210911303112309F4B1C185
:101E80008091EF029091F0028A179B0789F500E09C
:101E900040E050E018C0402F50E0CA01880F991F61
:101EA000880F991F9C01220F331F220F331F220F0F
:101EB000331F820F931FFB01E80FF91F808191816F
:101EC0008A179B07C1F4FA01EE0FFF1FCF01880F9D
:101ED000991F880F991F880F991FE80FF91FEE0FA0
:101EE000FF1FEF50FD4F80819181019739F479C137
:101EF00000E06FEE72E00F5F011768F2011709F45E
:101F000070C11C821B82202F30E03E832D83C901CB
:101F1000880F991F880F991F880F991F820F931F91
:101F2000880F991F880F991F0F2EF3EF8F2EF2E065
:101F30009F2EF02D880E991E00E010E0AA24BB24ED
:101F4000C901880F991F880F991F9C01220F331F09
:101F5000220F331F220F331F820F931F0F2EFBEF11
:101F60002F2EF2E03F2EF02D280E391E0F2EF3E01B
:101F70006F2E7724F02D6C0E7D1ECA2C2501F401E6
:101F80008081918160E070E00E94B10D7801E82AC3
:101F9000F92A8101DD24F80180819181B3010E9439
:101FA0000C0DE82AF92A8B819C81892B51F0E114D0
:101FB000F10439F4D3940E5F1F4FF4E0DF1659F7A4
:101FC00030C1ED81FE81EE0FFF1FCF01880F991FF9
:101FD000880F991F880F991FE80FF91FE40DF51D51
:101FE000EE0FFF1FED50FD4F8081918161E070E0A9
:101FF0000E94B10D8E299F29892B09F0F5C04C2D27
:102000004F3F09F4F1C02FEFD21609F4EDC02C2C8C
:10201000332427FC30940D811E81000F111FC8014D
:10202000880F991F880F991F880F991F080F191F74
:10203000C801820D931D02960F2EFFEEEF2EF2E0E7
:10204000FF2EF02D880F991FF701E80FF91F8081EF
:10205000918160E070E00E94B10D9A8789878D2D93
:10206000992787FD909598878F83080F191F0A5F1E
:102070001F4F000F111FE00EF11EF701E080F180ED
:10208000C701BE016F5F7F4F0E940C0D8C018981DB
:102090009A81892B09F063C06091EE0270E080E0C4
:1020A00090E00E9413042B013C0120E030E04AE75D
:1020B00055E40E9435024B015C0120E030E040E82D
:1020C0005FE30E948F0388231CF461E070E023C06B
:1020D000C501B40120E03FEF4FE757E40E942F0312
:1020E0001816ACF4C301B20120E030E040E251E444
:1020F0000E9435020E945F00CB01672B79F020E936
:1021000031E0F9013197F1F70197D9F707C0C5011F
:10211000B4010E945F00CB010197F1F7C701BE0136
:102120006F5F7F4F0E940C0D9C0189819A81892BE2
:10213000B1F4022B132B6E010894C11CD11CC701F2
:10214000B6010E940C0D9C0189819A81892B29F48A
:10215000022B132B0115110591F31A821982ED81BF
:10216000FE81EE0FFF1FCF01880F991F880F991F67
:10217000880F991FE80FF91FE20DF31DEE0FFF1FE7
:10218000ED50FD4F8081918161E070E00E94B10DC2
:1021900069857A85682B792B89819A81892B31F51C
:1021A000A101440F551F440F551F8D819E81880F3B
:1021B000991F880F991F9C01220F331F220F331F75
:1021C000220F331F820F931F480F591FEF81F8858D
:1021D000E40FF51FED5FFC4F8081EB85FC8580836C
:1021E00005C060E870E002C060E070E0862F972FC5
:1021F0002C960FB6F894DEBF0FBECDBFCF91DF9106
:102200001F910F91FF90EF90DF90CF90BF90AF9014
:102210009F908F907F906F905F904F903F902F9006
:102220000895F401819191914F0161E070E00E9465
:10223000B10D8C012C2D2F5F0894A11CB11CF4E072
:10224000AF16B10409F099CEED81FE81EE0FFF1FAC
:10225000CF01880F991F880F991F880F991FE80FCA
:10226000F91FE20FF11DEE0FFF1FED50FD4F8081B2
:10227000918161E070E00E94B10D60E070E0B6CF46
:102280000F931F93CF93DF938C01EB0161157105C1
:1022900019F424E030E00BC0C801BE010E94140F05
:1022A0009C018881882319F421153105A9F3822F17
:1022B000932FDF91CF911F910F910895CF92DF92CD
:1022C000EF92FF920F931F93DF93CF930F92CDB7AF
:1022D000DEB719820E94EE0E0E94130A0E940C0FB4
:1022E0000E9427080E94210880E091E00E94D909FD
:1022F00063EC75EF88E490E442E00E944E090E948E
:10230000D3078E010F5F1F4F0F2EFBE0CF2EF1E0A2
:10231000DF2EF02D0F2EF1E1EF2EF1E0FF2EF02D4C
:1023200080E090E0B8010E94140F89818823C1F3F6
:102330000E9427080E942108C60160E070E040E08A
:102340000E94FC0989810E949B08C70161E070E03E
:1023500040E00E94FC09698170E080E090E00E940A
:10236000A00819820E94C907DBCF97FB092E05261A
:102370000ED057FD04D014D00AD0001C38F450956C
:102380004095309521953F4F4F4F5F4F0895F6F799
:1023900090958095709561957F4F8F4F9F4F0895D1
:1023A000A1E21A2EAA1BBB1BFD010DC0AA1FBB1F59
:1023B000EE1FFF1FA217B307E407F50720F0A21BCB
:1023C000B30BE40BF50B661F771F881F991F1A9438
:1023D00069F760957095809590959B01AC01BD0162
:1023E000CF0108952F923F924F925F926F927F920A
:1023F0008F929F92AF92BF92CF92DF92EF92FF9215
:102400000F931F93CF93DF93CDB7DEB7CA1BDB0BC0
:102410000FB6F894DEBF0FBECDBF09942A88398865
:1024200048885F846E847D848C849B84AA84B9846C
:10243000C884DF80EE80FD800C811B81AA81B98178
:10244000CE0FD11D0FB6F894DEBF0FBECDBFED018C
:062450000895F894FFCF8F
:1024560057656C636F6D6520746F004B65793A2024
:102466000041534349493A200000000000000000A3
:102476000000010202030303030404040404040429
:1024860004050505050505050505050505050505F7
:1024960005060606060606060606060606060606D7
:1024A60006060606060606060606060606060606C6
:1024B60006070707070707070707070707070707A7
:1024C6000707070707070707070707070707070796
:1024D6000707070707070707070707070707070786
:1024E6000707070707070707070707070707070776
:1024F6000708080808080808080808080808080857
:102506000808080808080808080808080808080845
:102516000808080808080808080808080808080835
:102526000808080808080808080808080808080825
:102536000808080808080808080808080808080815
:102546000808080808080808080808080808080805
:1025560008080808080808080808080808080808F5
:1025660008080808080808080808080808080808E5
:10257600080C08000A000900040005000600070010
:10258600080001000100010000000900020001002E
:10259600010000000A000300010001000000000025
:1025A6000000000001000000010001000000010021
:1025B600000002000200000001000000030003000A
:1025C60000000100000004000400000001000000FB
:1025D60005000500000001000000060006000000DE
:1025E60001000000070007000000010000000B00CA
:1025F60000000300010000000C00010003000100C0
:1026060000000D0002000300010000000E000300A0
:102616000300010000000F00040003000000010099
:102626001000050003000000010011000600030071
:1026360000000100120007000300000001001E0058
:102646000000000B000C000D000E000F0010001122
:102656000012003132334134353642373839432A95
:10266600302344013B00380035003200230062006D
:1026760065003A0037003400310022006100640032
:1026860039003600330030002100200063001300BB
:00000001FF
