:100000000C942A000C943F000C943F000C943F0089
:100010000C943F000C943F000C943F000C943F0064
:100020000C943F000C943F000C943F000C943F0054
:100030000C943F000C943F000C943F000C943F0044
:100040000C943F000C943F000C943F000C943F0034
:100050000C943F0011241FBECFE5D8E0DEBFCDBF1A
:1000600010E0A0E6B0E0E2E8FAE002C005900D92F0
:10007000A63EB107D9F70E9411050C943F050C94D8
:100080000000DC014D915C91119748305105D8F585
:100090001296ED91FC911397E430F105A0F51496BA
:1000A0008D919C9115978230910568F5892BA9F067
:1000B000EE0FFF1FE859FF4F0190F081E02D2081E6
:1000C00081E090E002C0880F991F4A95E2F7282B43
:1000D0002083E08120E030E018C0EE0FFF1FE859D8
:1000E000FF4F0190F081E02D208181E090E002C07F
:1000F000880F991F4A95E2F7809582238083E081DB
:1001000020E030E002C020E830E0822F932F0895F5
:10011000DC018830910590F56430710578F5452B48
:10012000B1F0FB01EE0FFF1FE05AFF4F0190F0818D
:10013000E02D208181E090E002C0880F991FAA95F0
:10014000E2F7282B2083608120E030E019C0FB011A
:10015000EE0FFF1FE05AFF4F0190F081E02D20814C
:1001600081E090E002C0880F991FAA95E2F7809580
:1001700082238083608120E030E002C020E830E00C
:10018000822F932F0895AC0188309105C0F464301C
:100190007105A8F4FB01EE0FFF1FE05AFF4F01901D
:1001A000F081E02D208181E090E002C0880F991F4E
:1001B0004A95E2F72827208320E030E002C020E8BB
:1001C00030E0822F932F08959C01DA018830910549
:1001D000E0F464307105C8F441155105B1F0FB013C
:1001E000EE0FFF1FE059FF4F0190F081E02D80815D
:1001F00090E002C0959587952A95E2F781709070FE
:100200008D939C9320E030E002C020E830E0822F04
:10021000932F08958430910518F020E830E00BC04A
:10022000FC01EE0FFF1FE05AFF4F0190F081E02D1F
:10023000608320E030E0822F932F08958430910571
:1002400018F020E830E00DC0FC01EE0FFF1FE05A6F
:10025000FF4F0190F081E02D80818095808320E028
:1002600030E0822F932F08958430910518F020E814
:1002700030E010C0FC01EE0FFF1FE05AFF4F01906D
:10028000F081E02D8081807F962F9F70892B808365
:1002900020E030E0822F932F08958430910518F0EC
:1002A00020E830E011C0FC01EE0FFF1FE05AFF4FC5
:1002B0000190F081E02D90819F70862F8295807F44
:1002C000892B808320E030E0822F932F0895242F04
:1002D0006430710518F58830910500F5FB01EE0FCB
:1002E000FF1FE05AFF4F0190F081E02D5081482F11
:1002F00030E02F70307002C0220F331F8A95E2F772
:100300008FE090E002C0880F991F4A95E2F7809530
:100310008523822B808320E030E002C020E830E09B
:10032000822F932F0895DB016115710519F424E0E4
:1003300030E012C08430910518F020E830E00CC0A5
:10034000FC01EE0FFF1FE059FF4F0190F081E02DFF
:1003500080818C9320E030E0822F932F08958430A9
:100360009105A0F46230710588F4FC01EE0FFF1FC7
:10037000E05AFF4F0190F081E02D672B11F480E0EF
:1003800001C08FEF808320E030E002C020E230E047
:10039000822F932F089584309105A0F46230710567
:1003A00088F4FC01EE0FFF1FE859FF4F0190F08128
:1003B000E02D672B11F480E001C08FEF808320E0F7
:1003C00030E002C020E230E0822F932F0895DC015C
:1003D0004D915C91119748305105D8F51296ED91E9
:1003E000FC911397E430F105A0F514968D919C9142
:1003F00015978230910568F5892BA9F0EE0FFF1F44
:10040000E05AFF4F0190F081E02D208181E090E0E3
:1004100002C0880F991F4A95E2F7282B2083E081BC
:1004200020E030E018C0EE0FFF1FE05AFF4F0190B0
:10043000F081E02D208181E090E002C0880F991FBB
:100440004A95E2F7809582238083E08120E030E0C6
:1004500002C020E830E0822F932F08957F928F9280
:100460009F92AF92BF92CF92DF92EF92FF920F9343
:10047000DF93CF93CDB7DEB72E970FB6F894DEBFDC
:100480000FBECDBF7090D800772019F4CC24DD24A6
:1004900043C00F2EF8E7EF2EF0E0FF2EF02DCC2416
:1004A000DD2400E00F2EF7E08F2E9924F02D8C0E26
:1004B0009D1E5E010894A11CB11CF70122813381AD
:1004C000448155818081918198878F833A872987DC
:1004D0005C874B87C4010E9441009E878D87F7018E
:1004E0002281338146815781808191819A838983DA
:1004F0003C832B835E834D83C5010E94E7012D85DC
:100500003E85822B932BC82AD92A0F5F88E090E082
:10051000E80EF91E071588F28C2D9D2D2E960FB62C
:10052000F894DEBF0FBECDBFCF91DF910F91FF904A
:10053000EF90DF90CF90BF90AF909F908F907F9083
:1005400008952F923F924F925F926F927F928F9277
:100550009F92AF92BF92CF92DF92EF92FF920F9352
:100560001F93F82E81E090E061E070E040E050E001
:100570000E9488001C0182E090E061E070E041E0B0
:1005800050E00E9488008C0183E090E061E070E020
:1005900040E050E00E9488002C014F2D42954F70A2
:1005A00084E090E060E070E00E9467013C0182E03E
:1005B00090E061E070E040E050E00E9488004C0173
:1005C0000F2EF0EAAF2EFFE0BF2EF02DC5010197F0
:1005D000F1F782E090E061E070E041E050E00E94DD
:1005E00088006C0184E090E060E070E04F2D0E9494
:1005F00067017C0182E090E061E070E040E050E063
:100600000E9488000229132904291529062917297F
:10061000082919290C291D290E291F29F5013197AF
:10062000F1F7082B192B802F912F1F910F91FF901D
:10063000EF90DF90CF90BF90AF909F908F907F9082
:100640006F905F904F903F902F90089560580024D6
:10065000969587950794969587950794982F802D62
:10066000860F0E94A102089581E00E94A1020895D0
:100670002F923F924F925F926F927F928F929F92B2
:10068000AF92BF92CF92DF92EF92FF920F931F93A0
:10069000F82E81E090E061E070E041E050E00E94DF
:1006A00088001C0182E090E061E070E041E050E0F1
:1006B0000E9488008C0183E090E061E070E040E0FF
:1006C00050E00E9488002C014F2D45954595459599
:1006D000459584E090E060E070E00E9467013C0195
:1006E00082E090E061E070E040E050E00E9488002D
:1006F0004C010F2EF0EAAF2EFFE0BF2EF02DC5010A
:100700000197F1F782E090E061E070E041E050E0B5
:100710000E9488006C0184E090E060E070E04F2D62
:100720000E9467017C0182E090E061E070E040E0BF
:1007300050E00E948800022913290429152906295E
:100740001729082919290C291D290E291F29F50106
:100750003197F1F7082B192B802F912F1F910F91B3
:10076000FF90EF90DF90CF90BF90AF909F908F90D1
:100770007F906F905F904F903F902F9008950E94D0
:1007800038030895EF92FF921F93CF93DF937C017C
:10079000FC018081882319F4C0E0D0E00EC0C0E0E5
:1007A000D0E010E00E94BF03C82BD92B1F5FF701D8
:1007B000E10FF11D80818823A9F78C2F9D2FDF91F8
:1007C000CF911F91FF90EF9008951F93182FCB01A9
:1007D000642F0E942603812F0E9438031F910895E1
:1007E000CF92DF92EF92FF920F931F93CF93DF93FD
:1007F0007C016B01042FFC018081882319F4C0E087
:10080000D0E011C0C0E0D0E010E0412F400FB601B1
:100810000E94E503C82BD92B1F5FF701E10FF11DE3
:100820008081882391F78C2F9D2FDF91CF911F918D
:100830000F91FF90EF90DF90CF9008952F923F920D
:100840004F925F926F927F928F929F92AF92BF92E0
:10085000CF92DF92EF92FF920F931F93DF93CF938C
:10086000CDB7DEB72E970FB6F894DEBF0FBECDBF63
:1008700081E090E061E070E040E050E00E9488009C
:100880009C878B8782E090E061E070E041E050E07F
:100890000E9488008C0183E090E061E070E040E01D
:1008A00050E00E9488009A87898780E69AEE019737
:1008B000F1F782E090E061E070E041E050E00E94FA
:1008C000880098878F8384E090E060E070E043E0E8
:1008D0000E9467019E838D8382E090E061E070E07A
:1008E00040E050E00E9488009C838B830F2EF0EA4A
:1008F000EF2EFFE0FF2EF02DC7010197F1F782E008
:1009000090E061E070E041E050E00E9488009A834E
:10091000898384E090E060E070E043E00E9467013A
:100920009E878D8782E090E061E070E040E050E0DB
:100930000E9488001C01C7010197F1F782E090E056
:1009400061E070E041E050E00E9488002C0184E00A
:1009500090E060E070E043E00E9467013C0182E0CB
:1009600090E061E070E040E050E00E9488004C01BF
:10097000C7010197F1F788E20E94A1025C018CE0B7
:100980000E94A1026C0181E00E94A1027C0186E02C
:100990000E94A1022B853C85022B132BE985FA8549
:1009A0000E2B1F2B2F813885022B132BED81FE81FF
:1009B0000E2B1F2B2B813C81022B132BE981FA81FB
:1009C0000E2B1F2B2D853E85022B132B022913295D
:1009D0000429152906291729082919290A291B2953
:1009E0000C291D290E291F29082B192B802F912F27
:1009F0002E960FB6F894DEBF0FBECDBFCF91DF911C
:100A00001F910F91FF90EF90DF90CF90BF90AF902C
:100A10009F908F907F906F905F904F903F902F901E
:100A20000895EF92FF920F931F93CF93DF930E944D
:100A30002E020E941E0409ED10E00F2EF0E1EF2EB1
:100A4000F7E2FF2EF02DC8ECD0E0C8010E94C203EF
:100A50009701CE010197F1F721503040D1F7C8013D
:100A600061E070E040E00E94F0039701CE01019741
:100A7000F1F721503040D1F70E943403E6CFF894CB
:020A8000FFCFA6
:100A82003B003800350032003A00370034003100B4
:100A9200390036003300300001000100010000007F
:100AA200020001000100000003000100010000003B
:100AB2000000000001000000010000000100000031
:100AC200020000000100000003000000010000001D
:100AD2000400000001000000050000000100000009
:100AE20006000000010000000700000001000000F5
:100AF20000000200010000000C48656C6C6F20577A
:060B02006F726C6400003C
:00000001FF
