:100000000C9446000C945D000C945D000C945D0013
:100010000C945D000C945D000C945D000C945D00EC
:100020000C945D000C945D000C945D000C945D00DC
:100030000C945D000C945D000C945D000C945D00CC
:100040000C945D000C945D000C945D000C945D00BC
:100050000C945D000C945D000C945D000C945D00AC
:100060000C945D000C945D000C945D000C945D009C
:100070000C945D000C945D000C945D000C945D008C
:100080000C945D000C945D000C945D0011241FBE67
:10009000CFEFD0E1DEBFCDBF12E0A0E0B1E0ECEAEF
:1000A000FBE100E00BBF02C007900D92A23DB1073B
:1000B000D9F70E944D0D0C94D40D0C940000EF92D2
:1000C000FF920F931F937B018C0120E030E040E012
:1000D0005FE40E945F0388238CF0C801B70120E031
:1000E00030E040E05FE40E94D7010E941D049B01C4
:1000F000AC01205030404040504806C0C801B70114
:100100000E941D049B01AC01B901CA011F910F910E
:10011000FF90EF900895A0E0B0E0E1E9F0E00C94EA
:100120009D0DDC012B01FA019C91923008F439C13C
:10013000EB018881823008F433C1943069F4843053
:1001400009F02FC111969C9111978981981709F494
:1001500028C1AAE1B1E025C1843009F421C182306F
:10016000A9F4923009F01DC19A01AD0188E0EA01BD
:100170000990AE01E90109929E018150C1F7E201A7
:10018000898111969C918923818308C1923009F459
:1001900007C112962D903C901397EB018A819B81A9
:1001A0001496AD90BD90CD90DC901797EC80FD80BB
:1001B0000E811F819101281B390BB90137FF04C043
:1001C00066277727621B730B603271050CF061C0E4
:1001D000121613066CF537014801062E04C09694DA
:1001E0008794779467940A94D2F721E030E040E056
:1001F00050E004C0220F331F441F551F6A95D2F7E9
:1002000021503040404050402E213F214023512377
:10021000211531054105510521F021E030E040E094
:1002200050E079018A01E628F728082919293CC0FD
:10023000232BD1F1260E371E35014601062E04C0B0
:1002400096948794779467940A94D2F721E030E0EB
:1002500040E050E004C0220F331F441F551F6A9531
:10026000D2F721503040404050402A213B214C21C0
:100270005D21211531054105510521F021E030E0D6
:1002800040E050E059016A01A628B728C828D928BB
:100290000BC0821593052CF01C01AA24BB24650118
:1002A00003C0EE24FF24870111969C91D201119680
:1002B0008C91981709F445C0992339F0A80197014A
:1002C0002A193B094C095D0906C0A60195012E19A2
:1002D0003F09400B510B57FD08C011823382228227
:1002E00024833583468357831DC081E08183338215
:1002F000228288279927DC01821B930BA40BB50B64
:1003000084839583A683B7830DC0220F331F441FB8
:10031000551F2483358346835783828193810197B8
:10032000938382832481358146815781DA01C90113
:100330000197A109B1098F5F9F4FAF4FBF4328F3CA
:100340000BC0918333822282EA0CFB1C0C1D1D1D05
:10035000E482F5820683178383E0808324813581DC
:100360004681578157FF1AC0C901AA2797FDA0955A
:10037000BA2F81709070A070B070569547953795E0
:100380002795822B932BA42BB52B84839583A6834F
:10039000B78382819381019693838283DF0101C0B9
:1003A000D201CD01CDB7DEB7E2E10C94B90DA0E2E8
:1003B000B0E0EDEDF1E00C94A90D69837A838B83B5
:1003C0009C832D833E834F835887E9E0EE2EF12CEA
:1003D000EC0EFD1ECE010196B7010E940E068E01A5
:1003E0000F5E1F4FCE010596B8010E940E068A8946
:1003F00091E089278A8BC701B801AE01475E5F4F44
:100400000E948B000E943905A096E6E00C94C50D71
:10041000A0E2B0E0EEE0F2E00C94A90D69837A83EB
:100420008B839C832D833E834F835887F9E0EF2E87
:10043000F12CEC0EFD1ECE010196B7010E940E06B6
:100440008E010F5E1F4FCE010596B8010E940E0669
:10045000C701B801AE01475E5F4F0E948B000E944A
:100460003905A096E6E00C94C50DA0E2B0E0EBE300
:10047000F2E00C949D0D69837A838B839C832D839A
:100480003E834F835887CE010196BE01675F7F4F41
:100490000E940E06CE010596BE016F5E7F4F0E9440
:1004A0000E069985923088F089898230C8F09430A0
:1004B00019F4823051F404C0843029F4923081F46C
:1004C0008AE191E0C6C0923049F420E09A858A8999
:1004D000981321E02A87CE010996BBC0823049F4E7
:1004E00020E09A858A89981321E02A8BCE014196D3
:1004F000B0C02D843E844F8458886D887E888F8854
:10050000988CEE24FF248701AA24BB24650140E0D7
:1005100050E060E070E0E0E0F0E0C10181709070D8
:10052000892BE9F0E60CF71C081D191D9A01AB0197
:100530002A0D3B1D4C1D5D1D80E090E0A0E0B0E069
:10054000E614F7040805190520F481E090E0A0E026
:10055000B0E0BA01A901480F591F6A1F7B1FAA0CFE
:10056000BB1CCC1CDD1C97FE08C081E090E0A0E025
:10057000B0E0A82AB92ACA2ADB2A3196E032F1056E
:1005800049F0660C771C881C991C56944794379444
:100590002794C3CFFA85EA892B893C898B859C8572
:1005A000280F391F2E5F3F4F17C0CA01817090700E
:1005B000892B61F016950795F794E79480E090E019
:1005C000A0E0B0E8E82AF92A0A2B1B2B769567955C
:1005D000579547952F5F3F4F77FDE7CF0CC0440FEE
:1005E000551F661F771F17FD4160EE0CFF1C001F93
:1005F000111F21503040403090E0590790E06907CA
:1006000090E4790760F32B8F3C8FDB01CA018F7771
:100610009070A070B07080349105A105B10561F4AF
:1006200047FD0AC0E114F1040105110529F0405C01
:100630005F4F6F4F7F4F40781A8EFE1711F081E0A9
:100640008A8F4D8F5E8F6F8F78A383E0898FCE0165
:1006500049960E943905A096E2E10C94B90DA8E1F3
:10066000B0E0E5E3F3E00C94A90D69837A838B8312
:100670009C832D833E834F83588789E0E82EF12C9D
:10068000EC0EFD1ECE010196B7010E940E068E01F2
:100690000F5E1F4FCE010596B8010E940E06898598
:1006A000823040F08989823028F0C701B8010E9469
:1006B000860601C081E06896E6E00C94C50DA8E1CD
:1006C000B0E0E5E6F3E00C94A90D69837A838B83AF
:1006D0009C832D833E834F83588789E0E82EF12C3D
:1006E000EC0EFD1ECE010196B7010E940E068E0192
:1006F0000F5E1F4FCE010596B8010E940E06898538
:10070000823040F08989823028F0C701B8010E9408
:10071000860601C08FEF6896E6E00C94C50DA8E14F
:10072000B0E0E5E9F3E00C94A90D69837A838B834B
:100730009C832D833E834F83588789E0E82EF12CDC
:10074000EC0EFD1ECE010196B7010E940E068E0131
:100750000F5E1F4FCE010596B8010E940E068985D7
:10076000823040F08989823028F0C701B8010E94A8
:10077000860601C081E06896E6E00C94C50DA8E00D
:10078000B0E0E5ECF3E00C94A60D9B01AC0183E036
:100790008983DA01C9018827B7FD83959927AA279C
:1007A000BB27B82E211531054105510519F482E00A
:1007B00089833AC08823A9F0203080E0380780E0A0
:1007C000480780E8580729F460E070E080E09FEC7B
:1007D00030C0EE24FF248701E21AF30A040B150B44
:1007E00002C079018A018EE1C82ED12CDC82CB8235
:1007F000ED82FE820F831887C801B7010E94EA04C8
:1008000001971816190684F4082E04C0EE0CFF1C7C
:10081000001F111F0A94D2F7ED82FE820F83188702
:10082000C81AD90ADC82CB82BA82CE0101960E9414
:1008300039052896E9E00C94C20DACE0B0E0E3E2A3
:10084000F4E00C94AD0D69837A838B839C83CE0195
:100850000196BE016B5F7F4F0E940E068D81823034
:1008600061F1823050F1843021F48E81882351F17E
:100870002EC02F81388537FD20C06E812F31310584
:100880001CF06623F9F023C08EE190E0821B930BED
:1008900029853A854B855C8504C0569547953795E3
:1008A00027958A95D2F76623B1F0509540953095FB
:1008B00021953F4F4F4F5F4F0EC020E030E040E0AA
:1008C00050E009C02FEF3FEF4FEF5FE704C020E09B
:1008D00030E040E050E8B901CA012C96E2E00C9407
:1008E000C90DA8E0B0E0E7E7F4E00C94A50D7B01AA
:1008F0008C01611571058105910519F482E08983E8
:1009000060C083E089838EE1C82ED12CDC82CB824B
:10091000ED82FE820F831887C801B7010E94EA04A6
:10092000FC013197F7FF3BC0222733272E1B3F0BDB
:1009300057016801022E04C0D694C794B794A794B7
:100940000A94D2F740E050E060E070E081E090E08F
:10095000A0E0B0E004C0880F991FAA1FBB1F2A9512
:10096000D2F70197A109B1098E219F21A023B123BC
:100970000097A105B10521F041E050E060E070E092
:100980004A295B296C297D294D835E836F83788793
:100990008EE190E08E1B9F0B9C838B8312C030975F
:1009A00081F00E2E04C0EE0CFF1C001F111F0A94D4
:1009B000D2F7ED82FE820F831887CE1ADF0ADC821F
:1009C000CB821A82CE0101960E9439052896EAE070
:1009D0000C94C10DEF92FF920F931F937B018C013A
:1009E00080E0E81680E0F80681E0080780E018075C
:1009F00088F48FEFE816F1040105110531F028F0B5
:100A000088E090E0A0E0B0E017C080E090E0A0E0D7
:100A1000B0E012C080E0E81680E0F80680E0080749
:100A200081E0180728F088E190E0A0E0B0E004C081
:100A300080E190E0A0E0B0E020E230E040E050E073
:100A4000281B390B4A0B5B0B04C016950795F794CE
:100A5000E7948A95D2F7F701EE5DFE4F8081281B5F
:100A6000310941095109C9011F910F91FF90EF9080
:100A70000895DF92EF92FF920F931F93FC01E480A1
:100A8000F58006811781D1808081823048F480E032
:100A900090E0A0E1B0E0E82AF92A0A2B1B2BA5C0C0
:100AA000843009F49FC0823021F4EE24FF248701B2
:100AB00005C0E114F1040105110519F4E0E0F0E0CE
:100AC00096C0628173819FEF623879070CF05BC03A
:100AD00022E83FEF261B370B2A3131052CF020E0AE
:100AE00030E040E050E02AC0B801A701022E04C067
:100AF00076956795579547950A94D2F781E090E0EF
:100B0000A0E0B0E004C0880F991FAA1FBB1F2A9560
:100B1000D2F70197A109B1098E219F21A023B1230A
:100B20000097A105B10521F081E090E0A0E0B0E0E0
:100B30009A01AB01282B392B4A2B5B2BDA01C90117
:100B40008F779070A070B07080349105A105B105C9
:100B500039F427FF09C0205C3F4F4F4F5F4F04C05F
:100B6000215C3F4F4F4F5F4FE0E0F0E02030A0E0CE
:100B70003A07A0E04A07A0E45A0710F0E1E0F0E0ED
:100B800079018A0127C06038710564F5FB01E158DD
:100B9000FF4FD801C7018F779070A070B07080347C
:100BA0009105A105B10539F4E7FE0DC080E490E0A0
:100BB000A0E0B0E004C08FE390E0A0E0B0E0E80E79
:100BC000F91E0A1F1B1F17FF05C016950795F794FE
:100BD000E794319687E016950795F794E7948A9500
:100BE000D1F705C0EE24FF248701EFEFF0E06E2F70
:100BF000679566276795902F9F77D794DD24D794C4
:100C00008E2F8695492F462B582F5D29B701CA0193
:100C10001F910F91FF90EF90DF900895FC01DB0191
:100C2000408151812281622F6F7770E0221F22273D
:100C3000221F9381892F880F822B282F30E0991F44
:100C40009927991F11969C93119721153105A9F5A4
:100C5000411551056105710511F482E037C082E844
:100C60009FEF13969C938E9312979A01AB0167E0C6
:100C7000220F331F441F551F6A95D1F783E08C93D1
:100C80000DC0220F331F441F551F12968D919C914A
:100C90001397019713969C938E931297203080E0C0
:100CA000380780E0480780E4580758F314962D93DE
:100CB0003D934D935C93179708952F3F310579F439
:100CC000411551056105710519F484E08C9308956F
:100CD00064FF03C081E08C9312C01C9210C02F5798
:100CE000304013963C932E93129783E08C9387E0C9
:100CF000440F551F661F771F8A95D1F770641496AD
:100D00004D935D936D937C93179708951F93DC012A
:100D1000FB019C91923008F447C08081823008F436
:100D200043C0943051F411961C91843099F581811F
:100D3000682F70E0611B71093FC0843021F0923050
:100D400031F48230B9F18181882389F12DC0119667
:100D50001C9111978230F1F081811817D9F4129605
:100D60002D913C911397828193818217930794F080
:100D700028173907BCF014968D919D910D90BC9168
:100D8000A02D2481358146815781281739074A07CC
:100D90005B0718F4112341F00AC082179307A407D8
:100DA000B50740F4112319F061E070E005C06FEF62
:100DB0007FEF02C060E070E0CB011F9108950F93B8
:100DC0001F93CF93DF93EC018B012091D10222235B
:100DD00019F460E070E04FC0A2E2B2E060E070E0C1
:100DE00030E08D919C9111978C179D07D9F5129643
:100DF0004D915C9113974830510598F51496ED91FB
:100E0000FC911597E730F10560F50230110548F5C2
:100E1000012B99F0EE0FFF1FED53FD4F0190F08174
:100E2000E02D208181E090E002C0880F991F4A9553
:100E3000E2F7282B2083E0811AC0EE0FFF1FED534D
:100E4000FD4F0190F081E02D208181E090E002C013
:100E5000880F991F4A95E2F7809582238083E0816D
:100E600006C060683F5F1A96321708F4BACF8091C7
:100E7000D102381709F46068862F972FDF91CF9140
:100E80001F910F9108950F931F93CF93DF93EC0160
:100E90008B013091D102332319F460E070E04FC030
:100EA000A2E2B2E060E070E020E08D919C911197A9
:100EB0008C179D0709F03EC012964D915C911397D7
:100EC00048305105B0F51496ED91FC911597E73037
:100ED000F10578F516968D919C911797029748F534
:100EE000012B99F0EE0FFF1FE955FD4F0190F081A6
:100EF000E02D208181E090E002C0880F991F4A9583
:100F0000E2F7282B2083E0811AC0EE0FFF1FE9557E
:100F1000FD4F0190F081E02D208181E090E002C042
:100F2000880F991F4A95E2F7809582238083E0819C
:100F300006C060682F5F1A96231708F4B6CF862F75
:100F4000972FDF91CF911F910F910895CF93DF934A
:100F5000BC012091D102222319F440E050E03AC0B4
:100F6000A2E2B2E040E050E030E08D919C91119718
:100F70008617970739F51296CD91DC911397C830F3
:100F8000D105F8F41496ED91FC911597E730F10531
:100F9000C0F416968D919C911797029790F4EE0FDE
:100FA000FF1FE955FD4F0190F081E02D208181E088
:100FB00090E002C0880F991FCA95E2F72827208386
:100FC00005C040683F5F1A96321778F28091D102CF
:100FD000381709F44068842F952FDF91CF91089539
:100FE0000F931F93CF93DF93EC018B013091D102CC
:100FF000332319F440E050E036C0A2E2B2E040E012
:1010000050E020E08D919C9111978C179D0719F568
:1010100012966D917C91139768307105D8F41496EF
:10102000ED91FC911597E730F105A0F4EE0FFF1F4D
:10103000EB54FD4F0190F081E02D808190E002C0E3
:10104000959587956A95E2F781709070F801918384
:10105000808305C040682F5F1A96231798F280910D
:10106000D102281709F44068842F952FDF91CF9182
:101070001F910F910895CF93DF93EC01562F20918C
:10108000D102222319F460E070E040C0A2E2B2E095
:1010900060E070E040E08D919C9111978C179D0766
:1010A00069F512968D919C911397089730F51496D7
:1010B000ED91FC911597E730F105F8F4EE0FFF1F65
:1010C000E955FD4F0190F081E02D20818FE090E007
:1010D0000C2E02C0880F991F0A94E2F780952823EE
:1010E000852F90E08F7090700C2E02C0880F991F92
:1010F0000A94E2F7282B208305C060684F5F1A9698
:10110000421748F28091D102481709F46068862F8F
:10111000972FDF91CF9108950F931F93CF93DF9374
:10112000EC018B01B091D102BB2319F420E030E037
:1011300089C080912202909123028C179D0709F0AB
:1011400071C0A0E040E050E017C04A2F50E0CA0153
:10115000880F991F9A01220F331F220F331F220F6E
:10116000331F820F931FFB01E80FF91F80819181CC
:101170008C179D0709F059C0FA01EE0FFF1FEE0F03
:10118000FF1FE40FF51FEE0FFF1FEC5DFD4FC08149
:10119000D181C830D10508F04FC0FA01EE0FFF1F12
:1011A000CA01880F991F880F991F880F991FE80F90
:1011B000F91FEA5DFD4F2081318127303105E0F5CF
:1011C00002301105C8F5012BB1F0F901EE0FFF1F38
:1011D000E955FD4F0190F081E02D208181E090E004
:1011E00002C0880F991FCA95E2F7282B208320811F
:1011F00020E030E023C0F901EE0FFF1FE955FD4F5D
:101200000190F081E02D208181E090E002C0880F04
:10121000991FCA95E2F7809582238083208120E080
:1012200030E00CC0A0E062E272E0AF5FAB1708F400
:101230008CCF20E030E002C020E830E08091D10285
:10124000A81709F42068822F932FDF91CF911F9167
:101250000F910895AF92BF92DF92EF92FF920F939A
:10126000DF93CF9300D0CDB7DEB7D090D102DD2091
:1012700019F4EE24FF2426C00F2EF2E2AF2EF2E086
:10128000BF2EF02DEE24FF2400E0F501668177816A
:10129000808191810E94DF069A838983F5016085B0
:1012A0007185808191810E948C0829813A81822BED
:1012B000932BE82AF92A0F5F8AE090E0A80EB91E66
:1012C0000D1518F38E2D9F2D0F900F90CF91DF915C
:1012D0000F91FF90EF90DF90BF90AF9008952F9205
:1012E0003F924F925F926F927F928F929F92AF92B6
:1012F000BF92CF92DF92EF92FF920F931F93DF93F3
:10130000CF93CDB7DEB728970FB6F894DEBF0FBEE8
:10131000CDBFC82E672B59F4809191029091920213
:1013200060E070E00E9443079A8389830AC080913D
:1013300091029091920261E070E00E9443079A83CB
:1013400089830F2EF3E9EF2EF2E0FF2EF02DF70147
:101350008081918160E070E00E9443078C016C2DD8
:1013600070E061707070F701848195810E9443077D
:101370009E838D836C2D669570E061707070F701AF
:10138000868197810E9443079C838B836C2D669591
:10139000669570E061707070F701808591850E949C
:1013A000430798878F836C2D66956695669570E0E8
:1013B00061707070F701828593850E9443071C015C
:1013C0006C2D62956F7070E061707070F7018485AC
:1013D00095850E9443072C016C2D62956695677078
:1013E00070E061707070F701868597850E944307F1
:1013F0003C016C2D629566956695637070E0617036
:101400007070F701808991890E9443074C016C2D0F
:10141000661F6627661FF7018289938970E00E9424
:1014200043075C0122E030E0E20EF31EF701808109
:10143000918161E070E00E9443076C0180E991E0D6
:101440000197F1F7F7018081918160E070E00E94DF
:10145000430729813A81022B132BED81FE810E2B4C
:101460001F2B2B813C81022B132BEF81F8850E2B38
:101470001F2B0229132904291529062917290829B0
:1014800019290A291B290C291D29E0E4FFE13197BC
:10149000F1F7082B192B802F912F28960FB6F8946F
:1014A000DEBF0FBECDBFCF91DF911F910F91FF9097
:1014B000EF90DF90CF90BF90AF909F908F907F90F4
:1014C0006F905F904F903F902F9008958091900281
:1014D0008C7F8093900260E070E00E946F09089515
:1014E0008091900283608093900260E070E00E949F
:1014F0006F090895809190028D7F8093900260E043
:1015000070E00E946F09089580919002826080933C
:10151000900260E070E00E946F090895809190024F
:101520008B7F8093900260E070E00E946F090895C5
:101530008091900284608093900260E070E00E944D
:101540006F09089588E160E070E00E946F090895D6
:101550008CE160E070E00E946F09089560580024FB
:10156000969587950794969587950794982F802D43
:10157000860F60E070E00E946F09089582E060E0ED
:1015800070E00E946F09089581E060E070E00E94C1
:101590006F09089561E070E00E946F090895FF925D
:1015A0000F931F93F82ECB01642F0E94AE0A8C017B
:1015B0008F2D61E070E00E946F099C01202B312B80
:1015C000822F932F1F910F91FF900895AF92BF929A
:1015D000DF92EF92FF920F93DF93CF9300D0CDB7BE
:1015E000DEB7660F660F660FDD246894D6F8D62A3C
:1015F0007C01AA24BB2400E08D2D802B60E070E0EC
:101600000E946F099A838983F70181917F0161E0CC
:1016100070E00E946F0929813A81822B932BA82ABE
:10162000B92A0F5F083041F78A2D9B2D0F900F903C
:10163000CF91DF910F91FF90EF90DF90BF90AF902F
:10164000089561E070E00E946F0908952F923F9223
:101650004F925F926F927F928F929F92AF92BF92C2
:10166000CF92DF92EF92FF920F931F935B016C0179
:10167000F42E20E030E040E050E00E948F03882309
:101680001CF03501460109C08DE20E94210B350195
:10169000460197FA909497F89094C401B3010E9480
:1016A0005F001B012C01062FA32CB42CE52C602F0E
:1016B0007A2D8B2D9E2D2AE030E040E050E00E94F4
:1016C000600D162F602F7A2D8B2D9E2D2AE030E095
:1016D00040E050E00E94600D022FA32EB42EE52EB4
:1016E000812F805D0E94210B6C01C401B30120E0B9
:1016F00030E040E050E00E942F03882391F1C114B4
:10170000D104A9F22EC0C201B1010E9471049B0153
:10171000AC01C401B3010E94D7015B016C01C60199
:10172000B50120E030E040E251E40E9435025B0167
:101730006C010E945F007B018C0170E0882777FDBF
:101740008095982F0E94BF039B01AC01C601B50193
:101750000E94D7015B016C018E2D805D0E94210BE0
:10176000DECFFF2081F68C2D9D2D1F910F91FF90D4
:10177000EF90DF90CF90BF90AF909F908F907F9031
:101780006F905F904F903F902F9008956F927F924F
:101790008F929F92AF92BF92CF92DF92EF92FF9281
:1017A0000F931F93CF93DF937B018C01992354F404
:1017B0008DE20E94210B66277727CB016E197F09E6
:1017C000800B910B99242AE030E040E050E00E9429
:1017D000820D822F932FA42FB52FBC01CD0193949E
:1017E000611571058105910571F7992009F44CC0C7
:1017F00057016801112344F4D094C094B094A0948C
:10180000A11CB11CC11CD11CC0E0D0E07724739492
:1018100066240F2EFAE08F2EF02D2CC0272D662D7A
:10182000289D202D11246F5F862F90E08417950747
:10183000BCF3E22EFF2400E010E0C601B501A801D0
:1018400097010E94820D822F805D0E94210BC82B80
:10185000D92B9A94D9F0C601B501A80197010E942D
:10186000820D372F482F592F862F932FA42FB52F56
:101870005C016D01892D90E0AC014150504014167F
:10188000150664F2272DD5CFC0E0D0E08C2F9D2F18
:10189000DF91CF911F910F91FF90EF90DF90CF904C
:1018A000BF90AF909F908F907F906F900895CF9250
:1018B000DF92EF92FF920F931F936B017C01CA019D
:1018C000622F0E94AE0A8C01C701B6010E94C60BAE
:1018D0009C01202B312B822F932F1F910F91FF9072
:1018E000EF90DF90CF900895EF92FF921F93CF93E8
:1018F000DF937C01FC018081882319F4C0E0D0E0F3
:101900000EC0C0E0D0E010E00E94210BC82BD92B04
:101910001F5FF701E10FF11D80818823A9F78C2F4C
:101920009D2FDF91CF911F91FF90EF900895FF922F
:101930000F931F93F82ECB01642F0E94AE0A8C01E7
:101940008F2D61E070E00E946F099C01202B312BEC
:10195000822F932F1F910F91FF900895CF92DF92C6
:10196000EF92FF920F931F93CF93DF937C016B0154
:10197000042FFC018081882319F4C0E0D0E011C05D
:10198000C0E0D0E010E0412F400FB6010E94970C5C
:10199000C82BD92B1F5FF701E10FF11D8081882330
:1019A00091F78C2F9D2FDF91CF911F910F91FF9079
:1019B000EF90DF90CF9008954F925F926F927F9259
:1019C0008F929F92AF92BF92CF92DF92EF92FF924F
:1019D0000F931F932CE231E040E951E0CA010197D7
:1019E000F1F721503040D1F788E360E070E00E94C9
:1019F0006F092C0180E190E40197F1F788E360E042
:101A000070E00E946F098C0180E991E00197F1F785
:101A100088E360E070E00E946F093C0185E08A95F0
:101A2000F1F781E060E070E00E946F094C0182E014
:101A300060E070E00E946F095C018CE060E070E0A3
:101A40000E946F096C0186E060E070E00E946F09FF
:101A50007C0188E360E070E00E946F090429152989
:101A600006291729082919290A291B290C291D29A2
:101A70000E291F29082B192B802F912F1F910F91B1
:101A8000FF90EF90DF90CF90BF90AF909F908F909E
:101A90007F906F905F904F9008950E942A090E9456
:101AA000DC0C80E091E060E070E040E00E94AE0C71
:101AB0008EE091E061E070E040E00E94AE0CFFCF6C
:101AC000A1E21A2EAA1BBB1BFD010DC0AA1FBB1F42
:101AD000EE1FFF1FA217B307E407F50720F0A21BB4
:101AE000B30BE40BF50B661F771F881F991F1A9421
:101AF00069F760957095809590959B01AC01BD014B
:101B0000CF01089597FB092E05260ED057FD04D06E
:101B1000D7DF0AD0001C38F45095409530952195B8
:101B20003F4F4F4F5F4F0895F6F790958095709512
:101B300061957F4F8F4F9F4F08952F923F924F9205
:101B40005F926F927F928F929F92AF92BF92CF924D
:101B5000DF92EF92FF920F931F93CF93DF93CDB756
:101B6000DEB7CA1BDB0B0FB6F894DEBF0FBECDBFCE
:101B700009942A88398848885F846E847D848C849F
:101B80009B84AA84B984C884DF80EE80FD800C81A8
:101B90001B81AA81B981CE0FD11D0FB6F894DEBF8B
:0C1BA0000FBECDBFED010895F894FFCFFB
:101BAC004D61686D6F7564204B6172616D003237E9
:101BBC0020466562203139393900000000000000F0
:101BCC0000000001020203030303040404040404E0
:101BDC0004040505050505050505050505050505AB
:101BEC00050506060606060606060606060606068B
:101BFC000606060606060606060606060606060679
:101C0C00060607070707070707070707070707075A
:101C1C000707070707070707070707070707070748
:101C2C000707070707070707070707070707070738
:101C3C000707070707070707070707070707070728
:101C4C00070708080808080808080808080808080A
:101C5C0008080808080808080808080808080808F8
:101C6C0008080808080808080808080808080808E8
:101C7C0008080808080808080808080808080808D8
:101C8C0008080808080808080808080808080808C8
:101C9C0008080808080808080808080808080808B8
:101CAC0008080808080808080808080808080808A8
:101CBC000808080808080808080808080808080898
:101CCC0008080800010001000100000009000200E2
:101CDC000100010000000A000300010001000000E7
:101CEC0000000000000001000000010001000000E5
:101CFC0001000000020002000000010000000300CF
:101D0C0003000000010000000400040000000100BA
:101D1C0000000500050000000100000006000600A0
:101D2C000000010000000700070000000100000097
:101D3C000C08000A00090000000100020003000466
:101D4C00000500060007003B003800350032002378
:101D5C00006200650039003600330030002100209D
:101D6C000063003A00370034003100220061006447
:021D7C00000B5A
:00000001FF
